{
  "contractName": "CWTPTokenSale",
  "abi": [
    {
      "constant": true,
      "inputs": [
        {
          "name": "addr",
          "type": "address"
        },
        {
          "name": "roleName",
          "type": "string"
        }
      ],
      "name": "checkRole",
      "outputs": [],
      "payable": false,
      "stateMutability": "view",
      "type": "function"
    },
    {
      "constant": true,
      "inputs": [],
      "name": "hasClosed",
      "outputs": [
        {
          "name": "",
          "type": "bool"
        }
      ],
      "payable": false,
      "stateMutability": "view",
      "type": "function"
    },
    {
      "constant": true,
      "inputs": [],
      "name": "getCurrentStep",
      "outputs": [
        {
          "name": "",
          "type": "uint8"
        }
      ],
      "payable": false,
      "stateMutability": "view",
      "type": "function"
    },
    {
      "constant": true,
      "inputs": [
        {
          "name": "addr",
          "type": "address"
        },
        {
          "name": "roleName",
          "type": "string"
        }
      ],
      "name": "hasRole",
      "outputs": [
        {
          "name": "",
          "type": "bool"
        }
      ],
      "payable": false,
      "stateMutability": "view",
      "type": "function"
    },
    {
      "constant": true,
      "inputs": [
        {
          "name": "_step",
          "type": "uint8"
        }
      ],
      "name": "getStepTokenSold",
      "outputs": [
        {
          "name": "",
          "type": "uint256"
        }
      ],
      "payable": false,
      "stateMutability": "view",
      "type": "function"
    },
    {
      "constant": true,
      "inputs": [
        {
          "name": "",
          "type": "address"
        }
      ],
      "name": "balances",
      "outputs": [
        {
          "name": "",
          "type": "uint256"
        }
      ],
      "payable": false,
      "stateMutability": "view",
      "type": "function"
    },
    {
      "constant": true,
      "inputs": [],
      "name": "getCurrentTokenSold",
      "outputs": [
        {
          "name": "",
          "type": "uint256"
        }
      ],
      "payable": false,
      "stateMutability": "view",
      "type": "function"
    },
    {
      "constant": true,
      "inputs": [],
      "name": "rate",
      "outputs": [
        {
          "name": "",
          "type": "uint256"
        }
      ],
      "payable": false,
      "stateMutability": "view",
      "type": "function"
    },
    {
      "constant": true,
      "inputs": [],
      "name": "getStepsCout",
      "outputs": [
        {
          "name": "",
          "type": "uint8"
        }
      ],
      "payable": false,
      "stateMutability": "view",
      "type": "function"
    },
    {
      "constant": true,
      "inputs": [],
      "name": "weiRaised",
      "outputs": [
        {
          "name": "",
          "type": "uint256"
        }
      ],
      "payable": false,
      "stateMutability": "view",
      "type": "function"
    },
    {
      "constant": true,
      "inputs": [],
      "name": "ROLE_SRV",
      "outputs": [
        {
          "name": "",
          "type": "string"
        }
      ],
      "payable": false,
      "stateMutability": "view",
      "type": "function"
    },
    {
      "constant": true,
      "inputs": [],
      "name": "closingTime",
      "outputs": [
        {
          "name": "",
          "type": "uint256"
        }
      ],
      "payable": false,
      "stateMutability": "view",
      "type": "function"
    },
    {
      "constant": true,
      "inputs": [],
      "name": "ROLE_DAPP",
      "outputs": [
        {
          "name": "",
          "type": "string"
        }
      ],
      "payable": false,
      "stateMutability": "view",
      "type": "function"
    },
    {
      "constant": true,
      "inputs": [],
      "name": "wallet",
      "outputs": [
        {
          "name": "",
          "type": "address"
        }
      ],
      "payable": false,
      "stateMutability": "view",
      "type": "function"
    },
    {
      "constant": true,
      "inputs": [
        {
          "name": "step",
          "type": "uint8"
        }
      ],
      "name": "getStepRate",
      "outputs": [
        {
          "name": "",
          "type": "uint256"
        }
      ],
      "payable": false,
      "stateMutability": "view",
      "type": "function"
    },
    {
      "constant": false,
      "inputs": [
        {
          "name": "addr",
          "type": "address"
        },
        {
          "name": "roleName",
          "type": "string"
        }
      ],
      "name": "adminRemoveRole",
      "outputs": [],
      "payable": false,
      "stateMutability": "nonpayable",
      "type": "function"
    },
    {
      "constant": false,
      "inputs": [],
      "name": "withdrawTokens",
      "outputs": [],
      "payable": false,
      "stateMutability": "nonpayable",
      "type": "function"
    },
    {
      "constant": true,
      "inputs": [
        {
          "name": "_step",
          "type": "uint8"
        }
      ],
      "name": "getStepCap",
      "outputs": [
        {
          "name": "",
          "type": "uint256"
        }
      ],
      "payable": false,
      "stateMutability": "view",
      "type": "function"
    },
    {
      "constant": false,
      "inputs": [
        {
          "name": "addr",
          "type": "address"
        },
        {
          "name": "roleName",
          "type": "string"
        }
      ],
      "name": "adminAddRole",
      "outputs": [],
      "payable": false,
      "stateMutability": "nonpayable",
      "type": "function"
    },
    {
      "constant": true,
      "inputs": [],
      "name": "openingTime",
      "outputs": [
        {
          "name": "",
          "type": "uint256"
        }
      ],
      "payable": false,
      "stateMutability": "view",
      "type": "function"
    },
    {
      "constant": true,
      "inputs": [],
      "name": "getEthUsdRate",
      "outputs": [
        {
          "name": "",
          "type": "uint256"
        }
      ],
      "payable": false,
      "stateMutability": "view",
      "type": "function"
    },
    {
      "constant": true,
      "inputs": [
        {
          "name": "",
          "type": "address"
        }
      ],
      "name": "deposited",
      "outputs": [
        {
          "name": "",
          "type": "uint256"
        }
      ],
      "payable": false,
      "stateMutability": "view",
      "type": "function"
    },
    {
      "constant": true,
      "inputs": [],
      "name": "ROLE_ADMIN",
      "outputs": [
        {
          "name": "",
          "type": "string"
        }
      ],
      "payable": false,
      "stateMutability": "view",
      "type": "function"
    },
    {
      "constant": true,
      "inputs": [],
      "name": "getCurrentCap",
      "outputs": [
        {
          "name": "",
          "type": "uint256"
        }
      ],
      "payable": false,
      "stateMutability": "view",
      "type": "function"
    },
    {
      "constant": false,
      "inputs": [
        {
          "name": "_beneficiary",
          "type": "address"
        }
      ],
      "name": "buyTokens",
      "outputs": [],
      "payable": true,
      "stateMutability": "payable",
      "type": "function"
    },
    {
      "constant": true,
      "inputs": [],
      "name": "getCurrentRate",
      "outputs": [
        {
          "name": "",
          "type": "uint256"
        }
      ],
      "payable": false,
      "stateMutability": "view",
      "type": "function"
    },
    {
      "constant": true,
      "inputs": [],
      "name": "token",
      "outputs": [
        {
          "name": "",
          "type": "address"
        }
      ],
      "payable": false,
      "stateMutability": "view",
      "type": "function"
    },
    {
      "inputs": [
        {
          "name": "_startTime",
          "type": "uint256"
        },
        {
          "name": "_endTime",
          "type": "uint256"
        },
        {
          "name": "_cap",
          "type": "uint256"
        },
        {
          "name": "_minAmount",
          "type": "uint256"
        },
        {
          "name": "_rate",
          "type": "uint256"
        },
        {
          "name": "_wallet",
          "type": "address"
        },
        {
          "name": "_tokenAddress",
          "type": "address"
        }
      ],
      "payable": false,
      "stateMutability": "nonpayable",
      "type": "constructor"
    },
    {
      "payable": true,
      "stateMutability": "payable",
      "type": "fallback"
    },
    {
      "anonymous": false,
      "inputs": [
        {
          "indexed": true,
          "name": "beneficiary",
          "type": "address"
        },
        {
          "indexed": false,
          "name": "weiAmount",
          "type": "uint256"
        }
      ],
      "name": "Refunded",
      "type": "event"
    },
    {
      "anonymous": false,
      "inputs": [
        {
          "indexed": true,
          "name": "timestamp",
          "type": "uint256"
        },
        {
          "indexed": false,
          "name": "step",
          "type": "uint256"
        },
        {
          "indexed": false,
          "name": "oldCap",
          "type": "uint256"
        },
        {
          "indexed": false,
          "name": "newCap",
          "type": "uint256"
        }
      ],
      "name": "SetStepCap",
      "type": "event"
    },
    {
      "anonymous": false,
      "inputs": [
        {
          "indexed": true,
          "name": "timestamp",
          "type": "uint256"
        },
        {
          "indexed": false,
          "name": "oldRate",
          "type": "uint256"
        },
        {
          "indexed": false,
          "name": "newRate",
          "type": "uint256"
        }
      ],
      "name": "UsdRateUpdated",
      "type": "event"
    },
    {
      "anonymous": false,
      "inputs": [
        {
          "indexed": true,
          "name": "timestamp",
          "type": "uint256"
        },
        {
          "indexed": false,
          "name": "step",
          "type": "uint256"
        },
        {
          "indexed": false,
          "name": "oldRate",
          "type": "uint256"
        },
        {
          "indexed": false,
          "name": "newRate",
          "type": "uint256"
        }
      ],
      "name": "SetStepRate",
      "type": "event"
    },
    {
      "anonymous": false,
      "inputs": [
        {
          "indexed": true,
          "name": "timestamp",
          "type": "uint256"
        },
        {
          "indexed": false,
          "name": "step",
          "type": "uint256"
        },
        {
          "indexed": false,
          "name": "dueDate",
          "type": "uint256"
        }
      ],
      "name": "AddStep",
      "type": "event"
    },
    {
      "anonymous": false,
      "inputs": [
        {
          "indexed": false,
          "name": "addr",
          "type": "address"
        },
        {
          "indexed": false,
          "name": "roleName",
          "type": "string"
        }
      ],
      "name": "RoleAdded",
      "type": "event"
    },
    {
      "anonymous": false,
      "inputs": [
        {
          "indexed": false,
          "name": "addr",
          "type": "address"
        },
        {
          "indexed": false,
          "name": "roleName",
          "type": "string"
        }
      ],
      "name": "RoleRemoved",
      "type": "event"
    },
    {
      "anonymous": false,
      "inputs": [
        {
          "indexed": true,
          "name": "purchaser",
          "type": "address"
        },
        {
          "indexed": true,
          "name": "beneficiary",
          "type": "address"
        },
        {
          "indexed": false,
          "name": "value",
          "type": "uint256"
        },
        {
          "indexed": false,
          "name": "amount",
          "type": "uint256"
        }
      ],
      "name": "TokenPurchase",
      "type": "event"
    },
    {
      "constant": false,
      "inputs": [
        {
          "name": "_timestamp",
          "type": "uint256"
        },
        {
          "name": "_cap",
          "type": "uint256"
        },
        {
          "name": "_rate",
          "type": "uint256"
        }
      ],
      "name": "addCrowdsaleStep",
      "outputs": [],
      "payable": false,
      "stateMutability": "nonpayable",
      "type": "function"
    },
    {
      "constant": false,
      "inputs": [
        {
          "name": "usdRate",
          "type": "uint256"
        }
      ],
      "name": "setEthUsdRate",
      "outputs": [],
      "payable": false,
      "stateMutability": "nonpayable",
      "type": "function"
    },
    {
      "constant": true,
      "inputs": [
        {
          "name": "amount",
          "type": "uint256"
        }
      ],
      "name": "getPriceForTokens",
      "outputs": [
        {
          "name": "",
          "type": "uint256"
        }
      ],
      "payable": false,
      "stateMutability": "view",
      "type": "function"
    },
    {
      "constant": false,
      "inputs": [],
      "name": "transferTokenOwnership",
      "outputs": [],
      "payable": false,
      "stateMutability": "nonpayable",
      "type": "function"
    },
    {
      "constant": false,
      "inputs": [
        {
          "name": "investor",
          "type": "address"
        }
      ],
      "name": "refund",
      "outputs": [],
      "payable": false,
      "stateMutability": "nonpayable",
      "type": "function"
    },
    {
      "constant": false,
      "inputs": [],
      "name": "CloseContract",
      "outputs": [],
      "payable": false,
      "stateMutability": "nonpayable",
      "type": "function"
    }
  ],
  "bytecode": "0x60806040523480156200001157600080fd5b5060405160e0806200296b83398101806040528101908080519060200190929190805190602001909291908051906020019092919080519060200190929190805190602001909291908051906020019092919080519060200190929190505050848488888686866000831115156200008857600080fd5b600073ffffffffffffffffffffffffffffffffffffffff168273ffffffffffffffffffffffffffffffffffffffff1614151515620000c557600080fd5b600073ffffffffffffffffffffffffffffffffffffffff168173ffffffffffffffffffffffffffffffffffffffff16141515156200010257600080fd5b8260028190555081600160006101000a81548173ffffffffffffffffffffffffffffffffffffffff021916908373ffffffffffffffffffffffffffffffffffffffff160217905550806000806101000a81548173ffffffffffffffffffffffffffffffffffffffff021916908373ffffffffffffffffffffffffffffffffffffffff1602179055505050504282101515156200019d57600080fd5b818110151515620001ad57600080fd5b816004819055508060058190555050506200020d336040805190810160405280600581526020017f61646d696e00000000000000000000000000000000000000000000000000000081525062000336640100000000026401000000009004565b600160086000600554815260200190815260200160002060006101000a81548160ff021916908360ff16021790555081600e8190555080600f819055505050600073ffffffffffffffffffffffffffffffffffffffff168173ffffffffffffffffffffffffffffffffffffffff16141515156200028957600080fd5b620002d9336040805190810160405280600481526020017f646170700000000000000000000000000000000000000000000000000000000081525062000336640100000000026401000000009004565b62000329336040805190810160405280600781526020017f736572766963650000000000000000000000000000000000000000000000000081525062000336640100000000026401000000009004565b50505050505050620004fa565b620003c5826007836040518082805190602001908083835b6020831015156200037557805182526020820191506020810190506020830392506200034e565b6001836020036101000a03801982511681845116808217855250505050505090500191505090815260200160405180910390206200049c6401000000000262002387179091906401000000009004565b7fbfec83d64eaa953f2708271a023ab9ee82057f8f3578d548c1a4ba0b5b7004898282604051808373ffffffffffffffffffffffffffffffffffffffff1673ffffffffffffffffffffffffffffffffffffffff16815260200180602001828103825283818151815260200191508051906020019080838360005b838110156200045c5780820151818401526020810190506200043f565b50505050905090810190601f1680156200048a5780820380516001836020036101000a031916815260200191505b50935050505060405180910390a15050565b60018260000160008373ffffffffffffffffffffffffffffffffffffffff1673ffffffffffffffffffffffffffffffffffffffff16815260200190815260200160002060006101000a81548160ff0219169083151502179055505050565b612461806200050a6000396000f3006080604052600436106101a1576000357c0100000000000000000000000000000000000000000000000000000000900463ffffffff1680630921f5bf146101ac5780630988ca8c146101ed5780631515bc2b146102765780631d3824ea146102a5578063217fe6c6146102d6578063234183cd146103775780632675c123146103bb57806327e235e3146103d2578063296e4525146104295780632c4e722e146104545780632ca8ef811461047f5780634042b66f146104b05780634056675e146104db57806341df5b74146104f25780634b6753bc1461058257806351a0daf9146105ad578063521eb2731461063d578063557f0de41461069457806382f12839146106d857806388cee87e146107195780638d8f2adb146107a2578063a340ebee146107b9578063b25fa92c146107fd578063b7a8807c14610886578063c8583e69146108b1578063cb13cddb146108dc578063d391014b14610933578063d8c30700146109c3578063ec8ac4d8146109ee578063f7fb07b014610a24578063fa89401a14610a4f578063fb6f93a414610a92578063fc0c546a14610abf575b6101aa33610b16565b005b3480156101b857600080fd5b506101d760048036038101908080359060200190929190505050610be4565b6040518082815260200191505060405180910390f35b3480156101f957600080fd5b50610274600480360381019080803573ffffffffffffffffffffffffffffffffffffffff169060200190929190803590602001908201803590602001908080601f0160208091040260200160405190810160405280939291908181526020018383808284378201915050505050509192919290505050610c20565b005b34801561028257600080fd5b5061028b610ca1565b604051808215151515815260200191505060405180910390f35b3480156102b157600080fd5b506102ba610cad565b604051808260ff1660ff16815260200191505060405180910390f35b3480156102e257600080fd5b5061035d600480360381019080803573ffffffffffffffffffffffffffffffffffffffff169060200190929190803590602001908201803590602001908080601f0160208091040260200160405190810160405280939291908181526020018383808284378201915050505050509192919290505050610d35565b604051808215151515815260200191505060405180910390f35b34801561038357600080fd5b506103a5600480360381019080803560ff169060200190929190505050610dbc565b6040518082815260200191505060405180910390f35b3480156103c757600080fd5b506103d0610e09565b005b3480156103de57600080fd5b50610413600480360381019080803573ffffffffffffffffffffffffffffffffffffffff169060200190929190505050610f5d565b6040518082815260200191505060405180910390f35b34801561043557600080fd5b5061043e610f75565b6040518082815260200191505060405180910390f35b34801561046057600080fd5b50610469610f8c565b6040518082815260200191505060405180910390f35b34801561048b57600080fd5b50610494610f92565b604051808260ff1660ff16815260200191505060405180910390f35b3480156104bc57600080fd5b506104c5610fa2565b6040518082815260200191505060405180910390f35b3480156104e757600080fd5b506104f0610fa8565b005b3480156104fe57600080fd5b506105076110cd565b6040518080602001828103825283818151815260200191508051906020019080838360005b8381101561054757808201518184015260208101905061052c565b50505050905090810190601f1680156105745780820380516001836020036101000a031916815260200191505b509250505060405180910390f35b34801561058e57600080fd5b50610597611106565b6040518082815260200191505060405180910390f35b3480156105b957600080fd5b506105c261110c565b6040518080602001828103825283818151815260200191508051906020019080838360005b838110156106025780820151818401526020810190506105e7565b50505050905090810190601f16801561062f5780820380516001836020036101000a031916815260200191505b509250505060405180910390f35b34801561064957600080fd5b50610652611145565b604051808273ffffffffffffffffffffffffffffffffffffffff1673ffffffffffffffffffffffffffffffffffffffff16815260200191505060405180910390f35b3480156106a057600080fd5b506106c2600480360381019080803560ff16906020019092919050505061116b565b6040518082815260200191505060405180910390f35b3480156106e457600080fd5b506107176004803603810190808035906020019092919080359060200190929190803590602001909291905050506111e5565b005b34801561072557600080fd5b506107a0600480360381019080803573ffffffffffffffffffffffffffffffffffffffff169060200190929190803590602001908201803590602001908080601f016020809104026020016040519081016040528093929190818152602001838380828437820191505050505050919291929050505061124d565b005b3480156107ae57600080fd5b506107b761129a565b005b3480156107c557600080fd5b506107e7600480360381019080803560ff169060200190929190505050611352565b6040518082815260200191505060405180910390f35b34801561080957600080fd5b50610884600480360381019080803573ffffffffffffffffffffffffffffffffffffffff169060200190929190803590602001908201803590602001908080601f01602080910402602001604051908101604052809392919081815260200183838082843782019150505050505091929192905050506113cc565b005b34801561089257600080fd5b5061089b611419565b6040518082815260200191505060405180910390f35b3480156108bd57600080fd5b506108c661141f565b6040518082815260200191505060405180910390f35b3480156108e857600080fd5b5061091d600480360381019080803573ffffffffffffffffffffffffffffffffffffffff169060200190929190505050611429565b6040518082815260200191505060405180910390f35b34801561093f57600080fd5b50610948611441565b6040518080602001828103825283818151815260200191508051906020019080838360005b8381101561098857808201518184015260208101905061096d565b50505050905090810190601f1680156109b55780820380516001836020036101000a031916815260200191505b509250505060405180910390f35b3480156109cf57600080fd5b506109d861147a565b6040518082815260200191505060405180910390f35b610a22600480360381019080803573ffffffffffffffffffffffffffffffffffffffff169060200190929190505050610b16565b005b348015610a3057600080fd5b50610a39611491565b6040518082815260200191505060405180910390f35b348015610a5b57600080fd5b50610a90600480360381019080803573ffffffffffffffffffffffffffffffffffffffff1690602001909291905050506114a8565b005b348015610a9e57600080fd5b50610abd60048036038101908080359060200190929190505050611617565b005b348015610acb57600080fd5b50610ad4611664565b604051808273ffffffffffffffffffffffffffffffffffffffff1673ffffffffffffffffffffffffffffffffffffffff16815260200191505060405180910390f35b600080349150610b268383611689565b610b2f82611711565b9050610b468260035461175390919063ffffffff16565b600381905550610b56838261176f565b8273ffffffffffffffffffffffffffffffffffffffff163373ffffffffffffffffffffffffffffffffffffffff167f623b3804fa71d67900d064613da8f94b9617215ee90799290593e1745087ad188484604051808381526020018281526020019250505060405180910390a3610bcd8383611895565b610bd56118c2565b610bdf83836119b9565b505050565b6000610c19610bf161141f565b610c0b610bfc611491565b856119bd90919063ffffffff16565b6119f590919063ffffffff16565b9050919050565b610c9d826007836040518082805190602001908083835b602083101515610c5c5780518252602082019150602081019050602083039250610c37565b6001836020036101000a0380198251168184511680821785525050505050509050019150509081526020016040518091039020611a0b90919063ffffffff16565b5050565b60006005544211905090565b60008060008090505b6009805490508160ff161015610cff5760098160ff16815481101515610cd857fe5b9060005260206000200154915081421015610cf257610cff565b8080600101915050610cb6565b81421115610d0d5760055491505b6008600083815260200190815260200160002060009054906101000a900460ff169250505090565b6000610db4836007846040518082805190602001908083835b602083101515610d735780518252602082019150602081019050602083039250610d4e565b6001836020036101000a0380198251168184511680821785525050505050509050019150509081526020016040518091039020611a2490919063ffffffff16565b905092915050565b6000808260ff16118015610ddd5750610dd3610f92565b60ff168260ff1611155b1515610de857600080fd5b600d60008360ff1660ff168152602001908152602001600020549050919050565b610e48336040805190810160405280600581526020017f61646d696e000000000000000000000000000000000000000000000000000000815250610c20565b3073ffffffffffffffffffffffffffffffffffffffff166000809054906101000a900473ffffffffffffffffffffffffffffffffffffffff1673ffffffffffffffffffffffffffffffffffffffff16638da5cb5b6040518163ffffffff167c0100000000000000000000000000000000000000000000000000000000028152600401602060405180830381600087803b158015610ee457600080fd5b505af1158015610ef8573d6000803e3d6000fd5b505050506040513d6020811015610f0e57600080fd5b810190808051906020019092919050505073ffffffffffffffffffffffffffffffffffffffff161415610f4457610f43610fa8565b5b3373ffffffffffffffffffffffffffffffffffffffff16ff5b60066020528060005260406000206000915090505481565b6000610f87610f82610cad565b610dbc565b905090565b60025481565b6000600160098054905001905090565b60035481565b610fe7336040805190810160405280600581526020017f61646d696e000000000000000000000000000000000000000000000000000000815250610c20565b42600554101515610ff757600080fd5b6000809054906101000a900473ffffffffffffffffffffffffffffffffffffffff1673ffffffffffffffffffffffffffffffffffffffff1663f2fde38b336040518263ffffffff167c0100000000000000000000000000000000000000000000000000000000028152600401808273ffffffffffffffffffffffffffffffffffffffff1673ffffffffffffffffffffffffffffffffffffffff168152602001915050600060405180830381600087803b1580156110b357600080fd5b505af11580156110c7573d6000803e3d6000fd5b50505050565b6040805190810160405280600781526020017f736572766963650000000000000000000000000000000000000000000000000081525081565b60055481565b6040805190810160405280600481526020017f646170700000000000000000000000000000000000000000000000000000000081525081565b600160009054906101000a900473ffffffffffffffffffffffffffffffffffffffff1681565b6000808260ff1611801561118c5750611182610f92565b60ff168260ff1611155b151561119757600080fd5b6000600a60008460ff1660ff1681526020019081526020016000205414156111c35760025490506111e0565b600a60008360ff1660ff1681526020019081526020016000205490505b919050565b60006040805190810160405280600481526020017f64617070000000000000000000000000000000000000000000000000000000008152506112273382610c20565b61123085611a7d565b915061123c8285611c2c565b6112468284611cfb565b5050505050565b61128c336040805190810160405280600581526020017f61646d696e000000000000000000000000000000000000000000000000000000815250610c20565b6112968282611dca565b5050565b60006112a4610ca1565b15156112af57600080fd5b600660003373ffffffffffffffffffffffffffffffffffffffff1673ffffffffffffffffffffffffffffffffffffffff16815260200190815260200160002054905060008111151561130057600080fd5b6000600660003373ffffffffffffffffffffffffffffffffffffffff1673ffffffffffffffffffffffffffffffffffffffff1681526020019081526020016000208190555061134f3382611f1b565b50565b6000808260ff161180156113735750611369610f92565b60ff168260ff1611155b151561137e57600080fd5b6000600c60008460ff1660ff1681526020019081526020016000205414156113aa57600e5490506113c7565b600c60008360ff1660ff1681526020019081526020016000205490505b919050565b61140b336040805190810160405280600581526020017f61646d696e000000000000000000000000000000000000000000000000000000815250610c20565b6114158282612029565b5050565b60045481565b6000600b54905090565b60106020528060005260406000206000915090505481565b6040805190810160405280600581526020017f61646d696e00000000000000000000000000000000000000000000000000000081525081565b600061148c611487610cad565b611352565b905090565b60006114a361149e610cad565b61116b565b905090565b600080601060008473ffffffffffffffffffffffffffffffffffffffff1673ffffffffffffffffffffffffffffffffffffffff168152602001908152602001600020541115156114f757600080fd5b601060008373ffffffffffffffffffffffffffffffffffffffff1673ffffffffffffffffffffffffffffffffffffffff1681526020019081526020016000205490506000601060008473ffffffffffffffffffffffffffffffffffffffff1673ffffffffffffffffffffffffffffffffffffffff168152602001908152602001600020819055508173ffffffffffffffffffffffffffffffffffffffff166108fc829081150290604051600060405180830381858888f193505050501580156115c4573d6000803e3d6000fd5b508173ffffffffffffffffffffffffffffffffffffffff167fd7dee2702d63ad89917b6a4da9981c90c4d24f8c2bdfd64c604ecae57d8d0651826040518082815260200191505060405180910390a25050565b6040805190810160405280600781526020017f73657276696365000000000000000000000000000000000000000000000000008152506116573382610c20565b6116608261217a565b5050565b6000809054906101000a900473ffffffffffffffffffffffffffffffffffffffff1681565b600061169583836121ce565b61169e82611711565b9050600f546116c46116ae610f75565b6116b661147a565b6121fb90919063ffffffff16565b10806116d25750600f548110155b15156116dd57600080fd5b6116e561147a565b6116ff826116f1610f75565b61175390919063ffffffff16565b1115151561170c57600080fd5b505050565b600080600061171e611491565b915061174782611739600b54876119bd90919063ffffffff16565b6119f590919063ffffffff16565b90508092505050919050565b6000818301905082811015151561176657fe5b80905092915050565b6000806000670de0b6b3a76400008481151561178757fe5b069250611792611491565b91506117c061179f61141f565b6117b284866119bd90919063ffffffff16565b6119f590919063ffffffff16565b905061181481601060003373ffffffffffffffffffffffffffffffffffffffff1673ffffffffffffffffffffffffffffffffffffffff1681526020019081526020016000205461175390919063ffffffff16565b601060003373ffffffffffffffffffffffffffffffffffffffff1673ffffffffffffffffffffffffffffffffffffffff1681526020019081526020016000208190555061186c8160115461175390919063ffffffff16565b60118190555061188e8561188985876121fb90919063ffffffff16565b612214565b5050505050565b60006118a183836122ad565b6118aa82611711565b90506118bd6118b7610cad565b826122b1565b505050565b60003490506011546118f4823073ffffffffffffffffffffffffffffffffffffffff16316121fb90919063ffffffff16565b101561194d5761194a61193b61192a833073ffffffffffffffffffffffffffffffffffffffff16316121fb90919063ffffffff16565b6011546121fb90919063ffffffff16565b826121fb90919063ffffffff16565b90505b600160009054906101000a900473ffffffffffffffffffffffffffffffffffffffff1673ffffffffffffffffffffffffffffffffffffffff166108fc829081150290604051600060405180830381858888f193505050501580156119b5573d6000803e3d6000fd5b5050565b5050565b6000808314156119d057600090506119ef565b81830290508183828115156119e157fe5b041415156119eb57fe5b8090505b92915050565b60008183811515611a0257fe5b04905092915050565b611a158282611a24565b1515611a2057600080fd5b5050565b60008260000160008373ffffffffffffffffffffffffffffffffffffffff1673ffffffffffffffffffffffffffffffffffffffff16815260200190815260200160002060009054906101000a900460ff16905092915050565b600081600454101515611a8f57600080fd5b81600554111515611a9f57600080fd5b60ff600980549050101515611ab357600080fd5b60006009805490501480611b0a575081600860006009600160098054905003815481101515611ade57fe5b9060005260206000200154815260200190815260200160002060009054906101000a900460ff1660ff16105b1515611b1557600080fd5b600982908060018154018082558091505090600182039060005260206000200160009091929091909150556008600084815260200190815260200160002060006101000a81548160ff021916908360ff16021790555060016009805490500160086000600554815260200190815260200160002060006101000a81548160ff021916908360ff160217905550427f7a43ef9fe7835ed757868b8ce7d6c2b9f2903e43391b223b99a7cf0c9092759c6008600085815260200190815260200160002060009054906101000a900460ff1684604051808360ff1681526020018281526020019250505060405180910390a26008600083815260200190815260200160002060009054906101000a900460ff169050919050565b6000808360ff16118015611c4d5750611c43610f92565b60ff168360ff1611155b1515611c5857600080fd5b600c60008460ff1660ff16815260200190815260200160002054905081600c60008560ff1660ff16815260200190815260200160002081905550427fdbabfacca738260ddce8370c8478a679770d1ee00903e0f39af54f9c724f30468483600c60008860ff1660ff16815260200190815260200160002054604051808460ff168152602001838152602001828152602001935050505060405180910390a2505050565b6000808360ff16118015611d1c5750611d12610f92565b60ff168360ff1611155b1515611d2757600080fd5b600a60008460ff1660ff16815260200190815260200160002054905081600a60008560ff1660ff16815260200190815260200160002081905550427ff097b3b215e6a581146face4d463e05af77eab2b46441cd9586e78855ef44e248483600a60008860ff1660ff16815260200190815260200160002054604051808460ff168152602001838152602001828152602001935050505060405180910390a2505050565b611e47826007836040518082805190602001908083835b602083101515611e065780518252602082019150602081019050602083039250611de1565b6001836020036101000a038019825116818451168082178552505050505050905001915050908152602001604051809103902061232990919063ffffffff16565b7fd211483f91fc6eff862467f8de606587a30c8fc9981056f051b897a418df803a8282604051808373ffffffffffffffffffffffffffffffffffffffff1673ffffffffffffffffffffffffffffffffffffffff16815260200180602001828103825283818151815260200191508051906020019080838360005b83811015611edc578082015181840152602081019050611ec1565b50505050905090810190601f168015611f095780820380516001836020036101000a031916815260200191505b50935050505060405180910390a15050565b6000809054906101000a900473ffffffffffffffffffffffffffffffffffffffff1673ffffffffffffffffffffffffffffffffffffffff166340c10f1983836040518363ffffffff167c0100000000000000000000000000000000000000000000000000000000028152600401808373ffffffffffffffffffffffffffffffffffffffff1673ffffffffffffffffffffffffffffffffffffffff16815260200182815260200192505050602060405180830381600087803b158015611fdf57600080fd5b505af1158015611ff3573d6000803e3d6000fd5b505050506040513d602081101561200957600080fd5b8101908080519060200190929190505050151561202557600080fd5b5050565b6120a6826007836040518082805190602001908083835b6020831015156120655780518252602082019150602081019050602083039250612040565b6001836020036101000a038019825116818451168082178552505050505050905001915050908152602001604051809103902061238790919063ffffffff16565b7fbfec83d64eaa953f2708271a023ab9ee82057f8f3578d548c1a4ba0b5b7004898282604051808373ffffffffffffffffffffffffffffffffffffffff1673ffffffffffffffffffffffffffffffffffffffff16815260200180602001828103825283818151815260200191508051906020019080838360005b8381101561213b578082015181840152602081019050612120565b50505050905090810190601f1680156121685780820380516001836020036101000a031916815260200191505b50935050505060405180910390a15050565b6000600b54905081600b81905550427feee2990117e261ad836c99206b5a81160bd3ea73bdf8b128b1ead5143906649a82600b54604051808381526020018281526020019250505060405180910390a25050565b60045442101580156121e257506005544211155b15156121ed57600080fd5b6121f782826123e5565b5050565b600082821115151561220957fe5b818303905092915050565b61226681600660008573ffffffffffffffffffffffffffffffffffffffff1673ffffffffffffffffffffffffffffffffffffffff1681526020019081526020016000205461175390919063ffffffff16565b600660008473ffffffffffffffffffffffffffffffffffffffff1673ffffffffffffffffffffffffffffffffffffffff168152602001908152602001600020819055505050565b5050565b60008260ff161180156122d157506122c7610f92565b60ff168260ff1611155b15156122dc57600080fd5b61230881600d60008560ff1660ff1681526020019081526020016000205461175390919063ffffffff16565b600d60008460ff1660ff168152602001908152602001600020819055505050565b60008260000160008373ffffffffffffffffffffffffffffffffffffffff1673ffffffffffffffffffffffffffffffffffffffff16815260200190815260200160002060006101000a81548160ff0219169083151502179055505050565b60018260000160008373ffffffffffffffffffffffffffffffffffffffff1673ffffffffffffffffffffffffffffffffffffffff16815260200190815260200160002060006101000a81548160ff0219169083151502179055505050565b600073ffffffffffffffffffffffffffffffffffffffff168273ffffffffffffffffffffffffffffffffffffffff161415151561242157600080fd5b6000811415151561243157600080fd5b50505600a165627a7a723058204e194e74092cefa84ebd6f478e13198d80b101213bcb827d2c228e9029b7dac40029",
  "source": "pragma solidity 0.4.24;\r\n\r\nimport \"./CWTPToken.sol\";\r\nimport \"./SteppedRateCrowdsale.sol\";\r\nimport \"./SteppedCapCrowdsale.sol\";\r\nimport \"openzeppelin-solidity/contracts/crowdsale/distribution/PostDeliveryCrowdsale.sol\";\r\nimport \"openzeppelin-solidity/contracts/crowdsale/emission/MintedCrowdsale.sol\";\r\nimport \"openzeppelin-solidity/contracts/ownership/rbac/RBACWithAdmin.sol\";\r\n\r\ncontract CWTPTokenSale is PostDeliveryCrowdsale, MintedCrowdsale, RBACWithAdmin, SteppedRateCrowdsale, SteppedCapCrowdsale {\r\n\r\n  string public constant ROLE_DAPP = \"dapp\";\r\n  string public constant ROLE_SRV = \"service\";\r\n\r\n  mapping (address => uint256) public deposited;\r\n  event Refunded(address indexed beneficiary, uint256 weiAmount);\r\n  uint256 private _totalRefundDeposit;\r\n\r\n  constructor(uint256 _startTime, uint256 _endTime, uint256 _cap, uint256 _minAmount, uint256 _rate, address _wallet, ERC20 _tokenAddress) public\r\n    TimedCrowdsale(_startTime, _endTime)\r\n    SteppedCapCrowdsale(_cap, _minAmount)\r\n    Crowdsale(_rate, _wallet, _tokenAddress)\r\n  {\r\n    require(Ownable(_tokenAddress) != address(0));\r\n    addRole(msg.sender, ROLE_DAPP);\r\n    addRole(msg.sender, ROLE_SRV);\r\n    //addRole(address(0x000000000000000000000), ROLE_DAPP);\r\n  }\r\n\r\n  function addCrowdsaleStep(uint256 _timestamp, uint256 _cap, uint256 _rate) onlyRole(ROLE_DAPP) public{\r\n    uint8 step = _addStep(_timestamp);\r\n    _setStepCap(step, _cap);\r\n    _setStepRate(step, _rate);\r\n  }\r\n\r\n  function setEthUsdRate(uint256 usdRate) onlyRole(ROLE_SRV) public{\r\n    _setEthUsdRate(usdRate);\r\n  }\r\n\r\n  function getPriceForTokens(uint256 amount) public view returns(uint256) {\r\n    return amount.mul(getCurrentRate()).div(getEthUsdRate());\r\n  }\r\n\r\n  function transferTokenOwnership() onlyAdmin public\r\n  {\r\n    // solium-disable-next-line security/no-block-members\r\n    require(closingTime < block.timestamp);\r\n    Ownable(token).transferOwnership(msg.sender);\r\n  }\r\n\r\n  function _processPurchase(address _beneficiary, uint256 _tokenAmount) internal {\r\n    uint256 dep = (_tokenAmount % 1 ether);\r\n    uint256 currentRate = getCurrentRate();\r\n    uint256 refund = dep.mul(currentRate).div(getEthUsdRate());\r\n    deposited[msg.sender] = deposited[msg.sender].add(refund);\r\n    _totalRefundDeposit = _totalRefundDeposit.add(refund);\r\n    super._processPurchase(_beneficiary, _tokenAmount.sub(dep));\r\n  }\r\n\r\n  function _forwardFunds() internal {\r\n    uint256 funds = msg.value;\r\n    if (address(this).balance.sub(funds) < _totalRefundDeposit)\r\n    {\r\n      funds = funds.sub(_totalRefundDeposit.sub(address(this).balance.sub(funds)));\r\n    }\r\n    wallet.transfer(funds);\r\n  }\r\n\r\n  function refund(address investor) public {\r\n    require(deposited[investor] > 0);\r\n    uint256 depositedValue = deposited[investor];\r\n    deposited[investor] = 0;\r\n    investor.transfer(depositedValue);\r\n    emit Refunded(investor, depositedValue);\r\n  }\r\n\r\n  function CloseContract() onlyAdmin public {\r\n    if(Ownable(token).owner() == address(this))\r\n      transferTokenOwnership();\r\n    selfdestruct(msg.sender);\r\n  }\r\n}\r\n",
  "sourcePath": "c:\\Users\\maxwell\\Documents\\GitHub\\cryptoworkplace.io\\res\\Etherium\\CWP\\contracts\\CWTPTokenSale.sol",
  "compiler": {
    "name": "solc",
    "version": "0.4.24+commit.e67f0147.Emscripten.clang"
  },
  "schemaVersion": "2.0.0",
  "updatedAt": "2018-06-03T15:25:39.693Z"
}