{
  "contractName": "CWTPTokenSale",
  "abi": [
    {
      "constant": true,
      "inputs": [
        {
          "name": "addr",
          "type": "address"
        },
        {
          "name": "roleName",
          "type": "string"
        }
      ],
      "name": "checkRole",
      "outputs": [],
      "payable": false,
      "stateMutability": "view",
      "type": "function"
    },
    {
      "constant": true,
      "inputs": [],
      "name": "hasClosed",
      "outputs": [
        {
          "name": "",
          "type": "bool"
        }
      ],
      "payable": false,
      "stateMutability": "view",
      "type": "function"
    },
    {
      "constant": true,
      "inputs": [],
      "name": "getCurrentStep",
      "outputs": [
        {
          "name": "",
          "type": "uint8"
        }
      ],
      "payable": false,
      "stateMutability": "view",
      "type": "function"
    },
    {
      "constant": true,
      "inputs": [
        {
          "name": "addr",
          "type": "address"
        },
        {
          "name": "roleName",
          "type": "string"
        }
      ],
      "name": "hasRole",
      "outputs": [
        {
          "name": "",
          "type": "bool"
        }
      ],
      "payable": false,
      "stateMutability": "view",
      "type": "function"
    },
    {
      "constant": true,
      "inputs": [
        {
          "name": "_step",
          "type": "uint8"
        }
      ],
      "name": "getStepTokenSold",
      "outputs": [
        {
          "name": "",
          "type": "uint256"
        }
      ],
      "payable": false,
      "stateMutability": "view",
      "type": "function"
    },
    {
      "constant": true,
      "inputs": [
        {
          "name": "",
          "type": "address"
        }
      ],
      "name": "balances",
      "outputs": [
        {
          "name": "",
          "type": "uint256"
        }
      ],
      "payable": false,
      "stateMutability": "view",
      "type": "function"
    },
    {
      "constant": true,
      "inputs": [],
      "name": "getCurrentTokenSold",
      "outputs": [
        {
          "name": "",
          "type": "uint256"
        }
      ],
      "payable": false,
      "stateMutability": "view",
      "type": "function"
    },
    {
      "constant": true,
      "inputs": [],
      "name": "rate",
      "outputs": [
        {
          "name": "",
          "type": "uint256"
        }
      ],
      "payable": false,
      "stateMutability": "view",
      "type": "function"
    },
    {
      "constant": true,
      "inputs": [],
      "name": "getStepsCout",
      "outputs": [
        {
          "name": "",
          "type": "uint8"
        }
      ],
      "payable": false,
      "stateMutability": "view",
      "type": "function"
    },
    {
      "constant": true,
      "inputs": [],
      "name": "weiRaised",
      "outputs": [
        {
          "name": "",
          "type": "uint256"
        }
      ],
      "payable": false,
      "stateMutability": "view",
      "type": "function"
    },
    {
      "constant": true,
      "inputs": [],
      "name": "ROLE_SRV",
      "outputs": [
        {
          "name": "",
          "type": "string"
        }
      ],
      "payable": false,
      "stateMutability": "view",
      "type": "function"
    },
    {
      "constant": true,
      "inputs": [],
      "name": "closingTime",
      "outputs": [
        {
          "name": "",
          "type": "uint256"
        }
      ],
      "payable": false,
      "stateMutability": "view",
      "type": "function"
    },
    {
      "constant": true,
      "inputs": [],
      "name": "ROLE_DAPP",
      "outputs": [
        {
          "name": "",
          "type": "string"
        }
      ],
      "payable": false,
      "stateMutability": "view",
      "type": "function"
    },
    {
      "constant": true,
      "inputs": [],
      "name": "wallet",
      "outputs": [
        {
          "name": "",
          "type": "address"
        }
      ],
      "payable": false,
      "stateMutability": "view",
      "type": "function"
    },
    {
      "constant": true,
      "inputs": [
        {
          "name": "step",
          "type": "uint8"
        }
      ],
      "name": "getStepRate",
      "outputs": [
        {
          "name": "",
          "type": "uint256"
        }
      ],
      "payable": false,
      "stateMutability": "view",
      "type": "function"
    },
    {
      "constant": false,
      "inputs": [
        {
          "name": "addr",
          "type": "address"
        },
        {
          "name": "roleName",
          "type": "string"
        }
      ],
      "name": "adminRemoveRole",
      "outputs": [],
      "payable": false,
      "stateMutability": "nonpayable",
      "type": "function"
    },
    {
      "constant": true,
      "inputs": [
        {
          "name": "_step",
          "type": "uint8"
        }
      ],
      "name": "getStepCap",
      "outputs": [
        {
          "name": "",
          "type": "uint256"
        }
      ],
      "payable": false,
      "stateMutability": "view",
      "type": "function"
    },
    {
      "constant": false,
      "inputs": [
        {
          "name": "addr",
          "type": "address"
        },
        {
          "name": "roleName",
          "type": "string"
        }
      ],
      "name": "adminAddRole",
      "outputs": [],
      "payable": false,
      "stateMutability": "nonpayable",
      "type": "function"
    },
    {
      "constant": true,
      "inputs": [],
      "name": "openingTime",
      "outputs": [
        {
          "name": "",
          "type": "uint256"
        }
      ],
      "payable": false,
      "stateMutability": "view",
      "type": "function"
    },
    {
      "constant": true,
      "inputs": [],
      "name": "getEthUsdRate",
      "outputs": [
        {
          "name": "",
          "type": "uint256"
        }
      ],
      "payable": false,
      "stateMutability": "view",
      "type": "function"
    },
    {
      "constant": true,
      "inputs": [
        {
          "name": "",
          "type": "address"
        }
      ],
      "name": "deposited",
      "outputs": [
        {
          "name": "",
          "type": "uint256"
        }
      ],
      "payable": false,
      "stateMutability": "view",
      "type": "function"
    },
    {
      "constant": true,
      "inputs": [],
      "name": "ROLE_ADMIN",
      "outputs": [
        {
          "name": "",
          "type": "string"
        }
      ],
      "payable": false,
      "stateMutability": "view",
      "type": "function"
    },
    {
      "constant": true,
      "inputs": [],
      "name": "getCurrentCap",
      "outputs": [
        {
          "name": "",
          "type": "uint256"
        }
      ],
      "payable": false,
      "stateMutability": "view",
      "type": "function"
    },
    {
      "constant": false,
      "inputs": [
        {
          "name": "_beneficiary",
          "type": "address"
        }
      ],
      "name": "buyTokens",
      "outputs": [],
      "payable": true,
      "stateMutability": "payable",
      "type": "function"
    },
    {
      "constant": true,
      "inputs": [],
      "name": "getCurrentRate",
      "outputs": [
        {
          "name": "",
          "type": "uint256"
        }
      ],
      "payable": false,
      "stateMutability": "view",
      "type": "function"
    },
    {
      "constant": true,
      "inputs": [],
      "name": "token",
      "outputs": [
        {
          "name": "",
          "type": "address"
        }
      ],
      "payable": false,
      "stateMutability": "view",
      "type": "function"
    },
    {
      "inputs": [
        {
          "name": "_startTime",
          "type": "uint256"
        },
        {
          "name": "_endTime",
          "type": "uint256"
        },
        {
          "name": "_cap",
          "type": "uint256"
        },
        {
          "name": "_minAmount",
          "type": "uint256"
        },
        {
          "name": "_rate",
          "type": "uint256"
        },
        {
          "name": "_wallet",
          "type": "address"
        },
        {
          "name": "_tokenAddress",
          "type": "address"
        }
      ],
      "payable": false,
      "stateMutability": "nonpayable",
      "type": "constructor"
    },
    {
      "payable": true,
      "stateMutability": "payable",
      "type": "fallback"
    },
    {
      "anonymous": false,
      "inputs": [
        {
          "indexed": true,
          "name": "beneficiary",
          "type": "address"
        },
        {
          "indexed": false,
          "name": "weiAmount",
          "type": "uint256"
        }
      ],
      "name": "Refunded",
      "type": "event"
    },
    {
      "anonymous": false,
      "inputs": [
        {
          "indexed": true,
          "name": "timestamp",
          "type": "uint256"
        },
        {
          "indexed": false,
          "name": "step",
          "type": "uint256"
        },
        {
          "indexed": false,
          "name": "oldCap",
          "type": "uint256"
        },
        {
          "indexed": false,
          "name": "newCap",
          "type": "uint256"
        }
      ],
      "name": "SetStepCap",
      "type": "event"
    },
    {
      "anonymous": false,
      "inputs": [
        {
          "indexed": true,
          "name": "timestamp",
          "type": "uint256"
        },
        {
          "indexed": false,
          "name": "oldRate",
          "type": "uint256"
        },
        {
          "indexed": false,
          "name": "newRate",
          "type": "uint256"
        }
      ],
      "name": "UsdRateUpdated",
      "type": "event"
    },
    {
      "anonymous": false,
      "inputs": [
        {
          "indexed": true,
          "name": "timestamp",
          "type": "uint256"
        },
        {
          "indexed": false,
          "name": "step",
          "type": "uint256"
        },
        {
          "indexed": false,
          "name": "oldRate",
          "type": "uint256"
        },
        {
          "indexed": false,
          "name": "newRate",
          "type": "uint256"
        }
      ],
      "name": "SetStepRate",
      "type": "event"
    },
    {
      "anonymous": false,
      "inputs": [
        {
          "indexed": true,
          "name": "timestamp",
          "type": "uint256"
        },
        {
          "indexed": false,
          "name": "step",
          "type": "uint256"
        },
        {
          "indexed": false,
          "name": "dueDate",
          "type": "uint256"
        }
      ],
      "name": "AddStep",
      "type": "event"
    },
    {
      "anonymous": false,
      "inputs": [
        {
          "indexed": false,
          "name": "addr",
          "type": "address"
        },
        {
          "indexed": false,
          "name": "roleName",
          "type": "string"
        }
      ],
      "name": "RoleAdded",
      "type": "event"
    },
    {
      "anonymous": false,
      "inputs": [
        {
          "indexed": false,
          "name": "addr",
          "type": "address"
        },
        {
          "indexed": false,
          "name": "roleName",
          "type": "string"
        }
      ],
      "name": "RoleRemoved",
      "type": "event"
    },
    {
      "anonymous": false,
      "inputs": [
        {
          "indexed": true,
          "name": "purchaser",
          "type": "address"
        },
        {
          "indexed": true,
          "name": "beneficiary",
          "type": "address"
        },
        {
          "indexed": false,
          "name": "value",
          "type": "uint256"
        },
        {
          "indexed": false,
          "name": "amount",
          "type": "uint256"
        }
      ],
      "name": "TokenPurchase",
      "type": "event"
    },
    {
      "constant": false,
      "inputs": [
        {
          "name": "_timestamp",
          "type": "uint256"
        },
        {
          "name": "_cap",
          "type": "uint256"
        },
        {
          "name": "_rate",
          "type": "uint256"
        }
      ],
      "name": "addCrowdsaleStep",
      "outputs": [],
      "payable": false,
      "stateMutability": "nonpayable",
      "type": "function"
    },
    {
      "constant": false,
      "inputs": [
        {
          "name": "usdRate",
          "type": "uint256"
        }
      ],
      "name": "setEthUsdRate",
      "outputs": [],
      "payable": false,
      "stateMutability": "nonpayable",
      "type": "function"
    },
    {
      "constant": true,
      "inputs": [
        {
          "name": "amount",
          "type": "uint256"
        }
      ],
      "name": "getPriceForTokens",
      "outputs": [
        {
          "name": "",
          "type": "uint256"
        }
      ],
      "payable": false,
      "stateMutability": "view",
      "type": "function"
    },
    {
      "constant": false,
      "inputs": [],
      "name": "transferTokenOwnership",
      "outputs": [],
      "payable": false,
      "stateMutability": "nonpayable",
      "type": "function"
    },
    {
      "constant": false,
      "inputs": [
        {
          "name": "investor",
          "type": "address"
        }
      ],
      "name": "refund",
      "outputs": [],
      "payable": false,
      "stateMutability": "nonpayable",
      "type": "function"
    },
    {
      "constant": false,
      "inputs": [],
      "name": "CloseContract",
      "outputs": [],
      "payable": false,
      "stateMutability": "nonpayable",
      "type": "function"
    }
  ],
  "bytecode": "0x60806040523480156200001157600080fd5b5060405160e08062002adf83398101806040528101908080519060200190929190805190602001909291908051906020019092919080519060200190929190805190602001909291908051906020019092919080519060200190929190505050848488888686866000831115156200008857600080fd5b600073ffffffffffffffffffffffffffffffffffffffff168273ffffffffffffffffffffffffffffffffffffffff1614151515620000c557600080fd5b600073ffffffffffffffffffffffffffffffffffffffff168173ffffffffffffffffffffffffffffffffffffffff16141515156200010257600080fd5b8260028190555081600160006101000a81548173ffffffffffffffffffffffffffffffffffffffff021916908373ffffffffffffffffffffffffffffffffffffffff160217905550806000806101000a81548173ffffffffffffffffffffffffffffffffffffffff021916908373ffffffffffffffffffffffffffffffffffffffff1602179055505050504282101515156200019d57600080fd5b818110151515620001ad57600080fd5b816004819055508060058190555050506200020d336040805190810160405280600581526020017f61646d696e00000000000000000000000000000000000000000000000000000081525062000336640100000000026401000000009004565b600160096000600554815260200190815260200160002060006101000a81548160ff021916908360ff16021790555081600f81905550806010819055505050600073ffffffffffffffffffffffffffffffffffffffff168173ffffffffffffffffffffffffffffffffffffffff16141515156200028957600080fd5b620002d9336040805190810160405280600481526020017f646170700000000000000000000000000000000000000000000000000000000081525062000336640100000000026401000000009004565b62000329336040805190810160405280600781526020017f736572766963650000000000000000000000000000000000000000000000000081525062000336640100000000026401000000009004565b50505050505050620004fa565b620003c5826008836040518082805190602001908083835b6020831015156200037557805182526020820191506020810190506020830392506200034e565b6001836020036101000a03801982511681845116808217855250505050505090500191505090815260200160405180910390206200049c64010000000002620024fb179091906401000000009004565b7fbfec83d64eaa953f2708271a023ab9ee82057f8f3578d548c1a4ba0b5b7004898282604051808373ffffffffffffffffffffffffffffffffffffffff1673ffffffffffffffffffffffffffffffffffffffff16815260200180602001828103825283818151815260200191508051906020019080838360005b838110156200045c5780820151818401526020810190506200043f565b50505050905090810190601f1680156200048a5780820380516001836020036101000a031916815260200191505b50935050505060405180910390a15050565b60018260000160008373ffffffffffffffffffffffffffffffffffffffff1673ffffffffffffffffffffffffffffffffffffffff16815260200190815260200160002060006101000a81548160ff0219169083151502179055505050565b6125d5806200050a6000396000f300608060405260043610610196576000357c0100000000000000000000000000000000000000000000000000000000900463ffffffff1680630921f5bf146101a15780630988ca8c146101e25780631515bc2b1461026b5780631d3824ea1461029a578063217fe6c6146102cb578063234183cd1461036c5780632675c123146103b057806327e235e3146103c7578063296e45251461041e5780632c4e722e146104495780632ca8ef81146104745780634042b66f146104a55780634056675e146104d057806341df5b74146104e75780634b6753bc1461057757806351a0daf9146105a2578063521eb27314610632578063557f0de41461068957806382f12839146106cd57806388cee87e1461070e578063a340ebee14610797578063b25fa92c146107db578063b7a8807c14610864578063c8583e691461088f578063cb13cddb146108ba578063d391014b14610911578063d8c30700146109a1578063ec8ac4d8146109cc578063f7fb07b014610a02578063fa89401a14610a2d578063fb6f93a414610a70578063fc0c546a14610a9d575b61019f33610af4565b005b3480156101ad57600080fd5b506101cc60048036038101908080359060200190929190505050610bc2565b6040518082815260200191505060405180910390f35b3480156101ee57600080fd5b50610269600480360381019080803573ffffffffffffffffffffffffffffffffffffffff169060200190929190803590602001908201803590602001908080601f0160208091040260200160405190810160405280939291908181526020018383808284378201915050505050509192919290505050610bfe565b005b34801561027757600080fd5b50610280610c7f565b604051808215151515815260200191505060405180910390f35b3480156102a657600080fd5b506102af610c8b565b604051808260ff1660ff16815260200191505060405180910390f35b3480156102d757600080fd5b50610352600480360381019080803573ffffffffffffffffffffffffffffffffffffffff169060200190929190803590602001908201803590602001908080601f0160208091040260200160405190810160405280939291908181526020018383808284378201915050505050509192919290505050610d13565b604051808215151515815260200191505060405180910390f35b34801561037857600080fd5b5061039a600480360381019080803560ff169060200190929190505050610d9a565b6040518082815260200191505060405180910390f35b3480156103bc57600080fd5b506103c5610de7565b005b3480156103d357600080fd5b50610408600480360381019080803573ffffffffffffffffffffffffffffffffffffffff169060200190929190505050610f56565b6040518082815260200191505060405180910390f35b34801561042a57600080fd5b50610433610f6e565b6040518082815260200191505060405180910390f35b34801561045557600080fd5b5061045e610f85565b6040518082815260200191505060405180910390f35b34801561048057600080fd5b50610489610f8b565b604051808260ff1660ff16815260200191505060405180910390f35b3480156104b157600080fd5b506104ba610f9b565b6040518082815260200191505060405180910390f35b3480156104dc57600080fd5b506104e5610fa1565b005b3480156104f357600080fd5b506104fc6110c6565b6040518080602001828103825283818151815260200191508051906020019080838360005b8381101561053c578082015181840152602081019050610521565b50505050905090810190601f1680156105695780820380516001836020036101000a031916815260200191505b509250505060405180910390f35b34801561058357600080fd5b5061058c6110ff565b6040518082815260200191505060405180910390f35b3480156105ae57600080fd5b506105b7611105565b6040518080602001828103825283818151815260200191508051906020019080838360005b838110156105f75780820151818401526020810190506105dc565b50505050905090810190601f1680156106245780820380516001836020036101000a031916815260200191505b509250505060405180910390f35b34801561063e57600080fd5b5061064761113e565b604051808273ffffffffffffffffffffffffffffffffffffffff1673ffffffffffffffffffffffffffffffffffffffff16815260200191505060405180910390f35b34801561069557600080fd5b506106b7600480360381019080803560ff169060200190929190505050611164565b6040518082815260200191505060405180910390f35b3480156106d957600080fd5b5061070c6004803603810190808035906020019092919080359060200190929190803590602001909291905050506111de565b005b34801561071a57600080fd5b50610795600480360381019080803573ffffffffffffffffffffffffffffffffffffffff169060200190929190803590602001908201803590602001908080601f0160208091040260200160405190810160405280939291908181526020018383808284378201915050505050509192919290505050611246565b005b3480156107a357600080fd5b506107c5600480360381019080803560ff169060200190929190505050611293565b6040518082815260200191505060405180910390f35b3480156107e757600080fd5b50610862600480360381019080803573ffffffffffffffffffffffffffffffffffffffff169060200190929190803590602001908201803590602001908080601f016020809104026020016040519081016040528093929190818152602001838380828437820191505050505050919291929050505061130d565b005b34801561087057600080fd5b5061087961135a565b6040518082815260200191505060405180910390f35b34801561089b57600080fd5b506108a4611360565b6040518082815260200191505060405180910390f35b3480156108c657600080fd5b506108fb600480360381019080803573ffffffffffffffffffffffffffffffffffffffff16906020019092919050505061136a565b6040518082815260200191505060405180910390f35b34801561091d57600080fd5b50610926611382565b6040518080602001828103825283818151815260200191508051906020019080838360005b8381101561096657808201518184015260208101905061094b565b50505050905090810190601f1680156109935780820380516001836020036101000a031916815260200191505b509250505060405180910390f35b3480156109ad57600080fd5b506109b66113bb565b6040518082815260200191505060405180910390f35b610a00600480360381019080803573ffffffffffffffffffffffffffffffffffffffff169060200190929190505050610af4565b005b348015610a0e57600080fd5b50610a176113d2565b6040518082815260200191505060405180910390f35b348015610a3957600080fd5b50610a6e600480360381019080803573ffffffffffffffffffffffffffffffffffffffff1690602001909291905050506113e9565b005b348015610a7c57600080fd5b50610a9b60048036038101908080359060200190929190505050611558565b005b348015610aa957600080fd5b50610ab26115a5565b604051808273ffffffffffffffffffffffffffffffffffffffff1673ffffffffffffffffffffffffffffffffffffffff16815260200191505060405180910390f35b600080349150610b0483836115ca565b610b0d82611652565b9050610b248260035461169490919063ffffffff16565b600381905550610b3483826116b0565b8273ffffffffffffffffffffffffffffffffffffffff163373ffffffffffffffffffffffffffffffffffffffff167f623b3804fa71d67900d064613da8f94b9617215ee90799290593e1745087ad188484604051808381526020018281526020019250505060405180910390a3610bab83836117d6565b610bb3611803565b610bbd83836118fa565b505050565b6000610bf7610bcf611360565b610be9610bda6113d2565b856118fe90919063ffffffff16565b61193690919063ffffffff16565b9050919050565b610c7b826008836040518082805190602001908083835b602083101515610c3a5780518252602082019150602081019050602083039250610c15565b6001836020036101000a038019825116818451168082178552505050505050905001915050908152602001604051809103902061194c90919063ffffffff16565b5050565b60006005544211905090565b60008060008090505b600a805490508160ff161015610cdd57600a8160ff16815481101515610cb657fe5b9060005260206000200154915081421015610cd057610cdd565b8080600101915050610c94565b81421115610ceb5760055491505b6009600083815260200190815260200160002060009054906101000a900460ff169250505090565b6000610d92836008846040518082805190602001908083835b602083101515610d515780518252602082019150602081019050602083039250610d2c565b6001836020036101000a038019825116818451168082178552505050505050905001915050908152602001604051809103902061196590919063ffffffff16565b905092915050565b6000808260ff16118015610dbb5750610db1610f8b565b60ff168260ff1611155b1515610dc657600080fd5b600e60008360ff1660ff168152602001908152602001600020549050919050565b610e26336040805190810160405280600581526020017f61646d696e000000000000000000000000000000000000000000000000000000815250610bfe565b610e2e610c7f565b1515610e3957600080fd5b610e416119be565b3073ffffffffffffffffffffffffffffffffffffffff166000809054906101000a900473ffffffffffffffffffffffffffffffffffffffff1673ffffffffffffffffffffffffffffffffffffffff16638da5cb5b6040518163ffffffff167c0100000000000000000000000000000000000000000000000000000000028152600401602060405180830381600087803b158015610edd57600080fd5b505af1158015610ef1573d6000803e3d6000fd5b505050506040513d6020811015610f0757600080fd5b810190808051906020019092919050505073ffffffffffffffffffffffffffffffffffffffff161415610f3d57610f3c610fa1565b5b3373ffffffffffffffffffffffffffffffffffffffff16ff5b60066020528060005260406000206000915090505481565b6000610f80610f7b610c8b565b610d9a565b905090565b60025481565b60006001600a8054905001905090565b60035481565b610fe0336040805190810160405280600581526020017f61646d696e000000000000000000000000000000000000000000000000000000815250610bfe565b42600554101515610ff057600080fd5b6000809054906101000a900473ffffffffffffffffffffffffffffffffffffffff1673ffffffffffffffffffffffffffffffffffffffff1663f2fde38b336040518263ffffffff167c0100000000000000000000000000000000000000000000000000000000028152600401808273ffffffffffffffffffffffffffffffffffffffff1673ffffffffffffffffffffffffffffffffffffffff168152602001915050600060405180830381600087803b1580156110ac57600080fd5b505af11580156110c0573d6000803e3d6000fd5b50505050565b6040805190810160405280600781526020017f736572766963650000000000000000000000000000000000000000000000000081525081565b60055481565b6040805190810160405280600481526020017f646170700000000000000000000000000000000000000000000000000000000081525081565b600160009054906101000a900473ffffffffffffffffffffffffffffffffffffffff1681565b6000808260ff16118015611185575061117b610f8b565b60ff168260ff1611155b151561119057600080fd5b6000600b60008460ff1660ff1681526020019081526020016000205414156111bc5760025490506111d9565b600b60008360ff1660ff1681526020019081526020016000205490505b919050565b60006040805190810160405280600481526020017f64617070000000000000000000000000000000000000000000000000000000008152506112203382610bfe565b61122985611b42565b91506112358285611cf1565b61123f8284611dc0565b5050505050565b611285336040805190810160405280600581526020017f61646d696e000000000000000000000000000000000000000000000000000000815250610bfe565b61128f8282611e8f565b5050565b6000808260ff161180156112b457506112aa610f8b565b60ff168260ff1611155b15156112bf57600080fd5b6000600d60008460ff1660ff1681526020019081526020016000205414156112eb57600f549050611308565b600d60008360ff1660ff1681526020019081526020016000205490505b919050565b61134c336040805190810160405280600581526020017f61646d696e000000000000000000000000000000000000000000000000000000815250610bfe565b6113568282611fe0565b5050565b60045481565b6000600c54905090565b60116020528060005260406000206000915090505481565b6040805190810160405280600581526020017f61646d696e00000000000000000000000000000000000000000000000000000081525081565b60006113cd6113c8610c8b565b611293565b905090565b60006113e46113df610c8b565b611164565b905090565b600080601160008473ffffffffffffffffffffffffffffffffffffffff1673ffffffffffffffffffffffffffffffffffffffff1681526020019081526020016000205411151561143857600080fd5b601160008373ffffffffffffffffffffffffffffffffffffffff1673ffffffffffffffffffffffffffffffffffffffff1681526020019081526020016000205490506000601160008473ffffffffffffffffffffffffffffffffffffffff1673ffffffffffffffffffffffffffffffffffffffff168152602001908152602001600020819055508173ffffffffffffffffffffffffffffffffffffffff166108fc829081150290604051600060405180830381858888f19350505050158015611505573d6000803e3d6000fd5b508173ffffffffffffffffffffffffffffffffffffffff167fd7dee2702d63ad89917b6a4da9981c90c4d24f8c2bdfd64c604ecae57d8d0651826040518082815260200191505060405180910390a25050565b6040805190810160405280600781526020017f73657276696365000000000000000000000000000000000000000000000000008152506115983382610bfe565b6115a182612131565b5050565b6000809054906101000a900473ffffffffffffffffffffffffffffffffffffffff1681565b60006115d68383612185565b6115df82611652565b90506010546116056115ef610f6e565b6115f76113bb565b6121b290919063ffffffff16565b108061161357506010548110155b151561161e57600080fd5b6116266113bb565b61164082611632610f6e565b61169490919063ffffffff16565b1115151561164d57600080fd5b505050565b600080600061165f6113d2565b91506116888261167a600c54876118fe90919063ffffffff16565b61193690919063ffffffff16565b90508092505050919050565b600081830190508281101515156116a757fe5b80905092915050565b6000806000670de0b6b3a7640000848115156116c857fe5b0692506116d36113d2565b91506117016116e0611360565b6116f384866118fe90919063ffffffff16565b61193690919063ffffffff16565b905061175581601160003373ffffffffffffffffffffffffffffffffffffffff1673ffffffffffffffffffffffffffffffffffffffff1681526020019081526020016000205461169490919063ffffffff16565b601160003373ffffffffffffffffffffffffffffffffffffffff1673ffffffffffffffffffffffffffffffffffffffff168152602001908152602001600020819055506117ad8160125461169490919063ffffffff16565b6012819055506117cf856117ca85876121b290919063ffffffff16565b6121cb565b5050505050565b60006117e28383612313565b6117eb82611652565b90506117fe6117f8610c8b565b82612317565b505050565b6000349050601254611835823073ffffffffffffffffffffffffffffffffffffffff16316121b290919063ffffffff16565b101561188e5761188b61187c61186b833073ffffffffffffffffffffffffffffffffffffffff16316121b290919063ffffffff16565b6012546121b290919063ffffffff16565b826121b290919063ffffffff16565b90505b600160009054906101000a900473ffffffffffffffffffffffffffffffffffffffff1673ffffffffffffffffffffffffffffffffffffffff166108fc829081150290604051600060405180830381858888f193505050501580156118f6573d6000803e3d6000fd5b5050565b5050565b6000808314156119115760009050611930565b818302905081838281151561192257fe5b0414151561192c57fe5b8090505b92915050565b6000818381151561194357fe5b04905092915050565b6119568282611965565b151561196157600080fd5b5050565b60008260000160008373ffffffffffffffffffffffffffffffffffffffff1673ffffffffffffffffffffffffffffffffffffffff16815260200190815260200160002060009054906101000a900460ff16905092915050565b6000806119c9610c7f565b15156119d457600080fd5b600091505b600780549050821015611b3e57600660006007848154811015156119f957fe5b9060005260206000200160009054906101000a900473ffffffffffffffffffffffffffffffffffffffff1673ffffffffffffffffffffffffffffffffffffffff1673ffffffffffffffffffffffffffffffffffffffff168152602001908152602001600020549050600081111515611a7057600080fd5b600060066000600785815481101515611a8557fe5b9060005260206000200160009054906101000a900473ffffffffffffffffffffffffffffffffffffffff1673ffffffffffffffffffffffffffffffffffffffff1673ffffffffffffffffffffffffffffffffffffffff16815260200190815260200160002081905550611b31600783815481101515611b0057fe5b9060005260206000200160009054906101000a900473ffffffffffffffffffffffffffffffffffffffff168261238f565b81806001019250506119d9565b5050565b600081600454101515611b5457600080fd5b81600554111515611b6457600080fd5b60ff600a80549050101515611b7857600080fd5b6000600a805490501480611bcf57508160096000600a6001600a8054905003815481101515611ba357fe5b9060005260206000200154815260200190815260200160002060009054906101000a900460ff1660ff16105b1515611bda57600080fd5b600a82908060018154018082558091505090600182039060005260206000200160009091929091909150556009600084815260200190815260200160002060006101000a81548160ff021916908360ff1602179055506001600a805490500160096000600554815260200190815260200160002060006101000a81548160ff021916908360ff160217905550427f7a43ef9fe7835ed757868b8ce7d6c2b9f2903e43391b223b99a7cf0c9092759c6009600085815260200190815260200160002060009054906101000a900460ff1684604051808360ff1681526020018281526020019250505060405180910390a26009600083815260200190815260200160002060009054906101000a900460ff169050919050565b6000808360ff16118015611d125750611d08610f8b565b60ff168360ff1611155b1515611d1d57600080fd5b600d60008460ff1660ff16815260200190815260200160002054905081600d60008560ff1660ff16815260200190815260200160002081905550427fdbabfacca738260ddce8370c8478a679770d1ee00903e0f39af54f9c724f30468483600d60008860ff1660ff16815260200190815260200160002054604051808460ff168152602001838152602001828152602001935050505060405180910390a2505050565b6000808360ff16118015611de15750611dd7610f8b565b60ff168360ff1611155b1515611dec57600080fd5b600b60008460ff1660ff16815260200190815260200160002054905081600b60008560ff1660ff16815260200190815260200160002081905550427ff097b3b215e6a581146face4d463e05af77eab2b46441cd9586e78855ef44e248483600b60008860ff1660ff16815260200190815260200160002054604051808460ff168152602001838152602001828152602001935050505060405180910390a2505050565b611f0c826008836040518082805190602001908083835b602083101515611ecb5780518252602082019150602081019050602083039250611ea6565b6001836020036101000a038019825116818451168082178552505050505050905001915050908152602001604051809103902061249d90919063ffffffff16565b7fd211483f91fc6eff862467f8de606587a30c8fc9981056f051b897a418df803a8282604051808373ffffffffffffffffffffffffffffffffffffffff1673ffffffffffffffffffffffffffffffffffffffff16815260200180602001828103825283818151815260200191508051906020019080838360005b83811015611fa1578082015181840152602081019050611f86565b50505050905090810190601f168015611fce5780820380516001836020036101000a031916815260200191505b50935050505060405180910390a15050565b61205d826008836040518082805190602001908083835b60208310151561201c5780518252602082019150602081019050602083039250611ff7565b6001836020036101000a03801982511681845116808217855250505050505090500191505090815260200160405180910390206124fb90919063ffffffff16565b7fbfec83d64eaa953f2708271a023ab9ee82057f8f3578d548c1a4ba0b5b7004898282604051808373ffffffffffffffffffffffffffffffffffffffff1673ffffffffffffffffffffffffffffffffffffffff16815260200180602001828103825283818151815260200191508051906020019080838360005b838110156120f25780820151818401526020810190506120d7565b50505050905090810190601f16801561211f5780820380516001836020036101000a031916815260200191505b50935050505060405180910390a15050565b6000600c54905081600c81905550427feee2990117e261ad836c99206b5a81160bd3ea73bdf8b128b1ead5143906649a82600c54604051808381526020018281526020019250505060405180910390a25050565b600454421015801561219957506005544211155b15156121a457600080fd5b6121ae8282612559565b5050565b60008282111515156121c057fe5b818303905092915050565b6000600660008473ffffffffffffffffffffffffffffffffffffffff1673ffffffffffffffffffffffffffffffffffffffff16815260200190815260200160002054141561227a5760078290806001815401808255809150509060018203906000526020600020016000909192909190916101000a81548173ffffffffffffffffffffffffffffffffffffffff021916908373ffffffffffffffffffffffffffffffffffffffff160217905550505b6122cc81600660008573ffffffffffffffffffffffffffffffffffffffff1673ffffffffffffffffffffffffffffffffffffffff1681526020019081526020016000205461169490919063ffffffff16565b600660008473ffffffffffffffffffffffffffffffffffffffff1673ffffffffffffffffffffffffffffffffffffffff168152602001908152602001600020819055505050565b5050565b60008260ff16118015612337575061232d610f8b565b60ff168260ff1611155b151561234257600080fd5b61236e81600e60008560ff1660ff1681526020019081526020016000205461169490919063ffffffff16565b600e60008460ff1660ff168152602001908152602001600020819055505050565b6000809054906101000a900473ffffffffffffffffffffffffffffffffffffffff1673ffffffffffffffffffffffffffffffffffffffff166340c10f1983836040518363ffffffff167c0100000000000000000000000000000000000000000000000000000000028152600401808373ffffffffffffffffffffffffffffffffffffffff1673ffffffffffffffffffffffffffffffffffffffff16815260200182815260200192505050602060405180830381600087803b15801561245357600080fd5b505af1158015612467573d6000803e3d6000fd5b505050506040513d602081101561247d57600080fd5b8101908080519060200190929190505050151561249957600080fd5b5050565b60008260000160008373ffffffffffffffffffffffffffffffffffffffff1673ffffffffffffffffffffffffffffffffffffffff16815260200190815260200160002060006101000a81548160ff0219169083151502179055505050565b60018260000160008373ffffffffffffffffffffffffffffffffffffffff1673ffffffffffffffffffffffffffffffffffffffff16815260200190815260200160002060006101000a81548160ff0219169083151502179055505050565b600073ffffffffffffffffffffffffffffffffffffffff168273ffffffffffffffffffffffffffffffffffffffff161415151561259557600080fd5b600081141515156125a557600080fd5b50505600a165627a7a7230582083bc4e70d7d234927c9a9b554b06f09260aa65293b877ad025d90150e05e38c30029",
  "source": "pragma solidity 0.4.24;\r\n\r\nimport \"./CWTPToken.sol\";\r\nimport \"./SteppedRateCrowdsale.sol\";\r\nimport \"./SteppedCapCrowdsale.sol\";\r\nimport \"./PostDeliveryCrowdsale.sol\";\r\nimport \"openzeppelin-solidity/contracts/crowdsale/emission/MintedCrowdsale.sol\";\r\nimport \"openzeppelin-solidity/contracts/ownership/rbac/RBACWithAdmin.sol\";\r\n\r\ncontract CWTPTokenSale is PostDeliveryCrowdsale, MintedCrowdsale, RBACWithAdmin, SteppedRateCrowdsale, SteppedCapCrowdsale {\r\n\r\n  string public constant ROLE_DAPP = \"dapp\";\r\n  string public constant ROLE_SRV = \"service\";\r\n\r\n  mapping (address => uint256) public deposited;\r\n  event Refunded(address indexed beneficiary, uint256 weiAmount);\r\n  uint256 private _totalRefundDeposit;\r\n\r\n  constructor(uint256 _startTime, uint256 _endTime, uint256 _cap, uint256 _minAmount, uint256 _rate, address _wallet, ERC20 _tokenAddress) public\r\n    TimedCrowdsale(_startTime, _endTime)\r\n    SteppedCapCrowdsale(_cap, _minAmount)\r\n    Crowdsale(_rate, _wallet, _tokenAddress)\r\n  {\r\n    require(Ownable(_tokenAddress) != address(0));\r\n    addRole(msg.sender, ROLE_DAPP);\r\n    addRole(msg.sender, ROLE_SRV);\r\n    //addRole(address(0x000000000000000000000), ROLE_DAPP);\r\n  }\r\n\r\n  function addCrowdsaleStep(uint256 _timestamp, uint256 _cap, uint256 _rate) onlyRole(ROLE_DAPP) public{\r\n    uint8 step = _addStep(_timestamp);\r\n    _setStepCap(step, _cap);\r\n    _setStepRate(step, _rate);\r\n  }\r\n\r\n  function setEthUsdRate(uint256 usdRate) onlyRole(ROLE_SRV) public{\r\n    _setEthUsdRate(usdRate);\r\n  }\r\n\r\n  function getPriceForTokens(uint256 amount) public view returns(uint256) {\r\n    return amount.mul(getCurrentRate()).div(getEthUsdRate());\r\n  }\r\n\r\n  function transferTokenOwnership() onlyAdmin public\r\n  {\r\n    // solium-disable-next-line security/no-block-members\r\n    require(closingTime < block.timestamp);\r\n    Ownable(token).transferOwnership(msg.sender);\r\n  }\r\n\r\n  function _processPurchase(address _beneficiary, uint256 _tokenAmount) internal {\r\n    uint256 dep = (_tokenAmount % 1 ether);\r\n    uint256 currentRate = getCurrentRate();\r\n    uint256 refund = dep.mul(currentRate).div(getEthUsdRate());\r\n    deposited[msg.sender] = deposited[msg.sender].add(refund);\r\n    _totalRefundDeposit = _totalRefundDeposit.add(refund);\r\n    super._processPurchase(_beneficiary, _tokenAmount.sub(dep));\r\n  }\r\n\r\n  function _forwardFunds() internal {\r\n    uint256 funds = msg.value;\r\n    if (address(this).balance.sub(funds) < _totalRefundDeposit)\r\n    {\r\n      funds = funds.sub(_totalRefundDeposit.sub(address(this).balance.sub(funds)));\r\n    }\r\n    wallet.transfer(funds);\r\n  }\r\n\r\n  function refund(address investor) public {\r\n    require(deposited[investor] > 0);\r\n    uint256 depositedValue = deposited[investor];\r\n    deposited[investor] = 0;\r\n    investor.transfer(depositedValue);\r\n    emit Refunded(investor, depositedValue);\r\n  }\r\n\r\n  function CloseContract() onlyAdmin public {\r\n    require(hasClosed());\r\n    _withdrawTokens();\r\n    if(Ownable(token).owner() == address(this))\r\n      transferTokenOwnership();\r\n    selfdestruct(msg.sender);\r\n  }\r\n}\r\n",
  "sourcePath": "c:\\Users\\maxwell\\Documents\\GitHub\\cryptoworkplace.io\\res\\Etherium\\CWP\\contracts\\CWTPTokenSale.sol",
  "compiler": {
    "name": "solc",
    "version": "0.4.24+commit.e67f0147.Emscripten.clang"
  },
  "schemaVersion": "2.0.0",
  "updatedAt": "2018-06-03T18:24:20.828Z"
}