{
  "contractName": "CWPPTokenSale",
  "abi": [
    {
      "constant": true,
      "inputs": [],
      "name": "rate",
      "outputs": [
        {
          "name": "",
          "type": "uint256"
        }
      ],
      "payable": false,
      "stateMutability": "view",
      "type": "function"
    },
    {
      "constant": true,
      "inputs": [],
      "name": "endTime",
      "outputs": [
        {
          "name": "",
          "type": "uint256"
        }
      ],
      "payable": false,
      "stateMutability": "view",
      "type": "function"
    },
    {
      "constant": false,
      "inputs": [
        {
          "name": "_value",
          "type": "uint256"
        }
      ],
      "name": "setRate",
      "outputs": [],
      "payable": false,
      "stateMutability": "nonpayable",
      "type": "function"
    },
    {
      "constant": true,
      "inputs": [],
      "name": "cap",
      "outputs": [
        {
          "name": "",
          "type": "uint256"
        }
      ],
      "payable": false,
      "stateMutability": "view",
      "type": "function"
    },
    {
      "constant": true,
      "inputs": [],
      "name": "weiRaised",
      "outputs": [
        {
          "name": "",
          "type": "uint256"
        }
      ],
      "payable": false,
      "stateMutability": "view",
      "type": "function"
    },
    {
      "constant": false,
      "inputs": [
        {
          "name": "beneficiary",
          "type": "address"
        },
        {
          "name": "tokens",
          "type": "uint256"
        }
      ],
      "name": "mint",
      "outputs": [],
      "payable": false,
      "stateMutability": "nonpayable",
      "type": "function"
    },
    {
      "constant": false,
      "inputs": [],
      "name": "getBackMyTokenPlz",
      "outputs": [],
      "payable": false,
      "stateMutability": "nonpayable",
      "type": "function"
    },
    {
      "constant": true,
      "inputs": [],
      "name": "wallet",
      "outputs": [
        {
          "name": "",
          "type": "address"
        }
      ],
      "payable": false,
      "stateMutability": "view",
      "type": "function"
    },
    {
      "constant": true,
      "inputs": [],
      "name": "startTime",
      "outputs": [
        {
          "name": "",
          "type": "uint256"
        }
      ],
      "payable": false,
      "stateMutability": "view",
      "type": "function"
    },
    {
      "constant": true,
      "inputs": [],
      "name": "owner",
      "outputs": [
        {
          "name": "",
          "type": "address"
        }
      ],
      "payable": false,
      "stateMutability": "view",
      "type": "function"
    },
    {
      "constant": false,
      "inputs": [
        {
          "name": "beneficiary",
          "type": "address"
        }
      ],
      "name": "buyTokens",
      "outputs": [],
      "payable": true,
      "stateMutability": "payable",
      "type": "function"
    },
    {
      "constant": true,
      "inputs": [],
      "name": "hasEnded",
      "outputs": [
        {
          "name": "",
          "type": "bool"
        }
      ],
      "payable": false,
      "stateMutability": "view",
      "type": "function"
    },
    {
      "constant": false,
      "inputs": [
        {
          "name": "newOwner",
          "type": "address"
        }
      ],
      "name": "transferOwnership",
      "outputs": [],
      "payable": false,
      "stateMutability": "nonpayable",
      "type": "function"
    },
    {
      "constant": true,
      "inputs": [],
      "name": "token",
      "outputs": [
        {
          "name": "",
          "type": "address"
        }
      ],
      "payable": false,
      "stateMutability": "view",
      "type": "function"
    },
    {
      "inputs": [
        {
          "name": "_startTime",
          "type": "uint256"
        },
        {
          "name": "_endTime",
          "type": "uint256"
        },
        {
          "name": "_wallet",
          "type": "address"
        },
        {
          "name": "_tokenAddress",
          "type": "address"
        }
      ],
      "payable": false,
      "stateMutability": "nonpayable",
      "type": "constructor"
    },
    {
      "payable": true,
      "stateMutability": "payable",
      "type": "fallback"
    },
    {
      "anonymous": false,
      "inputs": [
        {
          "indexed": true,
          "name": "previousOwner",
          "type": "address"
        },
        {
          "indexed": true,
          "name": "newOwner",
          "type": "address"
        }
      ],
      "name": "OwnershipTransferred",
      "type": "event"
    },
    {
      "anonymous": false,
      "inputs": [
        {
          "indexed": true,
          "name": "purchaser",
          "type": "address"
        },
        {
          "indexed": true,
          "name": "beneficiary",
          "type": "address"
        },
        {
          "indexed": false,
          "name": "value",
          "type": "uint256"
        },
        {
          "indexed": false,
          "name": "amount",
          "type": "uint256"
        }
      ],
      "name": "TokenPurchase",
      "type": "event"
    }
  ],
  "bytecode": "0x6060604052341561000f57600080fd5b604051608080610eda8339810160405280805190602001909190805190602001909190805190602001909190805190602001909190505068493ce42e1860bc000084846103e88585600073ffffffffffffffffffffffffffffffffffffffff168173ffffffffffffffffffffffffffffffffffffffff161415151561009357600080fd5b806000806101000a81548173ffffffffffffffffffffffffffffffffffffffff021916908373ffffffffffffffffffffffffffffffffffffffff160217905550504284101515156100e357600080fd5b8383101515156100f257600080fd5b60008211151561010157600080fd5b600073ffffffffffffffffffffffffffffffffffffffff168173ffffffffffffffffffffffffffffffffffffffff161415151561013d57600080fd5b61015861025364010000000002610bfa176401000000009004565b600160006101000a81548173ffffffffffffffffffffffffffffffffffffffff021916908373ffffffffffffffffffffffffffffffffffffffff16021790555083600281905550826003819055508160058190555080600460006101000a81548173ffffffffffffffffffffffffffffffffffffffff021916908373ffffffffffffffffffffffffffffffffffffffff1602179055505050505060008111151561020157600080fd5b806007819055505033600860006101000a81548173ffffffffffffffffffffffffffffffffffffffff021916908373ffffffffffffffffffffffffffffffffffffffff1602179055505050505061027c565b60008060009054906101000a900473ffffffffffffffffffffffffffffffffffffffff16905090565b610c4f8061028b6000396000f3006060604052600436106100d0576000357c0100000000000000000000000000000000000000000000000000000000900463ffffffff1680632c4e722e146100db5780633197cbb61461010457806334fcf4371461012d578063355274ea146101505780634042b66f1461017957806340c10f19146101a25780634e0233be146101e4578063521eb273146101f957806378e979251461024e5780638da5cb5b14610277578063ec8ac4d8146102cc578063ecb70fb7146102fa578063f2fde38b14610327578063fc0c546a14610360575b6100d9336103b5565b005b34156100e657600080fd5b6100ee61059f565b6040518082815260200191505060405180910390f35b341561010f57600080fd5b6101176105a5565b6040518082815260200191505060405180910390f35b341561013857600080fd5b61014e60048080359060200190919050506105ab565b005b341561015b57600080fd5b610163610620565b6040518082815260200191505060405180910390f35b341561018457600080fd5b61018c610626565b6040518082815260200191505060405180910390f35b34156101ad57600080fd5b6101e2600480803573ffffffffffffffffffffffffffffffffffffffff1690602001909190803590602001909190505061062c565b005b34156101ef57600080fd5b6101f7610775565b005b341561020457600080fd5b61020c6108d5565b604051808273ffffffffffffffffffffffffffffffffffffffff1673ffffffffffffffffffffffffffffffffffffffff16815260200191505060405180910390f35b341561025957600080fd5b6102616108fb565b6040518082815260200191505060405180910390f35b341561028257600080fd5b61028a610901565b604051808273ffffffffffffffffffffffffffffffffffffffff1673ffffffffffffffffffffffffffffffffffffffff16815260200191505060405180910390f35b6102f8600480803573ffffffffffffffffffffffffffffffffffffffff169060200190919050506103b5565b005b341561030557600080fd5b61030d610927565b604051808215151515815260200191505060405180910390f35b341561033257600080fd5b61035e600480803573ffffffffffffffffffffffffffffffffffffffff1690602001909190505061094a565b005b341561036b57600080fd5b610373610aa2565b604051808273ffffffffffffffffffffffffffffffffffffffff1673ffffffffffffffffffffffffffffffffffffffff16815260200191505060405180910390f35b600080600073ffffffffffffffffffffffffffffffffffffffff168373ffffffffffffffffffffffffffffffffffffffff16141515156103f457600080fd5b6103fc610ac8565b151561040757600080fd5b34915061041f60055483610afe90919063ffffffff16565b905061043682600654610b3990919063ffffffff16565b600681905550600160009054906101000a900473ffffffffffffffffffffffffffffffffffffffff1673ffffffffffffffffffffffffffffffffffffffff166340c10f1984836000604051602001526040518363ffffffff167c0100000000000000000000000000000000000000000000000000000000028152600401808373ffffffffffffffffffffffffffffffffffffffff1673ffffffffffffffffffffffffffffffffffffffff16815260200182815260200192505050602060405180830381600087803b151561050957600080fd5b6102c65a03f1151561051a57600080fd5b50505060405180519050508273ffffffffffffffffffffffffffffffffffffffff163373ffffffffffffffffffffffffffffffffffffffff167f623b3804fa71d67900d064613da8f94b9617215ee90799290593e1745087ad188484604051808381526020018281526020019250505060405180910390a361059a610b57565b505050565b60055481565b60035481565b600860009054906101000a900473ffffffffffffffffffffffffffffffffffffffff1673ffffffffffffffffffffffffffffffffffffffff163373ffffffffffffffffffffffffffffffffffffffff1614151561060757600080fd5b60008111151561061657600080fd5b8060058190555050565b60075481565b60065481565b600860009054906101000a900473ffffffffffffffffffffffffffffffffffffffff1673ffffffffffffffffffffffffffffffffffffffff163373ffffffffffffffffffffffffffffffffffffffff1614151561068857600080fd5b600160009054906101000a900473ffffffffffffffffffffffffffffffffffffffff1673ffffffffffffffffffffffffffffffffffffffff166340c10f1983836000604051602001526040518363ffffffff167c0100000000000000000000000000000000000000000000000000000000028152600401808373ffffffffffffffffffffffffffffffffffffffff1673ffffffffffffffffffffffffffffffffffffffff16815260200182815260200192505050602060405180830381600087803b151561075557600080fd5b6102c65a03f1151561076657600080fd5b50505060405180519050505050565b600860009054906101000a900473ffffffffffffffffffffffffffffffffffffffff1673ffffffffffffffffffffffffffffffffffffffff163373ffffffffffffffffffffffffffffffffffffffff161415156107d157600080fd5b426003541015156107e157600080fd5b600160009054906101000a900473ffffffffffffffffffffffffffffffffffffffff1673ffffffffffffffffffffffffffffffffffffffff1663f2fde38b600860009054906101000a900473ffffffffffffffffffffffffffffffffffffffff166040518263ffffffff167c0100000000000000000000000000000000000000000000000000000000028152600401808273ffffffffffffffffffffffffffffffffffffffff1673ffffffffffffffffffffffffffffffffffffffff168152602001915050600060405180830381600087803b15156108bf57600080fd5b6102c65a03f115156108d057600080fd5b505050565b600460009054906101000a900473ffffffffffffffffffffffffffffffffffffffff1681565b60025481565b600860009054906101000a900473ffffffffffffffffffffffffffffffffffffffff1681565b6000806007546006541015905061093c610bbb565b806109445750805b91505090565b600860009054906101000a900473ffffffffffffffffffffffffffffffffffffffff1673ffffffffffffffffffffffffffffffffffffffff163373ffffffffffffffffffffffffffffffffffffffff161415156109a657600080fd5b600073ffffffffffffffffffffffffffffffffffffffff168173ffffffffffffffffffffffffffffffffffffffff16141515156109e257600080fd5b8073ffffffffffffffffffffffffffffffffffffffff16600860009054906101000a900473ffffffffffffffffffffffffffffffffffffffff1673ffffffffffffffffffffffffffffffffffffffff167f8be0079c531659141344cd1fd0a4f28419497f9722a3daafe3b4186f6b6457e060405160405180910390a380600860006101000a81548173ffffffffffffffffffffffffffffffffffffffff021916908373ffffffffffffffffffffffffffffffffffffffff16021790555050565b600160009054906101000a900473ffffffffffffffffffffffffffffffffffffffff1681565b600080600754610ae334600654610b3990919063ffffffff16565b11159050610aef610bc7565b8015610af85750805b91505090565b6000806000841415610b135760009150610b32565b8284029050828482811515610b2457fe5b04141515610b2e57fe5b8091505b5092915050565b6000808284019050838110151515610b4d57fe5b8091505092915050565b600460009054906101000a900473ffffffffffffffffffffffffffffffffffffffff1673ffffffffffffffffffffffffffffffffffffffff166108fc349081150290604051600060405180830381858888f193505050501515610bb957600080fd5b565b60006003544211905090565b60008060006002544210158015610be057506003544211155b915060003414159050818015610bf35750805b9250505090565b60008060009054906101000a900473ffffffffffffffffffffffffffffffffffffffff169050905600a165627a7a72305820d4d37922b20974a8bf865b8a25866c8456213fb87e1ad82f54bba9a4a339aa020029",
  "source": "pragma solidity ^0.4.18;\r\n\r\nimport \"./CWTPToken.sol\";\r\nimport \"./TokenAddr.sol\";\r\nimport \"zeppelin-solidity/contracts/crowdsale/CappedCrowdsale.sol\";\r\nimport \"zeppelin-solidity/contracts/ownership/Ownable.sol\";\r\n\r\ncontract CWPPTokenSale is TokenAddr, CappedCrowdsale, Ownable {\r\n    /**\r\n   * CWPTokenSale - Contract for CryptoWorkPlace Token Sale\r\n   *\r\n   * @param _startTime UNIX Timestamp in seconds, when Token Sale start\r\n   * @param _endTime  Token Sale end time in seconds\r\n   * @param _wallet    Address of multisig wallet, using for refund if Token Sale failed\r\n   * @param  _tokenAddress  Address of Pre-sale CWPToken contract, deployed to blockchain\r\n   */\r\n  function CWPPTokenSale(uint256 _startTime, uint256 _endTime, address _wallet, address _tokenAddress) public\r\n    TokenAddr(_tokenAddress)\r\n    CappedCrowdsale(1351 * 1 ether)\r\n    Crowdsale(_startTime, _endTime, 1000, _wallet)\r\n  {\r\n  }\r\n\r\n  /*Use CWPToken for sale*/\r\n  function createTokenContract() internal returns (MintableToken) {\r\n    //return new MintableToken();\r\n    return CWTPToken(tokenAddress);\r\n  }\r\n\r\n  function setRate(uint256 _value) onlyOwner public\r\n  {\r\n    require(_value > 0);\r\n    rate = _value;\r\n  }\r\n\r\n  function mint(address beneficiary, uint256 tokens) onlyOwner public\r\n  {\r\n    token.mint(beneficiary, tokens);\r\n  }\r\n\r\n  function getBackMyTokenPlz() onlyOwner public\r\n  {\r\n    require(endTime < now);\r\n    token.transferOwnership(owner);\r\n  }\r\n}\r\n",
  "sourcePath": "C:\\Users\\mmasl\\source\\repos\\cryptoworkplace.io\\res\\Etherium\\CWP\\contracts\\CWPPTokenSale.sol",
  "compiler": {
    "name": "solc",
    "version": "0.4.18+commit.9cf6e910.Emscripten.clang"
  },
  "schemaVersion": "1.0.1",
  "updatedAt": "2018-02-23T20:56:55.251Z"
}