{
  "contractName": "CWPPTokenSale",
  "abi": [
    {
      "constant": true,
      "inputs": [],
      "name": "rate",
      "outputs": [
        {
          "name": "",
          "type": "uint256"
        }
      ],
      "payable": false,
      "stateMutability": "view",
      "type": "function"
    },
    {
      "constant": true,
      "inputs": [],
      "name": "endTime",
      "outputs": [
        {
          "name": "",
          "type": "uint256"
        }
      ],
      "payable": false,
      "stateMutability": "view",
      "type": "function"
    },
    {
      "constant": false,
      "inputs": [
        {
          "name": "_value",
          "type": "uint256"
        }
      ],
      "name": "setRate",
      "outputs": [],
      "payable": false,
      "stateMutability": "nonpayable",
      "type": "function"
    },
    {
      "constant": true,
      "inputs": [],
      "name": "cap",
      "outputs": [
        {
          "name": "",
          "type": "uint256"
        }
      ],
      "payable": false,
      "stateMutability": "view",
      "type": "function"
    },
    {
      "constant": true,
      "inputs": [],
      "name": "weiRaised",
      "outputs": [
        {
          "name": "",
          "type": "uint256"
        }
      ],
      "payable": false,
      "stateMutability": "view",
      "type": "function"
    },
    {
      "constant": true,
      "inputs": [],
      "name": "wallet",
      "outputs": [
        {
          "name": "",
          "type": "address"
        }
      ],
      "payable": false,
      "stateMutability": "view",
      "type": "function"
    },
    {
      "constant": true,
      "inputs": [],
      "name": "startTime",
      "outputs": [
        {
          "name": "",
          "type": "uint256"
        }
      ],
      "payable": false,
      "stateMutability": "view",
      "type": "function"
    },
    {
      "constant": true,
      "inputs": [],
      "name": "owner",
      "outputs": [
        {
          "name": "",
          "type": "address"
        }
      ],
      "payable": false,
      "stateMutability": "view",
      "type": "function"
    },
    {
      "constant": false,
      "inputs": [
        {
          "name": "beneficiary",
          "type": "address"
        }
      ],
      "name": "buyTokens",
      "outputs": [],
      "payable": true,
      "stateMutability": "payable",
      "type": "function"
    },
    {
      "constant": true,
      "inputs": [],
      "name": "hasEnded",
      "outputs": [
        {
          "name": "",
          "type": "bool"
        }
      ],
      "payable": false,
      "stateMutability": "view",
      "type": "function"
    },
    {
      "constant": false,
      "inputs": [
        {
          "name": "newOwner",
          "type": "address"
        }
      ],
      "name": "transferOwnership",
      "outputs": [],
      "payable": false,
      "stateMutability": "nonpayable",
      "type": "function"
    },
    {
      "constant": true,
      "inputs": [],
      "name": "token",
      "outputs": [
        {
          "name": "",
          "type": "address"
        }
      ],
      "payable": false,
      "stateMutability": "view",
      "type": "function"
    },
    {
      "inputs": [
        {
          "name": "_startTime",
          "type": "uint256"
        },
        {
          "name": "_duration",
          "type": "uint8"
        },
        {
          "name": "_wallet",
          "type": "address"
        },
        {
          "name": "_tokenAddress",
          "type": "address"
        }
      ],
      "payable": false,
      "stateMutability": "nonpayable",
      "type": "constructor"
    },
    {
      "payable": true,
      "stateMutability": "payable",
      "type": "fallback"
    },
    {
      "anonymous": false,
      "inputs": [
        {
          "indexed": true,
          "name": "previousOwner",
          "type": "address"
        },
        {
          "indexed": true,
          "name": "newOwner",
          "type": "address"
        }
      ],
      "name": "OwnershipTransferred",
      "type": "event"
    },
    {
      "anonymous": false,
      "inputs": [
        {
          "indexed": true,
          "name": "purchaser",
          "type": "address"
        },
        {
          "indexed": true,
          "name": "beneficiary",
          "type": "address"
        },
        {
          "indexed": false,
          "name": "value",
          "type": "uint256"
        },
        {
          "indexed": false,
          "name": "amount",
          "type": "uint256"
        }
      ],
      "name": "TokenPurchase",
      "type": "event"
    }
  ],
  "bytecode": "0x6060604052341561000f57600080fd5b604051608080610bd38339810160405280805190602001909190805190602001909190805190602001909190805190602001909190505068493ce42e1860bc000084620151808560ff160262ffffff1686016103e88585600073ffffffffffffffffffffffffffffffffffffffff168173ffffffffffffffffffffffffffffffffffffffff16141515156100a257600080fd5b806000806101000a81548173ffffffffffffffffffffffffffffffffffffffff021916908373ffffffffffffffffffffffffffffffffffffffff160217905550504284101515156100f257600080fd5b83831015151561010157600080fd5b60008211151561011057600080fd5b600073ffffffffffffffffffffffffffffffffffffffff168173ffffffffffffffffffffffffffffffffffffffff161415151561014c57600080fd5b610167610262640100000000026108e4176401000000009004565b600160006101000a81548173ffffffffffffffffffffffffffffffffffffffff021916908373ffffffffffffffffffffffffffffffffffffffff16021790555083600281905550826003819055508160058190555080600460006101000a81548173ffffffffffffffffffffffffffffffffffffffff021916908373ffffffffffffffffffffffffffffffffffffffff1602179055505050505060008111151561021057600080fd5b806007819055505033600860006101000a81548173ffffffffffffffffffffffffffffffffffffffff021916908373ffffffffffffffffffffffffffffffffffffffff1602179055505050505061028b565b60008060009054906101000a900473ffffffffffffffffffffffffffffffffffffffff16905090565b6109398061029a6000396000f3006060604052600436106100ba576000357c0100000000000000000000000000000000000000000000000000000000900463ffffffff1680632c4e722e146100c55780633197cbb6146100ee57806334fcf43714610117578063355274ea1461013a5780634042b66f14610163578063521eb2731461018c57806378e97925146101e15780638da5cb5b1461020a578063ec8ac4d81461025f578063ecb70fb71461028d578063f2fde38b146102ba578063fc0c546a146102f3575b6100c333610348565b005b34156100d057600080fd5b6100d8610532565b6040518082815260200191505060405180910390f35b34156100f957600080fd5b610101610538565b6040518082815260200191505060405180910390f35b341561012257600080fd5b610138600480803590602001909190505061053e565b005b341561014557600080fd5b61014d6105b3565b6040518082815260200191505060405180910390f35b341561016e57600080fd5b6101766105b9565b6040518082815260200191505060405180910390f35b341561019757600080fd5b61019f6105bf565b604051808273ffffffffffffffffffffffffffffffffffffffff1673ffffffffffffffffffffffffffffffffffffffff16815260200191505060405180910390f35b34156101ec57600080fd5b6101f46105e5565b6040518082815260200191505060405180910390f35b341561021557600080fd5b61021d6105eb565b604051808273ffffffffffffffffffffffffffffffffffffffff1673ffffffffffffffffffffffffffffffffffffffff16815260200191505060405180910390f35b61028b600480803573ffffffffffffffffffffffffffffffffffffffff16906020019091905050610348565b005b341561029857600080fd5b6102a0610611565b604051808215151515815260200191505060405180910390f35b34156102c557600080fd5b6102f1600480803573ffffffffffffffffffffffffffffffffffffffff16906020019091905050610634565b005b34156102fe57600080fd5b61030661078c565b604051808273ffffffffffffffffffffffffffffffffffffffff1673ffffffffffffffffffffffffffffffffffffffff16815260200191505060405180910390f35b600080600073ffffffffffffffffffffffffffffffffffffffff168373ffffffffffffffffffffffffffffffffffffffff161415151561038757600080fd5b61038f6107b2565b151561039a57600080fd5b3491506103b2600554836107e890919063ffffffff16565b90506103c98260065461082390919063ffffffff16565b600681905550600160009054906101000a900473ffffffffffffffffffffffffffffffffffffffff1673ffffffffffffffffffffffffffffffffffffffff166340c10f1984836000604051602001526040518363ffffffff167c0100000000000000000000000000000000000000000000000000000000028152600401808373ffffffffffffffffffffffffffffffffffffffff1673ffffffffffffffffffffffffffffffffffffffff16815260200182815260200192505050602060405180830381600087803b151561049c57600080fd5b6102c65a03f115156104ad57600080fd5b50505060405180519050508273ffffffffffffffffffffffffffffffffffffffff163373ffffffffffffffffffffffffffffffffffffffff167f623b3804fa71d67900d064613da8f94b9617215ee90799290593e1745087ad188484604051808381526020018281526020019250505060405180910390a361052d610841565b505050565b60055481565b60035481565b600860009054906101000a900473ffffffffffffffffffffffffffffffffffffffff1673ffffffffffffffffffffffffffffffffffffffff163373ffffffffffffffffffffffffffffffffffffffff1614151561059a57600080fd5b6000811115156105a957600080fd5b8060058190555050565b60075481565b60065481565b600460009054906101000a900473ffffffffffffffffffffffffffffffffffffffff1681565b60025481565b600860009054906101000a900473ffffffffffffffffffffffffffffffffffffffff1681565b600080600754600654101590506106266108a5565b8061062e5750805b91505090565b600860009054906101000a900473ffffffffffffffffffffffffffffffffffffffff1673ffffffffffffffffffffffffffffffffffffffff163373ffffffffffffffffffffffffffffffffffffffff1614151561069057600080fd5b600073ffffffffffffffffffffffffffffffffffffffff168173ffffffffffffffffffffffffffffffffffffffff16141515156106cc57600080fd5b8073ffffffffffffffffffffffffffffffffffffffff16600860009054906101000a900473ffffffffffffffffffffffffffffffffffffffff1673ffffffffffffffffffffffffffffffffffffffff167f8be0079c531659141344cd1fd0a4f28419497f9722a3daafe3b4186f6b6457e060405160405180910390a380600860006101000a81548173ffffffffffffffffffffffffffffffffffffffff021916908373ffffffffffffffffffffffffffffffffffffffff16021790555050565b600160009054906101000a900473ffffffffffffffffffffffffffffffffffffffff1681565b6000806007546107cd3460065461082390919063ffffffff16565b111590506107d96108b1565b80156107e25750805b91505090565b60008060008414156107fd576000915061081c565b828402905082848281151561080e57fe5b0414151561081857fe5b8091505b5092915050565b600080828401905083811015151561083757fe5b8091505092915050565b600460009054906101000a900473ffffffffffffffffffffffffffffffffffffffff1673ffffffffffffffffffffffffffffffffffffffff166108fc349081150290604051600060405180830381858888f1935050505015156108a357600080fd5b565b60006003544211905090565b600080600060025442101580156108ca57506003544211155b9150600034141590508180156108dd5750805b9250505090565b60008060009054906101000a900473ffffffffffffffffffffffffffffffffffffffff169050905600a165627a7a72305820c6de5ec20988f054e5701e259c20659275072c7b721f339842ce3b5cb5547c870029",
  "source": "pragma solidity ^0.4.18;\r\n\r\nimport \"./CWTPToken.sol\";\r\nimport \"./TokenAddr.sol\";\r\nimport \"zeppelin-solidity/contracts/crowdsale/CappedCrowdsale.sol\";\r\nimport \"zeppelin-solidity/contracts/ownership/Ownable.sol\";\r\n\r\ncontract CWPPTokenSale is TokenAddr, CappedCrowdsale, Ownable {\r\n    /**\r\n   * CWPTokenSale - Contract for CryptoWorkPlace Token Sale\r\n   *\r\n   * @param _startTime UNIX Timestamp in seconds, when Token Sale start\r\n   * @param _duration  Token Sale duration in days\r\n   * @param _wallet    Address of multisig wallet, using for refund if Token Sale failed\r\n   * @param  _tokenAddress  Address of Pre-sale CWPToken contract, deployed to blockchain\r\n   */\r\n  function CWPPTokenSale(uint256 _startTime, uint8 _duration, address _wallet, address _tokenAddress) public\r\n    TokenAddr(_tokenAddress)\r\n    CappedCrowdsale(1351 * 1 ether)\r\n    Crowdsale(_startTime, _startTime + _duration * 1 days, 1000, _wallet)\r\n  {\r\n  }\r\n\r\n  /*Use CWPToken for sale*/\r\n  function createTokenContract() internal returns (MintableToken) {\r\n    //return new MintableToken();\r\n    return CWTPToken(tokenAddress);\r\n  }\r\n\r\n  function setRate(uint256 _value) onlyOwner public\r\n  {\r\n    require(_value > 0);\r\n    rate = _value;\r\n  }\r\n}\r\n",
  "sourcePath": "C:\\Users\\mmaslich.CISLINK\\Source\\Repos\\cryptoworkplace.io\\res\\Etherium\\CWP\\contracts\\CWPPTokenSale.sol",
  "compiler": {
    "name": "solc",
    "version": "0.4.18+commit.9cf6e910.Emscripten.clang"
  },
  "schemaVersion": "1.0.1",
  "updatedAt": "2018-02-22T13:23:52.650Z"
}