{
  "contractName": "CWPTokenSale",
  "abi": [
    {
      "constant": true,
      "inputs": [],
      "name": "REFUND_CAP",
      "outputs": [
        {
          "name": "",
          "type": "uint256"
        }
      ],
      "payable": false,
      "stateMutability": "view",
      "type": "function"
    },
    {
      "constant": true,
      "inputs": [],
      "name": "rate",
      "outputs": [
        {
          "name": "",
          "type": "uint256"
        }
      ],
      "payable": false,
      "stateMutability": "view",
      "type": "function"
    },
    {
      "constant": true,
      "inputs": [],
      "name": "RATE25",
      "outputs": [
        {
          "name": "",
          "type": "uint8"
        }
      ],
      "payable": false,
      "stateMutability": "view",
      "type": "function"
    },
    {
      "constant": true,
      "inputs": [],
      "name": "endTime",
      "outputs": [
        {
          "name": "",
          "type": "uint256"
        }
      ],
      "payable": false,
      "stateMutability": "view",
      "type": "function"
    },
    {
      "constant": true,
      "inputs": [],
      "name": "cap",
      "outputs": [
        {
          "name": "",
          "type": "uint256"
        }
      ],
      "payable": false,
      "stateMutability": "view",
      "type": "function"
    },
    {
      "constant": true,
      "inputs": [],
      "name": "CAP50",
      "outputs": [
        {
          "name": "",
          "type": "uint256"
        }
      ],
      "payable": false,
      "stateMutability": "view",
      "type": "function"
    },
    {
      "constant": true,
      "inputs": [],
      "name": "goal",
      "outputs": [
        {
          "name": "",
          "type": "uint256"
        }
      ],
      "payable": false,
      "stateMutability": "view",
      "type": "function"
    },
    {
      "constant": true,
      "inputs": [],
      "name": "weiRaised",
      "outputs": [
        {
          "name": "",
          "type": "uint256"
        }
      ],
      "payable": false,
      "stateMutability": "view",
      "type": "function"
    },
    {
      "constant": false,
      "inputs": [],
      "name": "finalize",
      "outputs": [],
      "payable": false,
      "stateMutability": "nonpayable",
      "type": "function"
    },
    {
      "constant": true,
      "inputs": [],
      "name": "wallet",
      "outputs": [
        {
          "name": "",
          "type": "address"
        }
      ],
      "payable": false,
      "stateMutability": "view",
      "type": "function"
    },
    {
      "constant": true,
      "inputs": [],
      "name": "RATE50",
      "outputs": [
        {
          "name": "",
          "type": "uint8"
        }
      ],
      "payable": false,
      "stateMutability": "view",
      "type": "function"
    },
    {
      "constant": true,
      "inputs": [],
      "name": "startTime",
      "outputs": [
        {
          "name": "",
          "type": "uint256"
        }
      ],
      "payable": false,
      "stateMutability": "view",
      "type": "function"
    },
    {
      "constant": true,
      "inputs": [],
      "name": "goalReached",
      "outputs": [
        {
          "name": "",
          "type": "bool"
        }
      ],
      "payable": false,
      "stateMutability": "view",
      "type": "function"
    },
    {
      "constant": true,
      "inputs": [],
      "name": "CAP25",
      "outputs": [
        {
          "name": "",
          "type": "uint256"
        }
      ],
      "payable": false,
      "stateMutability": "view",
      "type": "function"
    },
    {
      "constant": true,
      "inputs": [],
      "name": "isFinalized",
      "outputs": [
        {
          "name": "",
          "type": "bool"
        }
      ],
      "payable": false,
      "stateMutability": "view",
      "type": "function"
    },
    {
      "constant": true,
      "inputs": [],
      "name": "owner",
      "outputs": [
        {
          "name": "",
          "type": "address"
        }
      ],
      "payable": false,
      "stateMutability": "view",
      "type": "function"
    },
    {
      "constant": true,
      "inputs": [],
      "name": "RATE0",
      "outputs": [
        {
          "name": "",
          "type": "uint8"
        }
      ],
      "payable": false,
      "stateMutability": "view",
      "type": "function"
    },
    {
      "constant": false,
      "inputs": [],
      "name": "claimRefund",
      "outputs": [],
      "payable": false,
      "stateMutability": "nonpayable",
      "type": "function"
    },
    {
      "constant": true,
      "inputs": [],
      "name": "CAP0",
      "outputs": [
        {
          "name": "",
          "type": "uint256"
        }
      ],
      "payable": false,
      "stateMutability": "view",
      "type": "function"
    },
    {
      "constant": false,
      "inputs": [
        {
          "name": "beneficiary",
          "type": "address"
        }
      ],
      "name": "buyTokens",
      "outputs": [],
      "payable": true,
      "stateMutability": "payable",
      "type": "function"
    },
    {
      "constant": true,
      "inputs": [],
      "name": "hasEnded",
      "outputs": [
        {
          "name": "",
          "type": "bool"
        }
      ],
      "payable": false,
      "stateMutability": "view",
      "type": "function"
    },
    {
      "constant": false,
      "inputs": [
        {
          "name": "newOwner",
          "type": "address"
        }
      ],
      "name": "transferOwnership",
      "outputs": [],
      "payable": false,
      "stateMutability": "nonpayable",
      "type": "function"
    },
    {
      "constant": true,
      "inputs": [],
      "name": "vault",
      "outputs": [
        {
          "name": "",
          "type": "address"
        }
      ],
      "payable": false,
      "stateMutability": "view",
      "type": "function"
    },
    {
      "constant": true,
      "inputs": [],
      "name": "token",
      "outputs": [
        {
          "name": "",
          "type": "address"
        }
      ],
      "payable": false,
      "stateMutability": "view",
      "type": "function"
    },
    {
      "inputs": [
        {
          "name": "_token",
          "type": "address"
        },
        {
          "name": "_startTime",
          "type": "uint256"
        },
        {
          "name": "_duration",
          "type": "uint8"
        },
        {
          "name": "_wallet",
          "type": "address"
        }
      ],
      "payable": false,
      "stateMutability": "nonpayable",
      "type": "constructor"
    },
    {
      "payable": true,
      "stateMutability": "payable",
      "type": "fallback"
    },
    {
      "anonymous": false,
      "inputs": [],
      "name": "Finalized",
      "type": "event"
    },
    {
      "anonymous": false,
      "inputs": [
        {
          "indexed": true,
          "name": "previousOwner",
          "type": "address"
        },
        {
          "indexed": true,
          "name": "newOwner",
          "type": "address"
        }
      ],
      "name": "OwnershipTransferred",
      "type": "event"
    },
    {
      "anonymous": false,
      "inputs": [
        {
          "indexed": true,
          "name": "purchaser",
          "type": "address"
        },
        {
          "indexed": true,
          "name": "beneficiary",
          "type": "address"
        },
        {
          "indexed": false,
          "name": "value",
          "type": "uint256"
        },
        {
          "indexed": false,
          "name": "amount",
          "type": "uint256"
        }
      ],
      "name": "TokenPurchase",
      "type": "event"
    }
  ],
  "bytecode": "0x60606040526000600760146101000a81548160ff02191690831515021790555034156200002b57600080fd5b60405160808062001e828339810160405280805190602001909190805190602001909190805190602001909190805190602001909190505068d8d726b7177a800000690a968163f0a57b4000006903b4ad496106b7f0000069010f0cf064dd59200000010184620151808560ff160262ffffff168601600660ff1685428410151515620000b757600080fd5b838310151515620000c757600080fd5b600082111515620000d757600080fd5b600073ffffffffffffffffffffffffffffffffffffffff168173ffffffffffffffffffffffffffffffffffffffff16141515156200011457600080fd5b620001326200037e6401000000000262000fec176401000000009004565b6000806101000a81548173ffffffffffffffffffffffffffffffffffffffff021916908373ffffffffffffffffffffffffffffffffffffffff16021790555083600181905550826002819055508160048190555080600360006101000a81548173ffffffffffffffffffffffffffffffffffffffff021916908373ffffffffffffffffffffffffffffffffffffffff16021790555050505050600081111515620001db57600080fd5b806006819055505033600760006101000a81548173ffffffffffffffffffffffffffffffffffffffff021916908373ffffffffffffffffffffffffffffffffffffffff1602179055506000811115156200023457600080fd5b600360009054906101000a900473ffffffffffffffffffffffffffffffffffffffff1662000261620003a8565b808273ffffffffffffffffffffffffffffffffffffffff1673ffffffffffffffffffffffffffffffffffffffff168152602001915050604051809103906000f0801515620002ae57600080fd5b600960006101000a81548173ffffffffffffffffffffffffffffffffffffffff021916908373ffffffffffffffffffffffffffffffffffffffff1602179055508060088190555050600073ffffffffffffffffffffffffffffffffffffffff168473ffffffffffffffffffffffffffffffffffffffff16141515156200033357600080fd5b83600a60006101000a81548173ffffffffffffffffffffffffffffffffffffffff021916908373ffffffffffffffffffffffffffffffffffffffff16021790555050505050620003b9565b6000600a60009054906101000a900473ffffffffffffffffffffffffffffffffffffffff16905090565b604051610a77806200140b83390190565b61104280620003c96000396000f30060606040526004361061013e576000357c0100000000000000000000000000000000000000000000000000000000900463ffffffff16806319c3dce4146101495780632c4e722e146101725780632eeb660a1461019b5780633197cbb6146101ca578063355274ea146101f3578063388c01641461021c57806340193883146102455780634042b66f1461026e5780634bb278f314610297578063521eb273146102ac578063586e25c41461030157806378e97925146103305780637d3d652214610359578063817711da146103865780638d4e4083146103af5780638da5cb5b146103dc578063982f15b214610431578063b5545a3c14610460578063d7da37be14610475578063ec8ac4d81461049e578063ecb70fb7146104cc578063f2fde38b146104f9578063fbfa77cf14610532578063fc0c546a14610587575b610147336105dc565b005b341561015457600080fd5b61015c610671565b6040518082815260200191505060405180910390f35b341561017d57600080fd5b61018561067e565b6040518082815260200191505060405180910390f35b34156101a657600080fd5b6101ae610684565b604051808260ff1660ff16815260200191505060405180910390f35b34156101d557600080fd5b6101dd610689565b6040518082815260200191505060405180910390f35b34156101fe57600080fd5b61020661068f565b6040518082815260200191505060405180910390f35b341561022757600080fd5b61022f610695565b6040518082815260200191505060405180910390f35b341561025057600080fd5b6102586106a3565b6040518082815260200191505060405180910390f35b341561027957600080fd5b6102816106a9565b6040518082815260200191505060405180910390f35b34156102a257600080fd5b6102aa6106af565b005b34156102b757600080fd5b6102bf61078b565b604051808273ffffffffffffffffffffffffffffffffffffffff1673ffffffffffffffffffffffffffffffffffffffff16815260200191505060405180910390f35b341561030c57600080fd5b6103146107b1565b604051808260ff1660ff16815260200191505060405180910390f35b341561033b57600080fd5b6103436107b6565b6040518082815260200191505060405180910390f35b341561036457600080fd5b61036c6107bc565b604051808215151515815260200191505060405180910390f35b341561039157600080fd5b6103996107cb565b6040518082815260200191505060405180910390f35b34156103ba57600080fd5b6103c26107e5565b604051808215151515815260200191505060405180910390f35b34156103e757600080fd5b6103ef6107f8565b604051808273ffffffffffffffffffffffffffffffffffffffff1673ffffffffffffffffffffffffffffffffffffffff16815260200191505060405180910390f35b341561043c57600080fd5b61044461081e565b604051808260ff1660ff16815260200191505060405180910390f35b341561046b57600080fd5b610473610823565b005b341561048057600080fd5b610488610924565b6040518082815260200191505060405180910390f35b6104ca600480803573ffffffffffffffffffffffffffffffffffffffff169060200190919050506105dc565b005b34156104d757600080fd5b6104df61094a565b604051808215151515815260200191505060405180910390f35b341561050457600080fd5b610530600480803573ffffffffffffffffffffffffffffffffffffffff1690602001909190505061096d565b005b341561053d57600080fd5b610545610ac5565b604051808273ffffffffffffffffffffffffffffffffffffffff1673ffffffffffffffffffffffffffffffffffffffff16815260200191505060405180910390f35b341561059257600080fd5b61059a610aeb565b604051808273ffffffffffffffffffffffffffffffffffffffff1673ffffffffffffffffffffffffffffffffffffffff16815260200191505060405180910390f35b600660ff166004541480156106075750670de0b6b3a764000069010f0cf064dd592000000260055410155b1561061c57600460ff16600481905550610665565b600460ff166004541480156106535750670de0b6b3a76400006903b4ad496106b7f0000069010f0cf064dd59200000010260055410155b1561066457600360ff166004819055505b5b61066e81610b11565b50565b68d8d726b7177a80000081565b60045481565b600481565b60025481565b60065481565b69010f0cf064dd5920000081565b60085481565b60055481565b600760009054906101000a900473ffffffffffffffffffffffffffffffffffffffff1673ffffffffffffffffffffffffffffffffffffffff163373ffffffffffffffffffffffffffffffffffffffff1614151561070b57600080fd5b600760149054906101000a900460ff1615151561072757600080fd5b61072f61094a565b151561073a57600080fd5b610742610cfa565b7f6823b073d48d6e3a7d385eeb601452d680e74bb46afe3255a7d778f3a9b1768160405160405180910390a16001600760146101000a81548160ff021916908315150217905550565b600360009054906101000a900473ffffffffffffffffffffffffffffffffffffffff1681565b600681565b60015481565b60006008546005541015905090565b6903b4ad496106b7f0000069010f0cf064dd592000000181565b600760149054906101000a900460ff1681565b600760009054906101000a900473ffffffffffffffffffffffffffffffffffffffff1681565b600381565b600760149054906101000a900460ff16151561083e57600080fd5b6108466107bc565b15151561085257600080fd5b600960009054906101000a900473ffffffffffffffffffffffffffffffffffffffff1673ffffffffffffffffffffffffffffffffffffffff1663fa89401a336040518263ffffffff167c0100000000000000000000000000000000000000000000000000000000028152600401808273ffffffffffffffffffffffffffffffffffffffff1673ffffffffffffffffffffffffffffffffffffffff168152602001915050600060405180830381600087803b151561090e57600080fd5b6102c65a03f1151561091f57600080fd5b505050565b690a968163f0a57b4000006903b4ad496106b7f0000069010f0cf064dd59200000010181565b6000806006546005541015905061095f610e49565b806109675750805b91505090565b600760009054906101000a900473ffffffffffffffffffffffffffffffffffffffff1673ffffffffffffffffffffffffffffffffffffffff163373ffffffffffffffffffffffffffffffffffffffff161415156109c957600080fd5b600073ffffffffffffffffffffffffffffffffffffffff168173ffffffffffffffffffffffffffffffffffffffff1614151515610a0557600080fd5b8073ffffffffffffffffffffffffffffffffffffffff16600760009054906101000a900473ffffffffffffffffffffffffffffffffffffffff1673ffffffffffffffffffffffffffffffffffffffff167f8be0079c531659141344cd1fd0a4f28419497f9722a3daafe3b4186f6b6457e060405160405180910390a380600760006101000a81548173ffffffffffffffffffffffffffffffffffffffff021916908373ffffffffffffffffffffffffffffffffffffffff16021790555050565b600960009054906101000a900473ffffffffffffffffffffffffffffffffffffffff1681565b600a60009054906101000a900473ffffffffffffffffffffffffffffffffffffffff1681565b600080600073ffffffffffffffffffffffffffffffffffffffff168373ffffffffffffffffffffffffffffffffffffffff1614151515610b5057600080fd5b610b58610e55565b1515610b6357600080fd5b349150610b7b60045483610e8b90919063ffffffff16565b9050610b9282600554610ec690919063ffffffff16565b6005819055506000809054906101000a900473ffffffffffffffffffffffffffffffffffffffff1673ffffffffffffffffffffffffffffffffffffffff166340c10f1984836000604051602001526040518363ffffffff167c0100000000000000000000000000000000000000000000000000000000028152600401808373ffffffffffffffffffffffffffffffffffffffff1673ffffffffffffffffffffffffffffffffffffffff16815260200182815260200192505050602060405180830381600087803b1515610c6457600080fd5b6102c65a03f11515610c7557600080fd5b50505060405180519050508273ffffffffffffffffffffffffffffffffffffffff163373ffffffffffffffffffffffffffffffffffffffff167f623b3804fa71d67900d064613da8f94b9617215ee90799290593e1745087ad188484604051808381526020018281526020019250505060405180910390a3610cf5610ee4565b505050565b610d026107bc565b15610da557600960009054906101000a900473ffffffffffffffffffffffffffffffffffffffff1673ffffffffffffffffffffffffffffffffffffffff166343d726d66040518163ffffffff167c0100000000000000000000000000000000000000000000000000000000028152600401600060405180830381600087803b1515610d8c57600080fd5b6102c65a03f11515610d9d57600080fd5b505050610e3f565b600960009054906101000a900473ffffffffffffffffffffffffffffffffffffffff1673ffffffffffffffffffffffffffffffffffffffff16638c52dc416040518163ffffffff167c0100000000000000000000000000000000000000000000000000000000028152600401600060405180830381600087803b1515610e2a57600080fd5b6102c65a03f11515610e3b57600080fd5b5050505b610e47610fb7565b565b60006002544211905090565b600080600654610e7034600554610ec690919063ffffffff16565b11159050610e7c610fb9565b8015610e855750805b91505090565b6000806000841415610ea05760009150610ebf565b8284029050828482811515610eb157fe5b04141515610ebb57fe5b8091505b5092915050565b6000808284019050838110151515610eda57fe5b8091505092915050565b600960009054906101000a900473ffffffffffffffffffffffffffffffffffffffff1673ffffffffffffffffffffffffffffffffffffffff1663f340fa0134336040518363ffffffff167c0100000000000000000000000000000000000000000000000000000000028152600401808273ffffffffffffffffffffffffffffffffffffffff1673ffffffffffffffffffffffffffffffffffffffff1681526020019150506000604051808303818588803b1515610fa057600080fd5b6125ee5a03f11515610fb157600080fd5b50505050565b565b60008060006001544210158015610fd257506002544211155b915060003414159050818015610fe55750805b9250505090565b6000600a60009054906101000a900473ffffffffffffffffffffffffffffffffffffffff169050905600a165627a7a72305820009655f8811c25438cdd78d14614da4cf2e1b75e5ceeca210245828ce80b760d00296060604052341561000f57600080fd5b604051602080610a7783398101604052808051906020019091905050336000806101000a81548173ffffffffffffffffffffffffffffffffffffffff021916908373ffffffffffffffffffffffffffffffffffffffff160217905550600073ffffffffffffffffffffffffffffffffffffffff168173ffffffffffffffffffffffffffffffffffffffff16141515156100a757600080fd5b80600260006101000a81548173ffffffffffffffffffffffffffffffffffffffff021916908373ffffffffffffffffffffffffffffffffffffffff1602179055506000600260146101000a81548160ff0219169083600281111561010757fe5b02179055505061095b8061011c6000396000f300606060405260043610610099576000357c0100000000000000000000000000000000000000000000000000000000900463ffffffff16806343d726d61461009e578063521eb273146100b35780638c52dc41146101085780638da5cb5b1461011d578063c19d93fb14610172578063cb13cddb146101a9578063f2fde38b146101f6578063f340fa011461022f578063fa89401a1461025d575b600080fd5b34156100a957600080fd5b6100b1610296565b005b34156100be57600080fd5b6100c66103ef565b604051808273ffffffffffffffffffffffffffffffffffffffff1673ffffffffffffffffffffffffffffffffffffffff16815260200191505060405180910390f35b341561011357600080fd5b61011b610415565b005b341561012857600080fd5b6101306104f6565b604051808273ffffffffffffffffffffffffffffffffffffffff1673ffffffffffffffffffffffffffffffffffffffff16815260200191505060405180910390f35b341561017d57600080fd5b61018561051b565b6040518082600281111561019557fe5b60ff16815260200191505060405180910390f35b34156101b457600080fd5b6101e0600480803573ffffffffffffffffffffffffffffffffffffffff1690602001909190505061052e565b6040518082815260200191505060405180910390f35b341561020157600080fd5b61022d600480803573ffffffffffffffffffffffffffffffffffffffff16906020019091905050610546565b005b61025b600480803573ffffffffffffffffffffffffffffffffffffffff1690602001909190505061069b565b005b341561026857600080fd5b610294600480803573ffffffffffffffffffffffffffffffffffffffff169060200190919050506107c2565b005b6000809054906101000a900473ffffffffffffffffffffffffffffffffffffffff1673ffffffffffffffffffffffffffffffffffffffff163373ffffffffffffffffffffffffffffffffffffffff161415156102f157600080fd5b600060028111156102fe57fe5b600260149054906101000a900460ff16600281111561031957fe5b14151561032557600080fd5b60028060146101000a81548160ff0219169083600281111561034357fe5b02179055507f1cdde67b72a90f19919ac732a437ac2f7a10fc128d28c2a6e525d89ce5cd9d3a60405160405180910390a1600260009054906101000a900473ffffffffffffffffffffffffffffffffffffffff1673ffffffffffffffffffffffffffffffffffffffff166108fc3073ffffffffffffffffffffffffffffffffffffffff16319081150290604051600060405180830381858888f1935050505015156103ed57600080fd5b565b600260009054906101000a900473ffffffffffffffffffffffffffffffffffffffff1681565b6000809054906101000a900473ffffffffffffffffffffffffffffffffffffffff1673ffffffffffffffffffffffffffffffffffffffff163373ffffffffffffffffffffffffffffffffffffffff1614151561047057600080fd5b6000600281111561047d57fe5b600260149054906101000a900460ff16600281111561049857fe5b1415156104a457600080fd5b6001600260146101000a81548160ff021916908360028111156104c357fe5b02179055507f599d8e5a83cffb867d051598c4d70e805d59802d8081c1c7d6dffc5b6aca2b8960405160405180910390a1565b6000809054906101000a900473ffffffffffffffffffffffffffffffffffffffff1681565b600260149054906101000a900460ff1681565b60016020528060005260406000206000915090505481565b6000809054906101000a900473ffffffffffffffffffffffffffffffffffffffff1673ffffffffffffffffffffffffffffffffffffffff163373ffffffffffffffffffffffffffffffffffffffff161415156105a157600080fd5b600073ffffffffffffffffffffffffffffffffffffffff168173ffffffffffffffffffffffffffffffffffffffff16141515156105dd57600080fd5b8073ffffffffffffffffffffffffffffffffffffffff166000809054906101000a900473ffffffffffffffffffffffffffffffffffffffff1673ffffffffffffffffffffffffffffffffffffffff167f8be0079c531659141344cd1fd0a4f28419497f9722a3daafe3b4186f6b6457e060405160405180910390a3806000806101000a81548173ffffffffffffffffffffffffffffffffffffffff021916908373ffffffffffffffffffffffffffffffffffffffff16021790555050565b6000809054906101000a900473ffffffffffffffffffffffffffffffffffffffff1673ffffffffffffffffffffffffffffffffffffffff163373ffffffffffffffffffffffffffffffffffffffff161415156106f657600080fd5b6000600281111561070357fe5b600260149054906101000a900460ff16600281111561071e57fe5b14151561072a57600080fd5b61077c34600160008473ffffffffffffffffffffffffffffffffffffffff1673ffffffffffffffffffffffffffffffffffffffff1681526020019081526020016000205461091190919063ffffffff16565b600160008373ffffffffffffffffffffffffffffffffffffffff1673ffffffffffffffffffffffffffffffffffffffff1681526020019081526020016000208190555050565b6000600160028111156107d157fe5b600260149054906101000a900460ff1660028111156107ec57fe5b1415156107f857600080fd5b600160008373ffffffffffffffffffffffffffffffffffffffff1673ffffffffffffffffffffffffffffffffffffffff1681526020019081526020016000205490506000600160008473ffffffffffffffffffffffffffffffffffffffff1673ffffffffffffffffffffffffffffffffffffffff168152602001908152602001600020819055508173ffffffffffffffffffffffffffffffffffffffff166108fc829081150290604051600060405180830381858888f1935050505015156108bf57600080fd5b8173ffffffffffffffffffffffffffffffffffffffff167fd7dee2702d63ad89917b6a4da9981c90c4d24f8c2bdfd64c604ecae57d8d0651826040518082815260200191505060405180910390a25050565b600080828401905083811015151561092557fe5b80915050929150505600a165627a7a72305820f273a90d5edba6098f58a3f197f2b46e89d8d1b8907d120d1b6d95f7e012f6e50029",
  "source": "pragma solidity ^0.4.18;\r\n\r\nimport \"./CWPToken.sol\";\r\nimport \"zeppelin-solidity/contracts/crowdsale/CappedCrowdsale.sol\";\r\nimport \"zeppelin-solidity/contracts/crowdsale/RefundableCrowdsale.sol\";\r\n\r\ncontract CWPTokenSale is CappedCrowdsale, RefundableCrowdsale {\r\n  uint256 public constant REFUND_CAP = 4000 * 1 ether;\r\n  uint8 public constant RATE50 = 6;\r\n  uint256 public constant CAP50 = 5000 * 1 ether;\r\n  uint8 public constant RATE25 = 4;\r\n  uint256 public constant CAP25 = CAP50 + (17500 * 1 ether);\r\n  uint8 public constant RATE0 = 3;\r\n  uint256 public constant CAP0 = CAP25 + (50000 * 1 ether);\r\n\r\n  address public token; //this maybe must be private\r\n\r\n  modifier checkNextRate() {\r\n    if (rate == RATE50 && weiRaised >= CAP50 * 1 ether) {\r\n      rate = RATE25;\r\n    } else if (rate == RATE25 && weiRaised >= CAP25 * 1 ether) {\r\n      rate = RATE0;\r\n    }\r\n    _;\r\n  }\r\n\r\n  /**\r\n   * CWPTokenSale - Contract for CryptoWorkPlace Token Sale\r\n   *\r\n   * @param  _token     Address of CWPToken contract, deployed to blockchain\r\n   * @param _startTime UNIX Timestamp in seconds, when Token Sale start\r\n   * @param _duration  Token Sale duration in days\r\n   * @param _wallet    Address of multisig wallet, using for refund if Token Sale failed\r\n   */\r\n  function CWPTokenSale(address _token, uint256 _startTime, uint8 _duration, address _wallet) public\r\n    CappedCrowdsale(CAP0)\r\n    FinalizableCrowdsale()\r\n    RefundableCrowdsale(REFUND_CAP)\r\n    Crowdsale(_startTime, _startTime + _duration * 1 days, RATE50, _wallet)\r\n  {\r\n    //As goal needs to be met for a successful crowdsale\r\n    //the value needs to less or equal than a cap which is limit for accepted funds\r\n    require(_token != address(0));\r\n    token = _token;\r\n  }\r\n\r\n  function buyTokens(address beneficiary) checkNextRate public payable{\r\n    super.buyTokens(beneficiary);\r\n  }\r\n\r\n  /*Use CWPToken for sale*/\r\n  function createTokenContract() internal returns (MintableToken) {\r\n    return CWPToken(token);\r\n  }\r\n}\r\n",
  "sourcePath": "C:\\Users\\mmaslich.CISLINK\\Source\\Repos\\cryptoworkplace.io\\res\\Etherium\\CWP\\contracts\\CWPTokenSale.sol",
  "compiler": {
    "name": "solc",
    "version": "0.4.18+commit.9cf6e910.Emscripten.clang"
  },
  "schemaVersion": "1.0.1",
  "updatedAt": "2017-12-27T19:42:07.276Z"
}