{
  "contractName": "CWTPTokenSale",
  "abi": [
    {
      "constant": true,
      "inputs": [
        {
          "name": "_operator",
          "type": "address"
        },
        {
          "name": "_role",
          "type": "string"
        }
      ],
      "name": "checkRole",
      "outputs": [],
      "payable": false,
      "stateMutability": "view",
      "type": "function"
    },
    {
      "constant": true,
      "inputs": [],
      "name": "hasClosed",
      "outputs": [
        {
          "name": "",
          "type": "bool"
        }
      ],
      "payable": false,
      "stateMutability": "view",
      "type": "function"
    },
    {
      "constant": true,
      "inputs": [],
      "name": "ROLE_WHITELISTED",
      "outputs": [
        {
          "name": "",
          "type": "string"
        }
      ],
      "payable": false,
      "stateMutability": "view",
      "type": "function"
    },
    {
      "constant": true,
      "inputs": [
        {
          "name": "_operator",
          "type": "address"
        },
        {
          "name": "_role",
          "type": "string"
        }
      ],
      "name": "hasRole",
      "outputs": [
        {
          "name": "",
          "type": "bool"
        }
      ],
      "payable": false,
      "stateMutability": "view",
      "type": "function"
    },
    {
      "constant": false,
      "inputs": [
        {
          "name": "_operators",
          "type": "address[]"
        }
      ],
      "name": "removeAddressesFromWhitelist",
      "outputs": [],
      "payable": false,
      "stateMutability": "nonpayable",
      "type": "function"
    },
    {
      "constant": false,
      "inputs": [
        {
          "name": "_operator",
          "type": "address"
        }
      ],
      "name": "removeAddressFromWhitelist",
      "outputs": [],
      "payable": false,
      "stateMutability": "nonpayable",
      "type": "function"
    },
    {
      "constant": true,
      "inputs": [],
      "name": "rate",
      "outputs": [
        {
          "name": "",
          "type": "uint256"
        }
      ],
      "payable": false,
      "stateMutability": "view",
      "type": "function"
    },
    {
      "constant": true,
      "inputs": [],
      "name": "weiRaised",
      "outputs": [
        {
          "name": "",
          "type": "uint256"
        }
      ],
      "payable": false,
      "stateMutability": "view",
      "type": "function"
    },
    {
      "constant": true,
      "inputs": [],
      "name": "ROLE_SRV",
      "outputs": [
        {
          "name": "",
          "type": "string"
        }
      ],
      "payable": false,
      "stateMutability": "view",
      "type": "function"
    },
    {
      "constant": true,
      "inputs": [],
      "name": "closingTime",
      "outputs": [
        {
          "name": "",
          "type": "uint256"
        }
      ],
      "payable": false,
      "stateMutability": "view",
      "type": "function"
    },
    {
      "constant": true,
      "inputs": [],
      "name": "tokenSold",
      "outputs": [
        {
          "name": "",
          "type": "uint256"
        }
      ],
      "payable": false,
      "stateMutability": "view",
      "type": "function"
    },
    {
      "constant": true,
      "inputs": [],
      "name": "ROLE_DAPP",
      "outputs": [
        {
          "name": "",
          "type": "string"
        }
      ],
      "payable": false,
      "stateMutability": "view",
      "type": "function"
    },
    {
      "constant": true,
      "inputs": [],
      "name": "wallet",
      "outputs": [
        {
          "name": "",
          "type": "address"
        }
      ],
      "payable": false,
      "stateMutability": "view",
      "type": "function"
    },
    {
      "constant": false,
      "inputs": [],
      "name": "withdrawPayments",
      "outputs": [],
      "payable": false,
      "stateMutability": "nonpayable",
      "type": "function"
    },
    {
      "constant": true,
      "inputs": [
        {
          "name": "",
          "type": "address"
        }
      ],
      "name": "fixRate",
      "outputs": [
        {
          "name": "rate",
          "type": "uint256"
        },
        {
          "name": "time",
          "type": "uint256"
        },
        {
          "name": "amount",
          "type": "uint256"
        }
      ],
      "payable": false,
      "stateMutability": "view",
      "type": "function"
    },
    {
      "constant": false,
      "inputs": [
        {
          "name": "addr",
          "type": "address"
        },
        {
          "name": "roleName",
          "type": "string"
        }
      ],
      "name": "adminRemoveRole",
      "outputs": [],
      "payable": false,
      "stateMutability": "nonpayable",
      "type": "function"
    },
    {
      "constant": true,
      "inputs": [],
      "name": "owner",
      "outputs": [
        {
          "name": "",
          "type": "address"
        }
      ],
      "payable": false,
      "stateMutability": "view",
      "type": "function"
    },
    {
      "constant": true,
      "inputs": [
        {
          "name": "_operator",
          "type": "address"
        }
      ],
      "name": "whitelist",
      "outputs": [
        {
          "name": "",
          "type": "bool"
        }
      ],
      "payable": false,
      "stateMutability": "view",
      "type": "function"
    },
    {
      "constant": false,
      "inputs": [
        {
          "name": "addr",
          "type": "address"
        },
        {
          "name": "roleName",
          "type": "string"
        }
      ],
      "name": "adminAddRole",
      "outputs": [],
      "payable": false,
      "stateMutability": "nonpayable",
      "type": "function"
    },
    {
      "constant": true,
      "inputs": [],
      "name": "openingTime",
      "outputs": [
        {
          "name": "",
          "type": "uint256"
        }
      ],
      "payable": false,
      "stateMutability": "view",
      "type": "function"
    },
    {
      "constant": true,
      "inputs": [],
      "name": "ROLE_ADMIN",
      "outputs": [
        {
          "name": "",
          "type": "string"
        }
      ],
      "payable": false,
      "stateMutability": "view",
      "type": "function"
    },
    {
      "constant": true,
      "inputs": [],
      "name": "tokenCap",
      "outputs": [
        {
          "name": "",
          "type": "uint256"
        }
      ],
      "payable": false,
      "stateMutability": "view",
      "type": "function"
    },
    {
      "constant": true,
      "inputs": [
        {
          "name": "_dest",
          "type": "address"
        }
      ],
      "name": "payments",
      "outputs": [
        {
          "name": "",
          "type": "uint256"
        }
      ],
      "payable": false,
      "stateMutability": "view",
      "type": "function"
    },
    {
      "constant": false,
      "inputs": [
        {
          "name": "_operators",
          "type": "address[]"
        }
      ],
      "name": "addAddressesToWhitelist",
      "outputs": [],
      "payable": false,
      "stateMutability": "nonpayable",
      "type": "function"
    },
    {
      "constant": false,
      "inputs": [
        {
          "name": "_beneficiary",
          "type": "address"
        }
      ],
      "name": "buyTokens",
      "outputs": [],
      "payable": true,
      "stateMutability": "payable",
      "type": "function"
    },
    {
      "constant": false,
      "inputs": [
        {
          "name": "_newOwner",
          "type": "address"
        }
      ],
      "name": "transferOwnership",
      "outputs": [],
      "payable": false,
      "stateMutability": "nonpayable",
      "type": "function"
    },
    {
      "constant": true,
      "inputs": [],
      "name": "token",
      "outputs": [
        {
          "name": "",
          "type": "address"
        }
      ],
      "payable": false,
      "stateMutability": "view",
      "type": "function"
    },
    {
      "inputs": [
        {
          "name": "_startTime",
          "type": "uint256"
        },
        {
          "name": "_endTime",
          "type": "uint256"
        },
        {
          "name": "_wallet",
          "type": "address"
        },
        {
          "name": "_tokenAddress",
          "type": "address"
        }
      ],
      "payable": false,
      "stateMutability": "nonpayable",
      "type": "constructor"
    },
    {
      "payable": true,
      "stateMutability": "payable",
      "type": "fallback"
    },
    {
      "anonymous": false,
      "inputs": [
        {
          "indexed": true,
          "name": "purchaser",
          "type": "address"
        },
        {
          "indexed": true,
          "name": "beneficiary",
          "type": "address"
        },
        {
          "indexed": false,
          "name": "value",
          "type": "uint256"
        },
        {
          "indexed": false,
          "name": "amount",
          "type": "uint256"
        }
      ],
      "name": "TokenPurchase",
      "type": "event"
    },
    {
      "anonymous": false,
      "inputs": [
        {
          "indexed": true,
          "name": "operator",
          "type": "address"
        },
        {
          "indexed": false,
          "name": "role",
          "type": "string"
        }
      ],
      "name": "RoleAdded",
      "type": "event"
    },
    {
      "anonymous": false,
      "inputs": [
        {
          "indexed": true,
          "name": "operator",
          "type": "address"
        },
        {
          "indexed": false,
          "name": "role",
          "type": "string"
        }
      ],
      "name": "RoleRemoved",
      "type": "event"
    },
    {
      "anonymous": false,
      "inputs": [
        {
          "indexed": true,
          "name": "previousOwner",
          "type": "address"
        }
      ],
      "name": "OwnershipRenounced",
      "type": "event"
    },
    {
      "anonymous": false,
      "inputs": [
        {
          "indexed": true,
          "name": "previousOwner",
          "type": "address"
        },
        {
          "indexed": true,
          "name": "newOwner",
          "type": "address"
        }
      ],
      "name": "OwnershipTransferred",
      "type": "event"
    },
    {
      "constant": false,
      "inputs": [
        {
          "name": "_dappAddr",
          "type": "address"
        }
      ],
      "name": "registerDappAddress",
      "outputs": [],
      "payable": false,
      "stateMutability": "nonpayable",
      "type": "function"
    },
    {
      "constant": true,
      "inputs": [],
      "name": "hasOpened",
      "outputs": [
        {
          "name": "",
          "type": "bool"
        }
      ],
      "payable": false,
      "stateMutability": "view",
      "type": "function"
    },
    {
      "constant": false,
      "inputs": [
        {
          "name": "_operator",
          "type": "address"
        }
      ],
      "name": "addAddressToWhitelist",
      "outputs": [],
      "payable": false,
      "stateMutability": "nonpayable",
      "type": "function"
    },
    {
      "constant": false,
      "inputs": [
        {
          "name": "newRate",
          "type": "uint256"
        },
        {
          "name": "buyer",
          "type": "address"
        },
        {
          "name": "amount",
          "type": "uint256"
        }
      ],
      "name": "setRateForTransaction",
      "outputs": [],
      "payable": false,
      "stateMutability": "nonpayable",
      "type": "function"
    },
    {
      "constant": true,
      "inputs": [],
      "name": "capReached",
      "outputs": [
        {
          "name": "",
          "type": "bool"
        }
      ],
      "payable": false,
      "stateMutability": "view",
      "type": "function"
    },
    {
      "constant": false,
      "inputs": [],
      "name": "renounceOwnership",
      "outputs": [],
      "payable": false,
      "stateMutability": "nonpayable",
      "type": "function"
    },
    {
      "constant": false,
      "inputs": [],
      "name": "CloseContract",
      "outputs": [],
      "payable": false,
      "stateMutability": "nonpayable",
      "type": "function"
    },
    {
      "constant": false,
      "inputs": [],
      "name": "ForceCloseContract",
      "outputs": [],
      "payable": false,
      "stateMutability": "nonpayable",
      "type": "function"
    }
  ],
  "bytecode": "0x60806040523480156200001157600080fd5b50604051608080620036c683398101806040528101908080519060200190929190805190602001909291908051906020019092919080519060200190929190505050838360018484336000806101000a81548173ffffffffffffffffffffffffffffffffffffffff021916908373ffffffffffffffffffffffffffffffffffffffff160217905550600083111515620000a957600080fd5b600073ffffffffffffffffffffffffffffffffffffffff168273ffffffffffffffffffffffffffffffffffffffff1614151515620000e657600080fd5b600073ffffffffffffffffffffffffffffffffffffffff168173ffffffffffffffffffffffffffffffffffffffff16141515156200012357600080fd5b8260048190555081600360006101000a81548173ffffffffffffffffffffffffffffffffffffffff021916908373ffffffffffffffffffffffffffffffffffffffff16021790555080600260006101000a81548173ffffffffffffffffffffffffffffffffffffffff021916908373ffffffffffffffffffffffffffffffffffffffff160217905550505050620001ff336040805190810160405280600581526020017f61646d696e000000000000000000000000000000000000000000000000000000815250620004ce640100000000026401000000009004565b4282101515156200020f57600080fd5b8181101515156200021f57600080fd5b816006819055508060078190555050506200023962000675565b604051809103906000f08015801562000256573d6000803e3d6000fd5b50600860006101000a81548173ffffffffffffffffffffffffffffffffffffffff021916908373ffffffffffffffffffffffffffffffffffffffff160217905550600073ffffffffffffffffffffffffffffffffffffffff168173ffffffffffffffffffffffffffffffffffffffff1614151515620002d457600080fd5b8073ffffffffffffffffffffffffffffffffffffffff1663355274ea6040518163ffffffff167c0100000000000000000000000000000000000000000000000000000000028152600401602060405180830381600087803b1580156200033957600080fd5b505af11580156200034e573d6000803e3d6000fd5b505050506040513d60208110156200036557600080fd5b8101908080519060200190929190505050600a819055508073ffffffffffffffffffffffffffffffffffffffff166318160ddd6040518163ffffffff167c0100000000000000000000000000000000000000000000000000000000028152600401602060405180830381600087803b158015620003e157600080fd5b505af1158015620003f6573d6000803e3d6000fd5b505050506040513d60208110156200040d57600080fd5b8101908080519060200190929190505050600b8190555062000474336040805190810160405280600481526020017f6461707000000000000000000000000000000000000000000000000000000000815250620004ce640100000000026401000000009004565b620004c4336040805190810160405280600781526020017f7365727669636500000000000000000000000000000000000000000000000000815250620004ce640100000000026401000000009004565b5050505062000686565b6200055d826001836040518082805190602001908083835b6020831015156200050d5780518252602082019150602081019050602083039250620004e6565b6001836020036101000a03801982511681845116808217855250505050505090500191505090815260200160405180910390206200061764010000000002620025a7179091906401000000009004565b8173ffffffffffffffffffffffffffffffffffffffff167fbfec83d64eaa953f2708271a023ab9ee82057f8f3578d548c1a4ba0b5b700489826040518080602001828103825283818151815260200191508051906020019080838360005b83811015620005d8578082015181840152602081019050620005bb565b50505050905090810190601f168015620006065780820380516001836020036101000a031916815260200191505b509250505060405180910390a25050565b60018260000160008373ffffffffffffffffffffffffffffffffffffffff1673ffffffffffffffffffffffffffffffffffffffff16815260200190815260200160002060006101000a81548160ff0219169083151502179055505050565b6040516108518062002e7583390190565b6127df80620006966000396000f3006080604052600436106101b7576000357c0100000000000000000000000000000000000000000000000000000000900463ffffffff1680630988ca8c146101c25780631515bc2b1461024b57806318b919e91461027a578063217fe6c61461030a57806324953eaa146103ab5780632675c12314610411578063286dd3f5146104285780632c4e722e1461046b5780632f591a6a146104965780634042b66f146104ed57806341df5b74146105185780634b6753bc146105a85780634f935945146105d3578063519ee19e1461060257806351a0daf91461062d578063521eb273146106bd5780636103d70b14610714578063626a91981461072b578063715018a6146107905780637b9417c8146107a757806383b8b9f0146107ea57806388cee87e146108015780638da5cb5b1461088a5780639b19251a146108e1578063b25fa92c1461093c578063b7a8807c146109c5578063be8eef8e146109f0578063d391014b14610a1f578063d93debd514610aaf578063dd54291b14610af2578063e2982c2114610b1d578063e2ec6ec314610b74578063ec8ac4d814610bda578063f2fde38b14610c10578063fc0c546a14610c53575b6101c033610caa565b005b3480156101ce57600080fd5b50610249600480360381019080803573ffffffffffffffffffffffffffffffffffffffff169060200190929190803590602001908201803590602001908080601f0160208091040260200160405190810160405280939291908181526020018383808284378201915050505050509192919290505050610d78565b005b34801561025757600080fd5b50610260610df9565b604051808215151515815260200191505060405180910390f35b34801561028657600080fd5b5061028f610e05565b6040518080602001828103825283818151815260200191508051906020019080838360005b838110156102cf5780820151818401526020810190506102b4565b50505050905090810190601f1680156102fc5780820380516001836020036101000a031916815260200191505b509250505060405180910390f35b34801561031657600080fd5b50610391600480360381019080803573ffffffffffffffffffffffffffffffffffffffff169060200190929190803590602001908201803590602001908080601f0160208091040260200160405190810160405280939291908181526020018383808284378201915050505050509192919290505050610e3e565b604051808215151515815260200191505060405180910390f35b3480156103b757600080fd5b5061040f60048036038101908080359060200190820180359060200190808060200260200160405190810160405280939291908181526020018383602002808284378201915050505050509192919290505050610ec5565b005b34801561041d57600080fd5b50610426610f61565b005b34801561043457600080fd5b50610469600480360381019080803573ffffffffffffffffffffffffffffffffffffffff1690602001909291905050506110c9565b005b34801561047757600080fd5b50610480611166565b6040518082815260200191505060405180910390f35b3480156104a257600080fd5b506104eb60048036038101908080359060200190929190803573ffffffffffffffffffffffffffffffffffffffff1690602001909291908035906020019092919050505061116c565b005b3480156104f957600080fd5b506105026112a2565b6040518082815260200191505060405180910390f35b34801561052457600080fd5b5061052d6112a8565b6040518080602001828103825283818151815260200191508051906020019080838360005b8381101561056d578082015181840152602081019050610552565b50505050905090810190601f16801561059a5780820380516001836020036101000a031916815260200191505b509250505060405180910390f35b3480156105b457600080fd5b506105bd6112e1565b6040518082815260200191505060405180910390f35b3480156105df57600080fd5b506105e86112e7565b604051808215151515815260200191505060405180910390f35b34801561060e57600080fd5b506106176112f6565b6040518082815260200191505060405180910390f35b34801561063957600080fd5b506106426112fc565b6040518080602001828103825283818151815260200191508051906020019080838360005b83811015610682578082015181840152602081019050610667565b50505050905090810190601f1680156106af5780820380516001836020036101000a031916815260200191505b509250505060405180910390f35b3480156106c957600080fd5b506106d2611335565b604051808273ffffffffffffffffffffffffffffffffffffffff1673ffffffffffffffffffffffffffffffffffffffff16815260200191505060405180910390f35b34801561072057600080fd5b5061072961135b565b005b34801561073757600080fd5b5061076c600480360381019080803573ffffffffffffffffffffffffffffffffffffffff169060200190929190505050611438565b60405180848152602001838152602001828152602001935050505060405180910390f35b34801561079c57600080fd5b506107a5611462565b005b3480156107b357600080fd5b506107e8600480360381019080803573ffffffffffffffffffffffffffffffffffffffff1690602001909291905050506114bf565b005b3480156107f657600080fd5b506107ff611553565b005b34801561080d57600080fd5b50610888600480360381019080803573ffffffffffffffffffffffffffffffffffffffff169060200190929190803590602001908201803590602001908080601f01602080910402602001604051908101604052809392919081815260200183838082843782019150505050505091929192905050506116c4565b005b34801561089657600080fd5b5061089f611711565b604051808273ffffffffffffffffffffffffffffffffffffffff1673ffffffffffffffffffffffffffffffffffffffff16815260200191505060405180910390f35b3480156108ed57600080fd5b50610922600480360381019080803573ffffffffffffffffffffffffffffffffffffffff169060200190929190505050611736565b604051808215151515815260200191505060405180910390f35b34801561094857600080fd5b506109c3600480360381019080803573ffffffffffffffffffffffffffffffffffffffff169060200190929190803590602001908201803590602001908080601f016020809104026020016040519081016040528093929190818152602001838380828437820191505050505050919291929050505061177e565b005b3480156109d157600080fd5b506109da6117cb565b6040518082815260200191505060405180910390f35b3480156109fc57600080fd5b50610a056117d1565b604051808215151515815260200191505060405180910390f35b348015610a2b57600080fd5b50610a346117ec565b6040518080602001828103825283818151815260200191508051906020019080838360005b83811015610a74578082015181840152602081019050610a59565b50505050905090810190601f168015610aa15780820380516001836020036101000a031916815260200191505b509250505060405180910390f35b348015610abb57600080fd5b50610af0600480360381019080803573ffffffffffffffffffffffffffffffffffffffff169060200190929190505050611825565b005b348015610afe57600080fd5b50610b076118a8565b6040518082815260200191505060405180910390f35b348015610b2957600080fd5b50610b5e600480360381019080803573ffffffffffffffffffffffffffffffffffffffff1690602001909291905050506118ae565b6040518082815260200191505060405180910390f35b348015610b8057600080fd5b50610bd8600480360381019080803590602001908201803590602001908080602002602001604051908101604052809392919081815260200183836020028082843782019150505050505091929192905050506119af565b005b610c0e600480360381019080803573ffffffffffffffffffffffffffffffffffffffff169060200190929190505050610caa565b005b348015610c1c57600080fd5b50610c51600480360381019080803573ffffffffffffffffffffffffffffffffffffffff169060200190929190505050611a4b565b005b348015610c5f57600080fd5b50610c68611ab2565b604051808273ffffffffffffffffffffffffffffffffffffffff1673ffffffffffffffffffffffffffffffffffffffff16815260200191505060405180910390f35b600080349150610cba8383611ad8565b610cc382611be9565b9050610cda82600554611c6d90919063ffffffff16565b600581905550610cea8382611c89565b8273ffffffffffffffffffffffffffffffffffffffff163373ffffffffffffffffffffffffffffffffffffffff167f623b3804fa71d67900d064613da8f94b9617215ee90799290593e1745087ad188484604051808381526020018281526020019250505060405180910390a3610d618383611cb2565b610d69611cb6565b610d738383611d53565b505050565b610df5826001836040518082805190602001908083835b602083101515610db45780518252602082019150602081019050602083039250610d8f565b6001836020036101000a0380198251168184511680821785525050505050509050019150509081526020016040518091039020611d9e90919063ffffffff16565b5050565b60006007544211905090565b6040805190810160405280600981526020017f77686974656c697374000000000000000000000000000000000000000000000081525081565b6000610ebd836001846040518082805190602001908083835b602083101515610e7c5780518252602082019150602081019050602083039250610e57565b6001836020036101000a0380198251168184511680821785525050505050509050019150509081526020016040518091039020611db790919063ffffffff16565b905092915050565b60008060009054906101000a900473ffffffffffffffffffffffffffffffffffffffff1673ffffffffffffffffffffffffffffffffffffffff163373ffffffffffffffffffffffffffffffffffffffff16141515610f2257600080fd5b600090505b8151811015610f5d57610f508282815181101515610f4157fe5b906020019060200201516110c9565b8080600101915050610f27565b5050565b610fa0336040805190810160405280600581526020017f61646d696e000000000000000000000000000000000000000000000000000000815250610d78565b610fa8610df9565b1515610fb357600080fd5b3073ffffffffffffffffffffffffffffffffffffffff16600260009054906101000a900473ffffffffffffffffffffffffffffffffffffffff1673ffffffffffffffffffffffffffffffffffffffff16638da5cb5b6040518163ffffffff167c0100000000000000000000000000000000000000000000000000000000028152600401602060405180830381600087803b15801561105057600080fd5b505af1158015611064573d6000803e3d6000fd5b505050506040513d602081101561107a57600080fd5b810190808051906020019092919050505073ffffffffffffffffffffffffffffffffffffffff1614156110b0576110af611e10565b5b3373ffffffffffffffffffffffffffffffffffffffff16ff5b6000809054906101000a900473ffffffffffffffffffffffffffffffffffffffff1673ffffffffffffffffffffffffffffffffffffffff163373ffffffffffffffffffffffffffffffffffffffff1614151561112457600080fd5b611163816040805190810160405280600981526020017f77686974656c6973740000000000000000000000000000000000000000000000815250611f39565b50565b60045481565b816111ac816040805190810160405280600981526020017f77686974656c6973740000000000000000000000000000000000000000000000815250610d78565b6040805190810160405280600481526020017f64617070000000000000000000000000000000000000000000000000000000008152506111ec3382610d78565b600654421015801561120057506007544211155b151561120b57600080fd5b60606040519081016040528086815260200161123261038442611c6d90919063ffffffff16565b815260200184815250600960008673ffffffffffffffffffffffffffffffffffffffff1673ffffffffffffffffffffffffffffffffffffffff1681526020019081526020016000206000820151816000015560208201518160010155604082015181600201559050505050505050565b60055481565b6040805190810160405280600781526020017f736572766963650000000000000000000000000000000000000000000000000081525081565b60075481565b6000600a54600b541015905090565b600b5481565b6040805190810160405280600481526020017f646170700000000000000000000000000000000000000000000000000000000081525081565b600360009054906101000a900473ffffffffffffffffffffffffffffffffffffffff1681565b6000339050600860009054906101000a900473ffffffffffffffffffffffffffffffffffffffff1673ffffffffffffffffffffffffffffffffffffffff166351cff8d9826040518263ffffffff167c0100000000000000000000000000000000000000000000000000000000028152600401808273ffffffffffffffffffffffffffffffffffffffff1673ffffffffffffffffffffffffffffffffffffffff168152602001915050600060405180830381600087803b15801561141d57600080fd5b505af1158015611431573d6000803e3d6000fd5b5050505050565b60096020528060005260406000206000915090508060000154908060010154908060020154905083565b6000809054906101000a900473ffffffffffffffffffffffffffffffffffffffff1673ffffffffffffffffffffffffffffffffffffffff163373ffffffffffffffffffffffffffffffffffffffff161415156114bd57600080fd5b565b6040805190810160405280600481526020017f64617070000000000000000000000000000000000000000000000000000000008152506114ff3382610d78565b600754421115151561151057600080fd5b61154f826040805190810160405280600981526020017f77686974656c697374000000000000000000000000000000000000000000000081525061206d565b5050565b6000809054906101000a900473ffffffffffffffffffffffffffffffffffffffff1673ffffffffffffffffffffffffffffffffffffffff163373ffffffffffffffffffffffffffffffffffffffff161415156115ae57600080fd5b3073ffffffffffffffffffffffffffffffffffffffff16600260009054906101000a900473ffffffffffffffffffffffffffffffffffffffff1673ffffffffffffffffffffffffffffffffffffffff16638da5cb5b6040518163ffffffff167c0100000000000000000000000000000000000000000000000000000000028152600401602060405180830381600087803b15801561164b57600080fd5b505af115801561165f573d6000803e3d6000fd5b505050506040513d602081101561167557600080fd5b810190808051906020019092919050505073ffffffffffffffffffffffffffffffffffffffff1614156116ab576116aa6121a1565b5b3373ffffffffffffffffffffffffffffffffffffffff16ff5b611703336040805190810160405280600581526020017f61646d696e000000000000000000000000000000000000000000000000000000815250610d78565b61170d8282611f39565b5050565b6000809054906101000a900473ffffffffffffffffffffffffffffffffffffffff1681565b6000611777826040805190810160405280600981526020017f77686974656c6973740000000000000000000000000000000000000000000000815250610e3e565b9050919050565b6117bd336040805190810160405280600581526020017f61646d696e000000000000000000000000000000000000000000000000000000815250610d78565b6117c7828261206d565b5050565b60065481565b600060065442101580156117e757506007544211155b905090565b6040805190810160405280600581526020017f61646d696e00000000000000000000000000000000000000000000000000000081525081565b6040805190810160405280600581526020017f61646d696e0000000000000000000000000000000000000000000000000000008152506118653382610d78565b6118a4826040805190810160405280600481526020017f646170700000000000000000000000000000000000000000000000000000000081525061206d565b5050565b600a5481565b6000600860009054906101000a900473ffffffffffffffffffffffffffffffffffffffff1673ffffffffffffffffffffffffffffffffffffffff1663e3a9db1a836040518263ffffffff167c0100000000000000000000000000000000000000000000000000000000028152600401808273ffffffffffffffffffffffffffffffffffffffff1673ffffffffffffffffffffffffffffffffffffffff168152602001915050602060405180830381600087803b15801561196d57600080fd5b505af1158015611981573d6000803e3d6000fd5b505050506040513d602081101561199757600080fd5b81019080805190602001909291905050509050919050565b60008060009054906101000a900473ffffffffffffffffffffffffffffffffffffffff1673ffffffffffffffffffffffffffffffffffffffff163373ffffffffffffffffffffffffffffffffffffffff16141515611a0c57600080fd5b600090505b8151811015611a4757611a3a8282815181101515611a2b57fe5b906020019060200201516114bf565b8080600101915050611a11565b5050565b6000809054906101000a900473ffffffffffffffffffffffffffffffffffffffff1673ffffffffffffffffffffffffffffffffffffffff163373ffffffffffffffffffffffffffffffffffffffff16141515611aa657600080fd5b611aaf816122d3565b50565b600260009054906101000a900473ffffffffffffffffffffffffffffffffffffffff1681565b42600960008473ffffffffffffffffffffffffffffffffffffffff1673ffffffffffffffffffffffffffffffffffffffff16815260200190815260200160002060010154111515611b2857600080fd5b600960008373ffffffffffffffffffffffffffffffffffffffff1673ffffffffffffffffffffffffffffffffffffffff168152602001908152602001600020600201548110151515611b7957600080fd5b600960008373ffffffffffffffffffffffffffffffffffffffff1673ffffffffffffffffffffffffffffffffffffffff168152602001908152602001600020600c600082015481600001556001820154816001015560028201548160020155905050611be582826123cd565b5050565b600080611c3d670de0b6b3a7640000611c2f670de0b6b3a7640000611c21600c60000154600c600201546123fa90919063ffffffff16565b61243290919063ffffffff16565b6123fa90919063ffffffff16565b9050600a54611c5782600b54611c6d90919063ffffffff16565b11151515611c6457600080fd5b80915050919050565b60008183019050828110151515611c8057fe5b80905092915050565b611c9e81600b54611c6d90919063ffffffff16565b600b81905550611cae8282612448565b5050565b5050565b6000600c6002015434039050611cd78160055461245690919063ffffffff16565b50600360009054906101000a900473ffffffffffffffffffffffffffffffffffffffff1673ffffffffffffffffffffffffffffffffffffffff166108fc600c600201549081150290604051600060405180830381858888f19350505050158015611d45573d6000803e3d6000fd5b50611d50338261246f565b50565b42600960008473ffffffffffffffffffffffffffffffffffffffff1673ffffffffffffffffffffffffffffffffffffffff168152602001908152602001600020600101819055505050565b611da88282611db7565b1515611db357600080fd5b5050565b60008260000160008373ffffffffffffffffffffffffffffffffffffffff1673ffffffffffffffffffffffffffffffffffffffff16815260200190815260200160002060009054906101000a900460ff16905092915050565b611e4f336040805190810160405280600581526020017f61646d696e000000000000000000000000000000000000000000000000000000815250610d78565b611e57610df9565b1515611e6257600080fd5b600260009054906101000a900473ffffffffffffffffffffffffffffffffffffffff1673ffffffffffffffffffffffffffffffffffffffff1663f2fde38b336040518263ffffffff167c0100000000000000000000000000000000000000000000000000000000028152600401808273ffffffffffffffffffffffffffffffffffffffff1673ffffffffffffffffffffffffffffffffffffffff168152602001915050600060405180830381600087803b158015611f1f57600080fd5b505af1158015611f33573d6000803e3d6000fd5b50505050565b611fb6826001836040518082805190602001908083835b602083101515611f755780518252602082019150602081019050602083039250611f50565b6001836020036101000a038019825116818451168082178552505050505050905001915050908152602001604051809103902061254990919063ffffffff16565b8173ffffffffffffffffffffffffffffffffffffffff167fd211483f91fc6eff862467f8de606587a30c8fc9981056f051b897a418df803a826040518080602001828103825283818151815260200191508051906020019080838360005b8381101561202f578082015181840152602081019050612014565b50505050905090810190601f16801561205c5780820380516001836020036101000a031916815260200191505b509250505060405180910390a25050565b6120ea826001836040518082805190602001908083835b6020831015156120a95780518252602082019150602081019050602083039250612084565b6001836020036101000a03801982511681845116808217855250505050505090500191505090815260200160405180910390206125a790919063ffffffff16565b8173ffffffffffffffffffffffffffffffffffffffff167fbfec83d64eaa953f2708271a023ab9ee82057f8f3578d548c1a4ba0b5b700489826040518080602001828103825283818151815260200191508051906020019080838360005b83811015612163578082015181840152602081019050612148565b50505050905090810190601f1680156121905780820380516001836020036101000a031916815260200191505b509250505060405180910390a25050565b6000809054906101000a900473ffffffffffffffffffffffffffffffffffffffff1673ffffffffffffffffffffffffffffffffffffffff163373ffffffffffffffffffffffffffffffffffffffff161415156121fc57600080fd5b600260009054906101000a900473ffffffffffffffffffffffffffffffffffffffff1673ffffffffffffffffffffffffffffffffffffffff1663f2fde38b336040518263ffffffff167c0100000000000000000000000000000000000000000000000000000000028152600401808273ffffffffffffffffffffffffffffffffffffffff1673ffffffffffffffffffffffffffffffffffffffff168152602001915050600060405180830381600087803b1580156122b957600080fd5b505af11580156122cd573d6000803e3d6000fd5b50505050565b600073ffffffffffffffffffffffffffffffffffffffff168173ffffffffffffffffffffffffffffffffffffffff161415151561230f57600080fd5b8073ffffffffffffffffffffffffffffffffffffffff166000809054906101000a900473ffffffffffffffffffffffffffffffffffffffff1673ffffffffffffffffffffffffffffffffffffffff167f8be0079c531659141344cd1fd0a4f28419497f9722a3daafe3b4186f6b6457e060405160405180910390a3806000806101000a81548173ffffffffffffffffffffffffffffffffffffffff021916908373ffffffffffffffffffffffffffffffffffffffff16021790555050565b60065442101580156123e157506007544211155b15156123ec57600080fd5b6123f68282612605565b5050565b60008083141561240d576000905061242c565b818302905081838281151561241e57fe5b0414151561242857fe5b8090505b92915050565b6000818381151561243f57fe5b04905092915050565b6124528282612654565b5050565b600082821115151561246457fe5b818303905092915050565b600860009054906101000a900473ffffffffffffffffffffffffffffffffffffffff1673ffffffffffffffffffffffffffffffffffffffff1663f340fa0182846040518363ffffffff167c0100000000000000000000000000000000000000000000000000000000028152600401808273ffffffffffffffffffffffffffffffffffffffff1673ffffffffffffffffffffffffffffffffffffffff1681526020019150506000604051808303818588803b15801561252c57600080fd5b505af1158015612540573d6000803e3d6000fd5b50505050505050565b60008260000160008373ffffffffffffffffffffffffffffffffffffffff1673ffffffffffffffffffffffffffffffffffffffff16815260200190815260200160002060006101000a81548160ff0219169083151502179055505050565b60018260000160008373ffffffffffffffffffffffffffffffffffffffff1673ffffffffffffffffffffffffffffffffffffffff16815260200190815260200160002060006101000a81548160ff0219169083151502179055505050565b81612645816040805190810160405280600981526020017f77686974656c6973740000000000000000000000000000000000000000000000815250610d78565b61264f8383612763565b505050565b600260009054906101000a900473ffffffffffffffffffffffffffffffffffffffff1673ffffffffffffffffffffffffffffffffffffffff166340c10f1983836040518363ffffffff167c0100000000000000000000000000000000000000000000000000000000028152600401808373ffffffffffffffffffffffffffffffffffffffff1673ffffffffffffffffffffffffffffffffffffffff16815260200182815260200192505050602060405180830381600087803b15801561271957600080fd5b505af115801561272d573d6000803e3d6000fd5b505050506040513d602081101561274357600080fd5b8101908080519060200190929190505050151561275f57600080fd5b5050565b600073ffffffffffffffffffffffffffffffffffffffff168273ffffffffffffffffffffffffffffffffffffffff161415151561279f57600080fd5b600081141515156127af57600080fd5b50505600a165627a7a7230582016697c88a44d9de3988d369dfe449e7797ce3e1dfdd2a9e8e79413f8c592584100296080604052336000806101000a81548173ffffffffffffffffffffffffffffffffffffffff021916908373ffffffffffffffffffffffffffffffffffffffff1602179055506107fe806100536000396000f300608060405260043610610078576000357c0100000000000000000000000000000000000000000000000000000000900463ffffffff16806351cff8d91461007d578063715018a6146100c05780638da5cb5b146100d7578063e3a9db1a1461012e578063f2fde38b14610185578063f340fa01146101c8575b600080fd5b34801561008957600080fd5b506100be600480360381019080803573ffffffffffffffffffffffffffffffffffffffff1690602001909291905050506101fe565b005b3480156100cc57600080fd5b506100d561039e565b005b3480156100e357600080fd5b506100ec6104a0565b604051808273ffffffffffffffffffffffffffffffffffffffff1673ffffffffffffffffffffffffffffffffffffffff16815260200191505060405180910390f35b34801561013a57600080fd5b5061016f600480360381019080803573ffffffffffffffffffffffffffffffffffffffff1690602001909291905050506104c5565b6040518082815260200191505060405180910390f35b34801561019157600080fd5b506101c6600480360381019080803573ffffffffffffffffffffffffffffffffffffffff16906020019092919050505061050e565b005b6101fc600480360381019080803573ffffffffffffffffffffffffffffffffffffffff169060200190929190505050610575565b005b60008060009054906101000a900473ffffffffffffffffffffffffffffffffffffffff1673ffffffffffffffffffffffffffffffffffffffff163373ffffffffffffffffffffffffffffffffffffffff1614151561025b57600080fd5b600160008373ffffffffffffffffffffffffffffffffffffffff1673ffffffffffffffffffffffffffffffffffffffff168152602001908152602001600020549050803073ffffffffffffffffffffffffffffffffffffffff1631101515156102c057fe5b6000600160008473ffffffffffffffffffffffffffffffffffffffff1673ffffffffffffffffffffffffffffffffffffffff168152602001908152602001600020819055508173ffffffffffffffffffffffffffffffffffffffff166108fc829081150290604051600060405180830381858888f1935050505015801561034b573d6000803e3d6000fd5b508173ffffffffffffffffffffffffffffffffffffffff167f7084f5476618d8e60b11ef0d7d3f06914655adb8793e28ff7f018d4c76d505d5826040518082815260200191505060405180910390a25050565b6000809054906101000a900473ffffffffffffffffffffffffffffffffffffffff1673ffffffffffffffffffffffffffffffffffffffff163373ffffffffffffffffffffffffffffffffffffffff161415156103f957600080fd5b6000809054906101000a900473ffffffffffffffffffffffffffffffffffffffff1673ffffffffffffffffffffffffffffffffffffffff167ff8df31144d9c2f0f6b59d69b8b98abd5459d07f2742c4df920b25aae33c6482060405160405180910390a260008060006101000a81548173ffffffffffffffffffffffffffffffffffffffff021916908373ffffffffffffffffffffffffffffffffffffffff160217905550565b6000809054906101000a900473ffffffffffffffffffffffffffffffffffffffff1681565b6000600160008373ffffffffffffffffffffffffffffffffffffffff1673ffffffffffffffffffffffffffffffffffffffff168152602001908152602001600020549050919050565b6000809054906101000a900473ffffffffffffffffffffffffffffffffffffffff1673ffffffffffffffffffffffffffffffffffffffff163373ffffffffffffffffffffffffffffffffffffffff1614151561056957600080fd5b610572816106bc565b50565b60008060009054906101000a900473ffffffffffffffffffffffffffffffffffffffff1673ffffffffffffffffffffffffffffffffffffffff163373ffffffffffffffffffffffffffffffffffffffff161415156105d257600080fd5b34905061062781600160008573ffffffffffffffffffffffffffffffffffffffff1673ffffffffffffffffffffffffffffffffffffffff168152602001908152602001600020546107b690919063ffffffff16565b600160008473ffffffffffffffffffffffffffffffffffffffff1673ffffffffffffffffffffffffffffffffffffffff168152602001908152602001600020819055508173ffffffffffffffffffffffffffffffffffffffff167f2da466a7b24304f47e87fa2e1e5a81b9831ce54fec19055ce277ca2f39ba42c4826040518082815260200191505060405180910390a25050565b600073ffffffffffffffffffffffffffffffffffffffff168173ffffffffffffffffffffffffffffffffffffffff16141515156106f857600080fd5b8073ffffffffffffffffffffffffffffffffffffffff166000809054906101000a900473ffffffffffffffffffffffffffffffffffffffff1673ffffffffffffffffffffffffffffffffffffffff167f8be0079c531659141344cd1fd0a4f28419497f9722a3daafe3b4186f6b6457e060405160405180910390a3806000806101000a81548173ffffffffffffffffffffffffffffffffffffffff021916908373ffffffffffffffffffffffffffffffffffffffff16021790555050565b600081830190508281101515156107c957fe5b809050929150505600a165627a7a72305820987473d936053510859dcbc7c2309fa0287f21c76a10429a1805928bc04aea970029",
  "source": "pragma solidity 0.4.24;\r\n\r\nimport \"./CWTPToken.sol\";\r\nimport \"openzeppelin-solidity/contracts/math/SafeMath.sol\";\r\nimport \"openzeppelin-solidity/contracts/crowdsale/emission/MintedCrowdsale.sol\";\r\nimport \"openzeppelin-solidity/contracts/crowdsale/validation/CappedCrowdsale.sol\";\r\nimport \"openzeppelin-solidity/contracts/crowdsale/validation/TimedCrowdsale.sol\";\r\nimport \"openzeppelin-solidity/contracts/crowdsale/validation/WhitelistedCrowdsale.sol\";\r\nimport \"openzeppelin-solidity/contracts/payment/PullPayment.sol\";\r\nimport \"openzeppelin-solidity/contracts/token/ERC20/CappedToken.sol\";\r\nimport \"./RBACWithAdmin.sol\";\r\n\r\ncontract CWTPTokenSale is WhitelistedCrowdsale, MintedCrowdsale, RBACWithAdmin, TimedCrowdsale, PullPayment {\r\n\r\n  using SafeMath for uint256;\r\n\r\n  struct FixedRate {\r\n    uint256 rate;\r\n    uint256 time;\r\n    uint256 amount;\r\n  }\r\n\r\n  string public constant ROLE_DAPP = \"dapp\";\r\n  string public constant ROLE_SRV = \"service\";\r\n\r\n  mapping(address => FixedRate) public fixRate;\r\n  uint256 public tokenCap;\r\n  uint256 public tokenSold;\r\n  FixedRate private _currentFRate;\r\n\r\n  constructor(uint256 _startTime, uint256 _endTime, address _wallet, CappedToken _tokenAddress) public\r\n    TimedCrowdsale(_startTime, _endTime)\r\n    Crowdsale(1, _wallet, _tokenAddress)\r\n  {\r\n    require(Ownable(_tokenAddress) != address(0));\r\n    tokenCap = _tokenAddress.cap();\r\n    tokenSold = _tokenAddress.totalSupply();\r\n\r\n    addRole(msg.sender, ROLE_DAPP);\r\n    addRole(msg.sender, ROLE_SRV);\r\n  }\r\n\r\n  function registerDappAddress(address _dappAddr) public onlyRole(ROLE_ADMIN) {\r\n    addRole(_dappAddr, ROLE_DAPP);\r\n  }\r\n\r\n/**\r\n   * @dev Checks whether the period in which the crowdsale is open has already elapsed.\r\n   * @return Whether crowdsale period has elapsed\r\n   */\r\n  function hasOpened() public view returns (bool) {\r\n    // solium-disable-next-line security/no-block-members\r\n    return block.timestamp >= openingTime && block.timestamp <= closingTime;\r\n  }\r\n\r\n  /**\r\n   * @dev add an address to the whitelist\r\n   * @param _operator address\r\n   * @return true if the address was added to the whitelist, false if the address was already in the whitelist\r\n   */\r\n  function addAddressToWhitelist(address _operator) public onlyRole(ROLE_DAPP)\r\n  {\r\n    require(block.timestamp <= closingTime);\r\n    addRole(_operator, ROLE_WHITELISTED);\r\n  }\r\n\r\n  function setRateForTransaction(uint256 newRate, address buyer, uint256 amount) public onlyIfWhitelisted(buyer) onlyRole(ROLE_DAPP) onlyWhileOpen\r\n  {\r\n    fixRate[buyer] = FixedRate(newRate, block.timestamp.add(15 minutes), amount);\r\n  }\r\n\r\n  /**\r\n   * @dev Checks whether the cap has been reached.\r\n   * @return Whether the cap was reached\r\n   */\r\n  function capReached() public view returns (bool) {\r\n    return tokenSold >= tokenCap;\r\n  }\r\n\r\n  /**\r\n   * @dev Extend parent behavior requiring beneficiary to be in fix rate list.\r\n   * @param _beneficiary Token beneficiary\r\n   * @param _weiAmount Amount of wei contributed\r\n   */\r\n  function _preValidatePurchase(\r\n    address _beneficiary,\r\n    uint256 _weiAmount\r\n  )\r\n    internal\r\n  {\r\n    require(fixRate[_beneficiary].time > block.timestamp);\r\n    require(_weiAmount >= fixRate[_beneficiary].amount);\r\n    _currentFRate = fixRate[_beneficiary];\r\n\r\n    super._preValidatePurchase(_beneficiary, _weiAmount);\r\n  }\r\n\r\n  /**\r\n   * @dev Override to extend the way in which ether is converted to tokens.\r\n   * @param _weiAmount Value in wei to be converted into tokens\r\n   * @return Number of tokens that can be purchased with the specified _weiAmount\r\n   */\r\n  function _getTokenAmount(uint256 _weiAmount)\r\n    internal view returns (uint256)\r\n  {\r\n    //_weiAmount\r\n\r\n    uint256 tokenAmount = _currentFRate.amount.mul(_currentFRate.rate).div(1 ether).mul(1 ether);\r\n    require(tokenSold.add(tokenAmount) <= tokenCap);\r\n    return tokenAmount;\r\n  }\r\n\r\n  /**\r\n   * @dev Executed when a purchase has been validated and is ready to be executed. Not necessarily emits/sends tokens.\r\n   * @param _beneficiary Address receiving the tokens\r\n   * @param _tokenAmount Number of tokens to be purchased\r\n   */\r\n  function _processPurchase(\r\n    address _beneficiary,\r\n    uint256 _tokenAmount\r\n  )\r\n    internal\r\n  {\r\n    tokenSold = tokenSold.add(_tokenAmount);\r\n    super._processPurchase(_beneficiary, _tokenAmount);\r\n  }\r\n\r\n\r\n  /**\r\n   * @dev Determines how ETH is stored/forwarded on purchases.\r\n   */\r\n  function _forwardFunds() internal {\r\n    uint256 refund = msg.value - _currentFRate.amount;\r\n    weiRaised.sub(refund); \r\n    wallet.transfer(_currentFRate.amount);\r\n    asyncTransfer(msg.sender, refund);\r\n  }\r\n\r\n  /**\r\n   * @dev Validation of an executed purchase. Observe state and use revert statements to undo rollback when valid conditions are not met.\r\n   * @param _beneficiary Address performing the token purchase\r\n   * @param _weiAmount Value in wei involved in the purchase\r\n   */\r\n  function _postValidatePurchase(\r\n    address _beneficiary,\r\n    uint256 _weiAmount\r\n  )\r\n    internal\r\n  {\r\n    fixRate[_beneficiary].time = block.timestamp;\r\n  }\r\n\r\n\r\n  /**\r\n   * @dev Allows the current owner to relinquish control of the contract.\r\n   * @notice Disable renounce ownership\r\n   */\r\n  function renounceOwnership() public onlyOwner {\r\n  }\r\n\r\n  function transferTokenOwnership() onlyAdmin private\r\n  {\r\n    // solium-disable-next-line security/no-block-members\r\n    require(hasClosed());\r\n    Ownable(token).transferOwnership(msg.sender);\r\n  }\r\n\r\n  function forceTransferTokenOwnership() onlyOwner private\r\n  {\r\n    // solium-disable-next-line security/no-block-members\r\n    Ownable(token).transferOwnership(msg.sender);\r\n  }\r\n\r\n  function CloseContract() onlyAdmin public {\r\n    require(hasClosed());\r\n    if(Ownable(token).owner() == address(this))\r\n      transferTokenOwnership();\r\n    selfdestruct(msg.sender);\r\n  }\r\n\r\n  function ForceCloseContract() onlyOwner public {\r\n    if(Ownable(token).owner() == address(this))\r\n      forceTransferTokenOwnership();\r\n    selfdestruct(msg.sender);\r\n  }\r\n}\r\n",
  "sourcePath": "C:\\Users\\mmaslich\\Documents\\GitHub\\cryptoworkplace.io\\res\\Etherium\\CWP\\contracts\\CWTPTokenSale.sol",
  "compiler": {
    "name": "solc",
    "version": "0.4.24+commit.e67f0147.Emscripten.clang"
  },
  "schemaVersion": "2.0.1",
  "updatedAt": "2018-10-01T12:02:22.598Z"
}