{
  "contractName": "CWTPTokenSale",
  "abi": [
    {
      "constant": true,
      "inputs": [
        {
          "name": "_operator",
          "type": "address"
        },
        {
          "name": "_role",
          "type": "string"
        }
      ],
      "name": "checkRole",
      "outputs": [],
      "payable": false,
      "stateMutability": "view",
      "type": "function"
    },
    {
      "constant": true,
      "inputs": [],
      "name": "hasClosed",
      "outputs": [
        {
          "name": "",
          "type": "bool"
        }
      ],
      "payable": false,
      "stateMutability": "view",
      "type": "function"
    },
    {
      "constant": true,
      "inputs": [],
      "name": "ROLE_WHITELISTED",
      "outputs": [
        {
          "name": "",
          "type": "string"
        }
      ],
      "payable": false,
      "stateMutability": "view",
      "type": "function"
    },
    {
      "constant": true,
      "inputs": [
        {
          "name": "_operator",
          "type": "address"
        },
        {
          "name": "_role",
          "type": "string"
        }
      ],
      "name": "hasRole",
      "outputs": [
        {
          "name": "",
          "type": "bool"
        }
      ],
      "payable": false,
      "stateMutability": "view",
      "type": "function"
    },
    {
      "constant": false,
      "inputs": [
        {
          "name": "_operators",
          "type": "address[]"
        }
      ],
      "name": "removeAddressesFromWhitelist",
      "outputs": [],
      "payable": false,
      "stateMutability": "nonpayable",
      "type": "function"
    },
    {
      "constant": false,
      "inputs": [
        {
          "name": "_operator",
          "type": "address"
        }
      ],
      "name": "removeAddressFromWhitelist",
      "outputs": [],
      "payable": false,
      "stateMutability": "nonpayable",
      "type": "function"
    },
    {
      "constant": true,
      "inputs": [],
      "name": "rate",
      "outputs": [
        {
          "name": "",
          "type": "uint256"
        }
      ],
      "payable": false,
      "stateMutability": "view",
      "type": "function"
    },
    {
      "constant": true,
      "inputs": [],
      "name": "weiRaised",
      "outputs": [
        {
          "name": "",
          "type": "uint256"
        }
      ],
      "payable": false,
      "stateMutability": "view",
      "type": "function"
    },
    {
      "constant": true,
      "inputs": [],
      "name": "ROLE_SRV",
      "outputs": [
        {
          "name": "",
          "type": "string"
        }
      ],
      "payable": false,
      "stateMutability": "view",
      "type": "function"
    },
    {
      "constant": true,
      "inputs": [],
      "name": "closingTime",
      "outputs": [
        {
          "name": "",
          "type": "uint256"
        }
      ],
      "payable": false,
      "stateMutability": "view",
      "type": "function"
    },
    {
      "constant": true,
      "inputs": [],
      "name": "ROLE_DAPP",
      "outputs": [
        {
          "name": "",
          "type": "string"
        }
      ],
      "payable": false,
      "stateMutability": "view",
      "type": "function"
    },
    {
      "constant": true,
      "inputs": [],
      "name": "wallet",
      "outputs": [
        {
          "name": "",
          "type": "address"
        }
      ],
      "payable": false,
      "stateMutability": "view",
      "type": "function"
    },
    {
      "constant": true,
      "inputs": [
        {
          "name": "",
          "type": "address"
        }
      ],
      "name": "fixRate",
      "outputs": [
        {
          "name": "rate",
          "type": "uint256"
        },
        {
          "name": "time",
          "type": "uint256"
        },
        {
          "name": "amount",
          "type": "uint256"
        }
      ],
      "payable": false,
      "stateMutability": "view",
      "type": "function"
    },
    {
      "constant": false,
      "inputs": [
        {
          "name": "addr",
          "type": "address"
        },
        {
          "name": "roleName",
          "type": "string"
        }
      ],
      "name": "adminRemoveRole",
      "outputs": [],
      "payable": false,
      "stateMutability": "nonpayable",
      "type": "function"
    },
    {
      "constant": true,
      "inputs": [],
      "name": "owner",
      "outputs": [
        {
          "name": "",
          "type": "address"
        }
      ],
      "payable": false,
      "stateMutability": "view",
      "type": "function"
    },
    {
      "constant": true,
      "inputs": [
        {
          "name": "_operator",
          "type": "address"
        }
      ],
      "name": "whitelist",
      "outputs": [
        {
          "name": "",
          "type": "bool"
        }
      ],
      "payable": false,
      "stateMutability": "view",
      "type": "function"
    },
    {
      "constant": false,
      "inputs": [
        {
          "name": "addr",
          "type": "address"
        },
        {
          "name": "roleName",
          "type": "string"
        }
      ],
      "name": "adminAddRole",
      "outputs": [],
      "payable": false,
      "stateMutability": "nonpayable",
      "type": "function"
    },
    {
      "constant": true,
      "inputs": [],
      "name": "openingTime",
      "outputs": [
        {
          "name": "",
          "type": "uint256"
        }
      ],
      "payable": false,
      "stateMutability": "view",
      "type": "function"
    },
    {
      "constant": true,
      "inputs": [],
      "name": "ROLE_ADMIN",
      "outputs": [
        {
          "name": "",
          "type": "string"
        }
      ],
      "payable": false,
      "stateMutability": "view",
      "type": "function"
    },
    {
      "constant": false,
      "inputs": [
        {
          "name": "_operators",
          "type": "address[]"
        }
      ],
      "name": "addAddressesToWhitelist",
      "outputs": [],
      "payable": false,
      "stateMutability": "nonpayable",
      "type": "function"
    },
    {
      "constant": false,
      "inputs": [
        {
          "name": "_beneficiary",
          "type": "address"
        }
      ],
      "name": "buyTokens",
      "outputs": [],
      "payable": true,
      "stateMutability": "payable",
      "type": "function"
    },
    {
      "constant": false,
      "inputs": [
        {
          "name": "_newOwner",
          "type": "address"
        }
      ],
      "name": "transferOwnership",
      "outputs": [],
      "payable": false,
      "stateMutability": "nonpayable",
      "type": "function"
    },
    {
      "constant": true,
      "inputs": [],
      "name": "token",
      "outputs": [
        {
          "name": "",
          "type": "address"
        }
      ],
      "payable": false,
      "stateMutability": "view",
      "type": "function"
    },
    {
      "inputs": [
        {
          "name": "_startTime",
          "type": "uint256"
        },
        {
          "name": "_endTime",
          "type": "uint256"
        },
        {
          "name": "_wallet",
          "type": "address"
        },
        {
          "name": "_tokenAddress",
          "type": "address"
        }
      ],
      "payable": false,
      "stateMutability": "nonpayable",
      "type": "constructor"
    },
    {
      "payable": true,
      "stateMutability": "payable",
      "type": "fallback"
    },
    {
      "anonymous": false,
      "inputs": [
        {
          "indexed": true,
          "name": "purchaser",
          "type": "address"
        },
        {
          "indexed": true,
          "name": "beneficiary",
          "type": "address"
        },
        {
          "indexed": false,
          "name": "value",
          "type": "uint256"
        },
        {
          "indexed": false,
          "name": "amount",
          "type": "uint256"
        }
      ],
      "name": "TokenPurchase",
      "type": "event"
    },
    {
      "anonymous": false,
      "inputs": [
        {
          "indexed": true,
          "name": "operator",
          "type": "address"
        },
        {
          "indexed": false,
          "name": "role",
          "type": "string"
        }
      ],
      "name": "RoleAdded",
      "type": "event"
    },
    {
      "anonymous": false,
      "inputs": [
        {
          "indexed": true,
          "name": "operator",
          "type": "address"
        },
        {
          "indexed": false,
          "name": "role",
          "type": "string"
        }
      ],
      "name": "RoleRemoved",
      "type": "event"
    },
    {
      "anonymous": false,
      "inputs": [
        {
          "indexed": true,
          "name": "previousOwner",
          "type": "address"
        }
      ],
      "name": "OwnershipRenounced",
      "type": "event"
    },
    {
      "anonymous": false,
      "inputs": [
        {
          "indexed": true,
          "name": "previousOwner",
          "type": "address"
        },
        {
          "indexed": true,
          "name": "newOwner",
          "type": "address"
        }
      ],
      "name": "OwnershipTransferred",
      "type": "event"
    },
    {
      "constant": false,
      "inputs": [
        {
          "name": "_dappAddr",
          "type": "address"
        }
      ],
      "name": "registerDappAddress",
      "outputs": [],
      "payable": false,
      "stateMutability": "nonpayable",
      "type": "function"
    },
    {
      "constant": true,
      "inputs": [],
      "name": "hasOpened",
      "outputs": [
        {
          "name": "",
          "type": "bool"
        }
      ],
      "payable": false,
      "stateMutability": "view",
      "type": "function"
    },
    {
      "constant": false,
      "inputs": [
        {
          "name": "_operator",
          "type": "address"
        }
      ],
      "name": "addAddressToWhitelist",
      "outputs": [],
      "payable": false,
      "stateMutability": "nonpayable",
      "type": "function"
    },
    {
      "constant": false,
      "inputs": [
        {
          "name": "newRate",
          "type": "uint256"
        },
        {
          "name": "buyer",
          "type": "address"
        },
        {
          "name": "amount",
          "type": "uint256"
        }
      ],
      "name": "setRateForTransaction",
      "outputs": [],
      "payable": false,
      "stateMutability": "nonpayable",
      "type": "function"
    },
    {
      "constant": true,
      "inputs": [],
      "name": "capReached",
      "outputs": [
        {
          "name": "",
          "type": "bool"
        }
      ],
      "payable": false,
      "stateMutability": "view",
      "type": "function"
    },
    {
      "constant": false,
      "inputs": [],
      "name": "renounceOwnership",
      "outputs": [],
      "payable": false,
      "stateMutability": "nonpayable",
      "type": "function"
    },
    {
      "constant": false,
      "inputs": [],
      "name": "transferTokenOwnership",
      "outputs": [],
      "payable": false,
      "stateMutability": "nonpayable",
      "type": "function"
    },
    {
      "constant": false,
      "inputs": [],
      "name": "CloseContract",
      "outputs": [],
      "payable": false,
      "stateMutability": "nonpayable",
      "type": "function"
    },
    {
      "constant": false,
      "inputs": [],
      "name": "ForceCloseContract",
      "outputs": [],
      "payable": false,
      "stateMutability": "nonpayable",
      "type": "function"
    }
  ],
  "bytecode": "0x60806040523480156200001157600080fd5b506040516080806200285683398101806040528101908080519060200190929190805190602001909291908051906020019092919080519060200190929190505050838360018484336000806101000a81548173ffffffffffffffffffffffffffffffffffffffff021916908373ffffffffffffffffffffffffffffffffffffffff160217905550600083111515620000a957600080fd5b600073ffffffffffffffffffffffffffffffffffffffff168273ffffffffffffffffffffffffffffffffffffffff1614151515620000e657600080fd5b600073ffffffffffffffffffffffffffffffffffffffff168173ffffffffffffffffffffffffffffffffffffffff16141515156200012357600080fd5b8260048190555081600360006101000a81548173ffffffffffffffffffffffffffffffffffffffff021916908373ffffffffffffffffffffffffffffffffffffffff16021790555080600260006101000a81548173ffffffffffffffffffffffffffffffffffffffff021916908373ffffffffffffffffffffffffffffffffffffffff160217905550505050620001ff336040805190810160405280600581526020017f61646d696e00000000000000000000000000000000000000000000000000000081525062000461640100000000026401000000009004565b4282101515156200020f57600080fd5b8181101515156200021f57600080fd5b81600681905550806007819055505050600073ffffffffffffffffffffffffffffffffffffffff168173ffffffffffffffffffffffffffffffffffffffff16141515156200026c57600080fd5b8073ffffffffffffffffffffffffffffffffffffffff166318160ddd6040518163ffffffff167c0100000000000000000000000000000000000000000000000000000000028152600401602060405180830381600087803b158015620002d157600080fd5b505af1158015620002e6573d6000803e3d6000fd5b505050506040513d6020811015620002fd57600080fd5b81019080805190602001909291905050508173ffffffffffffffffffffffffffffffffffffffff1663355274ea6040518163ffffffff167c0100000000000000000000000000000000000000000000000000000000028152600401602060405180830381600087803b1580156200037357600080fd5b505af115801562000388573d6000803e3d6000fd5b505050506040513d60208110156200039f57600080fd5b81019080805190602001909291905050500360098190555062000407336040805190810160405280600481526020017f646170700000000000000000000000000000000000000000000000000000000081525062000461640100000000026401000000009004565b62000457336040805190810160405280600781526020017f736572766963650000000000000000000000000000000000000000000000000081525062000461640100000000026401000000009004565b5050505062000608565b620004f0826001836040518082805190602001908083835b602083101515620004a0578051825260208201915060208101905060208303925062000479565b6001836020036101000a0380198251168184511680821785525050505050509050019150509081526020016040518091039020620005aa6401000000000262002115179091906401000000009004565b8173ffffffffffffffffffffffffffffffffffffffff167fbfec83d64eaa953f2708271a023ab9ee82057f8f3578d548c1a4ba0b5b700489826040518080602001828103825283818151815260200191508051906020019080838360005b838110156200056b5780820151818401526020810190506200054e565b50505050905090810190601f168015620005995780820380516001836020036101000a031916815260200191505b509250505060405180910390a25050565b60018260000160008373ffffffffffffffffffffffffffffffffffffffff1673ffffffffffffffffffffffffffffffffffffffff16815260200190815260200160002060006101000a81548160ff0219169083151502179055505050565b61223e80620006186000396000f300608060405260043610610196576000357c0100000000000000000000000000000000000000000000000000000000900463ffffffff1680630988ca8c146101a15780631515bc2b1461022a57806318b919e914610259578063217fe6c6146102e957806324953eaa1461038a5780632675c123146103f0578063286dd3f5146104075780632c4e722e1461044a5780632f591a6a146104755780634042b66f146104cc5780634056675e146104f757806341df5b741461050e5780634b6753bc1461059e5780634f935945146105c957806351a0daf9146105f8578063521eb27314610688578063626a9198146106df578063715018a6146107445780637b9417c81461075b57806383b8b9f01461079e57806388cee87e146107b55780638da5cb5b1461083e5780639b19251a14610895578063b25fa92c146108f0578063b7a8807c14610979578063be8eef8e146109a4578063d391014b146109d3578063d93debd514610a63578063e2ec6ec314610aa6578063ec8ac4d814610b0c578063f2fde38b14610b42578063fc0c546a14610b85575b61019f33610bdc565b005b3480156101ad57600080fd5b50610228600480360381019080803573ffffffffffffffffffffffffffffffffffffffff169060200190929190803590602001908201803590602001908080601f0160208091040260200160405190810160405280939291908181526020018383808284378201915050505050509192919290505050610caa565b005b34801561023657600080fd5b5061023f610d2b565b604051808215151515815260200191505060405180910390f35b34801561026557600080fd5b5061026e610d37565b6040518080602001828103825283818151815260200191508051906020019080838360005b838110156102ae578082015181840152602081019050610293565b50505050905090810190601f1680156102db5780820380516001836020036101000a031916815260200191505b509250505060405180910390f35b3480156102f557600080fd5b50610370600480360381019080803573ffffffffffffffffffffffffffffffffffffffff169060200190929190803590602001908201803590602001908080601f0160208091040260200160405190810160405280939291908181526020018383808284378201915050505050509192919290505050610d70565b604051808215151515815260200191505060405180910390f35b34801561039657600080fd5b506103ee60048036038101908080359060200190820180359060200190808060200260200160405190810160405280939291908181526020018383602002808284378201915050505050509192919290505050610df7565b005b3480156103fc57600080fd5b50610405610e93565b005b34801561041357600080fd5b50610448600480360381019080803573ffffffffffffffffffffffffffffffffffffffff169060200190929190505050610ffb565b005b34801561045657600080fd5b5061045f611098565b6040518082815260200191505060405180910390f35b34801561048157600080fd5b506104ca60048036038101908080359060200190929190803573ffffffffffffffffffffffffffffffffffffffff1690602001909291908035906020019092919050505061109e565b005b3480156104d857600080fd5b506104e16111d4565b6040518082815260200191505060405180910390f35b34801561050357600080fd5b5061050c6111da565b005b34801561051a57600080fd5b50610523611303565b6040518080602001828103825283818151815260200191508051906020019080838360005b83811015610563578082015181840152602081019050610548565b50505050905090810190601f1680156105905780820380516001836020036101000a031916815260200191505b509250505060405180910390f35b3480156105aa57600080fd5b506105b361133c565b6040518082815260200191505060405180910390f35b3480156105d557600080fd5b506105de611342565b604051808215151515815260200191505060405180910390f35b34801561060457600080fd5b5061060d611351565b6040518080602001828103825283818151815260200191508051906020019080838360005b8381101561064d578082015181840152602081019050610632565b50505050905090810190601f16801561067a5780820380516001836020036101000a031916815260200191505b509250505060405180910390f35b34801561069457600080fd5b5061069d61138a565b604051808273ffffffffffffffffffffffffffffffffffffffff1673ffffffffffffffffffffffffffffffffffffffff16815260200191505060405180910390f35b3480156106eb57600080fd5b50610720600480360381019080803573ffffffffffffffffffffffffffffffffffffffff1690602001909291905050506113b0565b60405180848152602001838152602001828152602001935050505060405180910390f35b34801561075057600080fd5b506107596113da565b005b34801561076757600080fd5b5061079c600480360381019080803573ffffffffffffffffffffffffffffffffffffffff169060200190929190505050611437565b005b3480156107aa57600080fd5b506107b36114cb565b005b3480156107c157600080fd5b5061083c600480360381019080803573ffffffffffffffffffffffffffffffffffffffff169060200190929190803590602001908201803590602001908080601f016020809104026020016040519081016040528093929190818152602001838380828437820191505050505050919291929050505061163c565b005b34801561084a57600080fd5b50610853611689565b604051808273ffffffffffffffffffffffffffffffffffffffff1673ffffffffffffffffffffffffffffffffffffffff16815260200191505060405180910390f35b3480156108a157600080fd5b506108d6600480360381019080803573ffffffffffffffffffffffffffffffffffffffff1690602001909291905050506116ae565b604051808215151515815260200191505060405180910390f35b3480156108fc57600080fd5b50610977600480360381019080803573ffffffffffffffffffffffffffffffffffffffff169060200190929190803590602001908201803590602001908080601f01602080910402602001604051908101604052809392919081815260200183838082843782019150505050505091929192905050506116f6565b005b34801561098557600080fd5b5061098e611743565b6040518082815260200191505060405180910390f35b3480156109b057600080fd5b506109b9611749565b604051808215151515815260200191505060405180910390f35b3480156109df57600080fd5b506109e8611764565b6040518080602001828103825283818151815260200191508051906020019080838360005b83811015610a28578082015181840152602081019050610a0d565b50505050905090810190601f168015610a555780820380516001836020036101000a031916815260200191505b509250505060405180910390f35b348015610a6f57600080fd5b50610aa4600480360381019080803573ffffffffffffffffffffffffffffffffffffffff16906020019092919050505061179d565b005b348015610ab257600080fd5b50610b0a60048036038101908080359060200190820180359060200190808060200260200160405190810160405280939291908181526020018383602002808284378201915050505050509192919290505050611820565b005b610b40600480360381019080803573ffffffffffffffffffffffffffffffffffffffff169060200190929190505050610bdc565b005b348015610b4e57600080fd5b50610b83600480360381019080803573ffffffffffffffffffffffffffffffffffffffff1690602001909291905050506118bc565b005b348015610b9157600080fd5b50610b9a611923565b604051808273ffffffffffffffffffffffffffffffffffffffff1673ffffffffffffffffffffffffffffffffffffffff16815260200191505060405180910390f35b600080349150610bec8383611949565b610bf582611a40565b9050610c0c82600554611abc90919063ffffffff16565b600581905550610c1c8382611ad8565b8273ffffffffffffffffffffffffffffffffffffffff163373ffffffffffffffffffffffffffffffffffffffff167f623b3804fa71d67900d064613da8f94b9617215ee90799290593e1745087ad188484604051808381526020018281526020019250505060405180910390a3610c938383611ae6565b610c9b611aea565b610ca58383611b55565b505050565b610d27826001836040518082805190602001908083835b602083101515610ce65780518252602082019150602081019050602083039250610cc1565b6001836020036101000a0380198251168184511680821785525050505050509050019150509081526020016040518091039020611b5990919063ffffffff16565b5050565b60006007544211905090565b6040805190810160405280600981526020017f77686974656c697374000000000000000000000000000000000000000000000081525081565b6000610def836001846040518082805190602001908083835b602083101515610dae5780518252602082019150602081019050602083039250610d89565b6001836020036101000a0380198251168184511680821785525050505050509050019150509081526020016040518091039020611b7290919063ffffffff16565b905092915050565b60008060009054906101000a900473ffffffffffffffffffffffffffffffffffffffff1673ffffffffffffffffffffffffffffffffffffffff163373ffffffffffffffffffffffffffffffffffffffff16141515610e5457600080fd5b600090505b8151811015610e8f57610e828282815181101515610e7357fe5b90602001906020020151610ffb565b8080600101915050610e59565b5050565b610ed2336040805190810160405280600581526020017f61646d696e000000000000000000000000000000000000000000000000000000815250610caa565b610eda610d2b565b1515610ee557600080fd5b3073ffffffffffffffffffffffffffffffffffffffff16600260009054906101000a900473ffffffffffffffffffffffffffffffffffffffff1673ffffffffffffffffffffffffffffffffffffffff16638da5cb5b6040518163ffffffff167c0100000000000000000000000000000000000000000000000000000000028152600401602060405180830381600087803b158015610f8257600080fd5b505af1158015610f96573d6000803e3d6000fd5b505050506040513d6020811015610fac57600080fd5b810190808051906020019092919050505073ffffffffffffffffffffffffffffffffffffffff161415610fe257610fe16111da565b5b3373ffffffffffffffffffffffffffffffffffffffff16ff5b6000809054906101000a900473ffffffffffffffffffffffffffffffffffffffff1673ffffffffffffffffffffffffffffffffffffffff163373ffffffffffffffffffffffffffffffffffffffff1614151561105657600080fd5b611095816040805190810160405280600981526020017f77686974656c6973740000000000000000000000000000000000000000000000815250611bcb565b50565b60045481565b816110de816040805190810160405280600981526020017f77686974656c6973740000000000000000000000000000000000000000000000815250610caa565b6040805190810160405280600481526020017f646170700000000000000000000000000000000000000000000000000000000081525061111e3382610caa565b600654421015801561113257506007544211155b151561113d57600080fd5b60606040519081016040528086815260200161116461038442611abc90919063ffffffff16565b815260200184815250600860008673ffffffffffffffffffffffffffffffffffffffff1673ffffffffffffffffffffffffffffffffffffffff1681526020019081526020016000206000820151816000015560208201518160010155604082015181600201559050505050505050565b60055481565b611219336040805190810160405280600581526020017f61646d696e000000000000000000000000000000000000000000000000000000815250610caa565b611221610d2b565b151561122c57600080fd5b600260009054906101000a900473ffffffffffffffffffffffffffffffffffffffff1673ffffffffffffffffffffffffffffffffffffffff1663f2fde38b336040518263ffffffff167c0100000000000000000000000000000000000000000000000000000000028152600401808273ffffffffffffffffffffffffffffffffffffffff1673ffffffffffffffffffffffffffffffffffffffff168152602001915050600060405180830381600087803b1580156112e957600080fd5b505af11580156112fd573d6000803e3d6000fd5b50505050565b6040805190810160405280600781526020017f736572766963650000000000000000000000000000000000000000000000000081525081565b60075481565b6000600954600a541015905090565b6040805190810160405280600481526020017f646170700000000000000000000000000000000000000000000000000000000081525081565b600360009054906101000a900473ffffffffffffffffffffffffffffffffffffffff1681565b60086020528060005260406000206000915090508060000154908060010154908060020154905083565b6000809054906101000a900473ffffffffffffffffffffffffffffffffffffffff1673ffffffffffffffffffffffffffffffffffffffff163373ffffffffffffffffffffffffffffffffffffffff1614151561143557600080fd5b565b6040805190810160405280600481526020017f64617070000000000000000000000000000000000000000000000000000000008152506114773382610caa565b600754421115151561148857600080fd5b6114c7826040805190810160405280600981526020017f77686974656c6973740000000000000000000000000000000000000000000000815250611cff565b5050565b6000809054906101000a900473ffffffffffffffffffffffffffffffffffffffff1673ffffffffffffffffffffffffffffffffffffffff163373ffffffffffffffffffffffffffffffffffffffff1614151561152657600080fd5b3073ffffffffffffffffffffffffffffffffffffffff16600260009054906101000a900473ffffffffffffffffffffffffffffffffffffffff1673ffffffffffffffffffffffffffffffffffffffff16638da5cb5b6040518163ffffffff167c0100000000000000000000000000000000000000000000000000000000028152600401602060405180830381600087803b1580156115c357600080fd5b505af11580156115d7573d6000803e3d6000fd5b505050506040513d60208110156115ed57600080fd5b810190808051906020019092919050505073ffffffffffffffffffffffffffffffffffffffff161415611623576116226111da565b5b3373ffffffffffffffffffffffffffffffffffffffff16ff5b61167b336040805190810160405280600581526020017f61646d696e000000000000000000000000000000000000000000000000000000815250610caa565b6116858282611bcb565b5050565b6000809054906101000a900473ffffffffffffffffffffffffffffffffffffffff1681565b60006116ef826040805190810160405280600981526020017f77686974656c6973740000000000000000000000000000000000000000000000815250610d70565b9050919050565b611735336040805190810160405280600581526020017f61646d696e000000000000000000000000000000000000000000000000000000815250610caa565b61173f8282611cff565b5050565b60065481565b6000600654421015801561175f57506007544211155b905090565b6040805190810160405280600581526020017f61646d696e00000000000000000000000000000000000000000000000000000081525081565b6040805190810160405280600581526020017f61646d696e0000000000000000000000000000000000000000000000000000008152506117dd3382610caa565b61181c826040805190810160405280600481526020017f6461707000000000000000000000000000000000000000000000000000000000815250611cff565b5050565b60008060009054906101000a900473ffffffffffffffffffffffffffffffffffffffff1673ffffffffffffffffffffffffffffffffffffffff163373ffffffffffffffffffffffffffffffffffffffff1614151561187d57600080fd5b600090505b81518110156118b8576118ab828281518110151561189c57fe5b90602001906020020151611437565b8080600101915050611882565b5050565b6000809054906101000a900473ffffffffffffffffffffffffffffffffffffffff1673ffffffffffffffffffffffffffffffffffffffff163373ffffffffffffffffffffffffffffffffffffffff1614151561191757600080fd5b61192081611e33565b50565b600260009054906101000a900473ffffffffffffffffffffffffffffffffffffffff1681565b42600860008473ffffffffffffffffffffffffffffffffffffffff1673ffffffffffffffffffffffffffffffffffffffff1681526020019081526020016000206001015411151561199957600080fd5b80600860008473ffffffffffffffffffffffffffffffffffffffff1673ffffffffffffffffffffffffffffffffffffffff168152602001908152602001600020600201541415156119e957600080fd5b600860008373ffffffffffffffffffffffffffffffffffffffff1673ffffffffffffffffffffffffffffffffffffffff16815260200190815260200160002060000154600481905550611a3c8282611f2d565b5050565b600080611a8c670de0b6b3a7640000611a7e670de0b6b3a7640000611a7060045488611f5a90919063ffffffff16565b611f9290919063ffffffff16565b611f5a90919063ffffffff16565b9050600954611aa682600a54611abc90919063ffffffff16565b11151515611ab357600080fd5b80915050919050565b60008183019050828110151515611acf57fe5b80905092915050565b611ae28282611fa8565b5050565b5050565b600360009054906101000a900473ffffffffffffffffffffffffffffffffffffffff1673ffffffffffffffffffffffffffffffffffffffff166108fc349081150290604051600060405180830381858888f19350505050158015611b52573d6000803e3d6000fd5b50565b5050565b611b638282611b72565b1515611b6e57600080fd5b5050565b60008260000160008373ffffffffffffffffffffffffffffffffffffffff1673ffffffffffffffffffffffffffffffffffffffff16815260200190815260200160002060009054906101000a900460ff16905092915050565b611c48826001836040518082805190602001908083835b602083101515611c075780518252602082019150602081019050602083039250611be2565b6001836020036101000a03801982511681845116808217855250505050505090500191505090815260200160405180910390206120b790919063ffffffff16565b8173ffffffffffffffffffffffffffffffffffffffff167fd211483f91fc6eff862467f8de606587a30c8fc9981056f051b897a418df803a826040518080602001828103825283818151815260200191508051906020019080838360005b83811015611cc1578082015181840152602081019050611ca6565b50505050905090810190601f168015611cee5780820380516001836020036101000a031916815260200191505b509250505060405180910390a25050565b611d7c826001836040518082805190602001908083835b602083101515611d3b5780518252602082019150602081019050602083039250611d16565b6001836020036101000a038019825116818451168082178552505050505050905001915050908152602001604051809103902061211590919063ffffffff16565b8173ffffffffffffffffffffffffffffffffffffffff167fbfec83d64eaa953f2708271a023ab9ee82057f8f3578d548c1a4ba0b5b700489826040518080602001828103825283818151815260200191508051906020019080838360005b83811015611df5578082015181840152602081019050611dda565b50505050905090810190601f168015611e225780820380516001836020036101000a031916815260200191505b509250505060405180910390a25050565b600073ffffffffffffffffffffffffffffffffffffffff168173ffffffffffffffffffffffffffffffffffffffff1614151515611e6f57600080fd5b8073ffffffffffffffffffffffffffffffffffffffff166000809054906101000a900473ffffffffffffffffffffffffffffffffffffffff1673ffffffffffffffffffffffffffffffffffffffff167f8be0079c531659141344cd1fd0a4f28419497f9722a3daafe3b4186f6b6457e060405160405180910390a3806000806101000a81548173ffffffffffffffffffffffffffffffffffffffff021916908373ffffffffffffffffffffffffffffffffffffffff16021790555050565b6006544210158015611f4157506007544211155b1515611f4c57600080fd5b611f568282612173565b5050565b600080831415611f6d5760009050611f8c565b8183029050818382811515611f7e57fe5b04141515611f8857fe5b8090505b92915050565b60008183811515611f9f57fe5b04905092915050565b600260009054906101000a900473ffffffffffffffffffffffffffffffffffffffff1673ffffffffffffffffffffffffffffffffffffffff166340c10f1983836040518363ffffffff167c0100000000000000000000000000000000000000000000000000000000028152600401808373ffffffffffffffffffffffffffffffffffffffff1673ffffffffffffffffffffffffffffffffffffffff16815260200182815260200192505050602060405180830381600087803b15801561206d57600080fd5b505af1158015612081573d6000803e3d6000fd5b505050506040513d602081101561209757600080fd5b810190808051906020019092919050505015156120b357600080fd5b5050565b60008260000160008373ffffffffffffffffffffffffffffffffffffffff1673ffffffffffffffffffffffffffffffffffffffff16815260200190815260200160002060006101000a81548160ff0219169083151502179055505050565b60018260000160008373ffffffffffffffffffffffffffffffffffffffff1673ffffffffffffffffffffffffffffffffffffffff16815260200190815260200160002060006101000a81548160ff0219169083151502179055505050565b816121b3816040805190810160405280600981526020017f77686974656c6973740000000000000000000000000000000000000000000000815250610caa565b6121bd83836121c2565b505050565b600073ffffffffffffffffffffffffffffffffffffffff168273ffffffffffffffffffffffffffffffffffffffff16141515156121fe57600080fd5b6000811415151561220e57600080fd5b50505600a165627a7a72305820f2bb4df5b2ed3696641cf5b13cda7f6c6da9975e6537094ddf4c12b00232b2ed0029",
  "source": "pragma solidity 0.4.24;\r\n\r\nimport \"./CWTPToken.sol\";\r\nimport \"openzeppelin-solidity/contracts/math/SafeMath.sol\";\r\nimport \"openzeppelin-solidity/contracts/crowdsale/emission/MintedCrowdsale.sol\";\r\nimport \"openzeppelin-solidity/contracts/crowdsale/validation/CappedCrowdsale.sol\";\r\nimport \"openzeppelin-solidity/contracts/crowdsale/validation/TimedCrowdsale.sol\";\r\nimport \"openzeppelin-solidity/contracts/crowdsale/validation/WhitelistedCrowdsale.sol\";\r\nimport \"openzeppelin-solidity/contracts/token/ERC20/CappedToken.sol\";\r\nimport \"./RBACWithAdmin.sol\";\r\n\r\ncontract CWTPTokenSale is WhitelistedCrowdsale, MintedCrowdsale, RBACWithAdmin, TimedCrowdsale {\r\n\r\n  using SafeMath for uint256;\r\n\r\n  struct FixedRate {\r\n    uint256 rate;\r\n    uint256 time;\r\n    uint256 amount;\r\n  }\r\n\r\n  string public constant ROLE_DAPP = \"dapp\";\r\n  string public constant ROLE_SRV = \"service\";\r\n\r\n  mapping(address => FixedRate) public fixRate;\r\n  uint256 private _tokenCap;\r\n  uint256 private _tokenSold;\r\n\r\n  constructor(uint256 _startTime, uint256 _endTime, address _wallet, CappedToken _tokenAddress) public\r\n    TimedCrowdsale(_startTime, _endTime)\r\n    Crowdsale(1, _wallet, _tokenAddress)\r\n  {\r\n    require(Ownable(_tokenAddress) != address(0));\r\n    _tokenCap = _tokenAddress.cap() - _tokenAddress.totalSupply();\r\n\r\n    addRole(msg.sender, ROLE_DAPP);\r\n    addRole(msg.sender, ROLE_SRV);\r\n  }\r\n\r\n  function registerDappAddress(address _dappAddr) public onlyRole(ROLE_ADMIN) {\r\n    addRole(_dappAddr, ROLE_DAPP);\r\n  }\r\n\r\n/**\r\n   * @dev Checks whether the period in which the crowdsale is open has already elapsed.\r\n   * @return Whether crowdsale period has elapsed\r\n   */\r\n  function hasOpened() public view returns (bool) {\r\n    // solium-disable-next-line security/no-block-members\r\n    return block.timestamp >= openingTime && block.timestamp <= closingTime;\r\n  }\r\n\r\n  /**\r\n   * @dev add an address to the whitelist\r\n   * @param _operator address\r\n   * @return true if the address was added to the whitelist, false if the address was already in the whitelist\r\n   */\r\n  function addAddressToWhitelist(address _operator) public onlyRole(ROLE_DAPP)\r\n  {\r\n    require(block.timestamp <= closingTime);\r\n    addRole(_operator, ROLE_WHITELISTED);\r\n  }\r\n\r\n  function setRateForTransaction(uint256 newRate, address buyer, uint256 amount) public onlyIfWhitelisted(buyer) onlyRole(ROLE_DAPP) onlyWhileOpen\r\n  {\r\n    fixRate[buyer] = FixedRate(newRate, block.timestamp.add(15 minutes), amount);\r\n  }\r\n\r\n  /**\r\n   * @dev Checks whether the cap has been reached.\r\n   * @return Whether the cap was reached\r\n   */\r\n  function capReached() public view returns (bool) {\r\n    return _tokenSold >= _tokenCap;\r\n  }\r\n\r\n  /**\r\n   * @dev Extend parent behavior requiring beneficiary to be in fix rate list.\r\n   * @param _beneficiary Token beneficiary\r\n   * @param _weiAmount Amount of wei contributed\r\n   */\r\n  function _preValidatePurchase(\r\n    address _beneficiary,\r\n    uint256 _weiAmount\r\n  )\r\n    internal\r\n  {\r\n    require(fixRate[_beneficiary].time > block.timestamp);\r\n    require(fixRate[_beneficiary].amount == _weiAmount);\r\n    rate = fixRate[_beneficiary].rate;\r\n\r\n    super._preValidatePurchase(_beneficiary, _weiAmount);\r\n  }\r\n\r\n  /**\r\n   * @dev Override to extend the way in which ether is converted to tokens.\r\n   * @param _weiAmount Value in wei to be converted into tokens\r\n   * @return Number of tokens that can be purchased with the specified _weiAmount\r\n   */\r\n  function _getTokenAmount(uint256 _weiAmount)\r\n    internal view returns (uint256)\r\n  {\r\n    uint256 tokenAmount = _weiAmount.mul(rate).div(1 ether).mul(1 ether);\r\n    require(_tokenSold.add(tokenAmount) <= _tokenCap);\r\n    return tokenAmount;\r\n  }\r\n\r\n\r\n  /**\r\n   * @dev Allows the current owner to relinquish control of the contract.\r\n   * @notice Disable renounce ownership\r\n   */\r\n  function renounceOwnership() public onlyOwner {\r\n  }\r\n\r\n  function transferTokenOwnership() onlyAdmin public\r\n  {\r\n    // solium-disable-next-line security/no-block-members\r\n    require(hasClosed());\r\n    Ownable(token).transferOwnership(msg.sender);\r\n  }\r\n\r\n  function CloseContract() onlyAdmin public {\r\n    require(hasClosed());\r\n    if(Ownable(token).owner() == address(this))\r\n      transferTokenOwnership();\r\n    selfdestruct(msg.sender);\r\n  }\r\n\r\n  function ForceCloseContract() onlyOwner public {\r\n    if(Ownable(token).owner() == address(this))\r\n      transferTokenOwnership();\r\n    selfdestruct(msg.sender);\r\n  }\r\n}\r\n",
  "sourcePath": "C:\\Users\\mmaslich\\Documents\\GitHub\\cryptoworkplace.io\\res\\Etherium\\CWP\\contracts\\CWTPTokenSale.sol",
  "compiler": {
    "name": "solc",
    "version": "0.4.24+commit.e67f0147.Emscripten.clang"
  },
  "schemaVersion": "2.0.1",
  "updatedAt": "2018-09-30T12:31:38.179Z"
}