{
  "contractName": "CWTPTokenSale",
  "abi": [
    {
      "constant": true,
      "inputs": [
        {
          "name": "addr",
          "type": "address"
        },
        {
          "name": "roleName",
          "type": "string"
        }
      ],
      "name": "checkRole",
      "outputs": [],
      "payable": false,
      "stateMutability": "view",
      "type": "function"
    },
    {
      "constant": true,
      "inputs": [],
      "name": "hasClosed",
      "outputs": [
        {
          "name": "",
          "type": "bool"
        }
      ],
      "payable": false,
      "stateMutability": "view",
      "type": "function"
    },
    {
      "constant": true,
      "inputs": [],
      "name": "getCurrentStep",
      "outputs": [
        {
          "name": "",
          "type": "uint8"
        }
      ],
      "payable": false,
      "stateMutability": "view",
      "type": "function"
    },
    {
      "constant": true,
      "inputs": [
        {
          "name": "addr",
          "type": "address"
        },
        {
          "name": "roleName",
          "type": "string"
        }
      ],
      "name": "hasRole",
      "outputs": [
        {
          "name": "",
          "type": "bool"
        }
      ],
      "payable": false,
      "stateMutability": "view",
      "type": "function"
    },
    {
      "constant": true,
      "inputs": [
        {
          "name": "_step",
          "type": "uint8"
        }
      ],
      "name": "getStepTokenSold",
      "outputs": [
        {
          "name": "",
          "type": "uint256"
        }
      ],
      "payable": false,
      "stateMutability": "view",
      "type": "function"
    },
    {
      "constant": true,
      "inputs": [
        {
          "name": "",
          "type": "address"
        }
      ],
      "name": "balances",
      "outputs": [
        {
          "name": "",
          "type": "uint256"
        }
      ],
      "payable": false,
      "stateMutability": "view",
      "type": "function"
    },
    {
      "constant": true,
      "inputs": [],
      "name": "getCurrentTokenSold",
      "outputs": [
        {
          "name": "",
          "type": "uint256"
        }
      ],
      "payable": false,
      "stateMutability": "view",
      "type": "function"
    },
    {
      "constant": true,
      "inputs": [],
      "name": "rate",
      "outputs": [
        {
          "name": "",
          "type": "uint256"
        }
      ],
      "payable": false,
      "stateMutability": "view",
      "type": "function"
    },
    {
      "constant": true,
      "inputs": [],
      "name": "getStepsCout",
      "outputs": [
        {
          "name": "",
          "type": "uint8"
        }
      ],
      "payable": false,
      "stateMutability": "view",
      "type": "function"
    },
    {
      "constant": true,
      "inputs": [],
      "name": "weiRaised",
      "outputs": [
        {
          "name": "",
          "type": "uint256"
        }
      ],
      "payable": false,
      "stateMutability": "view",
      "type": "function"
    },
    {
      "constant": true,
      "inputs": [],
      "name": "ROLE_SRV",
      "outputs": [
        {
          "name": "",
          "type": "string"
        }
      ],
      "payable": false,
      "stateMutability": "view",
      "type": "function"
    },
    {
      "constant": true,
      "inputs": [],
      "name": "closingTime",
      "outputs": [
        {
          "name": "",
          "type": "uint256"
        }
      ],
      "payable": false,
      "stateMutability": "view",
      "type": "function"
    },
    {
      "constant": true,
      "inputs": [],
      "name": "ROLE_DAPP",
      "outputs": [
        {
          "name": "",
          "type": "string"
        }
      ],
      "payable": false,
      "stateMutability": "view",
      "type": "function"
    },
    {
      "constant": true,
      "inputs": [],
      "name": "wallet",
      "outputs": [
        {
          "name": "",
          "type": "address"
        }
      ],
      "payable": false,
      "stateMutability": "view",
      "type": "function"
    },
    {
      "constant": true,
      "inputs": [
        {
          "name": "step",
          "type": "uint8"
        }
      ],
      "name": "getStepRate",
      "outputs": [
        {
          "name": "",
          "type": "uint256"
        }
      ],
      "payable": false,
      "stateMutability": "view",
      "type": "function"
    },
    {
      "constant": false,
      "inputs": [
        {
          "name": "addr",
          "type": "address"
        },
        {
          "name": "roleName",
          "type": "string"
        }
      ],
      "name": "adminRemoveRole",
      "outputs": [],
      "payable": false,
      "stateMutability": "nonpayable",
      "type": "function"
    },
    {
      "constant": false,
      "inputs": [],
      "name": "withdrawTokens",
      "outputs": [],
      "payable": false,
      "stateMutability": "nonpayable",
      "type": "function"
    },
    {
      "constant": true,
      "inputs": [
        {
          "name": "_step",
          "type": "uint8"
        }
      ],
      "name": "getStepCap",
      "outputs": [
        {
          "name": "",
          "type": "uint256"
        }
      ],
      "payable": false,
      "stateMutability": "view",
      "type": "function"
    },
    {
      "constant": false,
      "inputs": [
        {
          "name": "addr",
          "type": "address"
        },
        {
          "name": "roleName",
          "type": "string"
        }
      ],
      "name": "adminAddRole",
      "outputs": [],
      "payable": false,
      "stateMutability": "nonpayable",
      "type": "function"
    },
    {
      "constant": true,
      "inputs": [],
      "name": "openingTime",
      "outputs": [
        {
          "name": "",
          "type": "uint256"
        }
      ],
      "payable": false,
      "stateMutability": "view",
      "type": "function"
    },
    {
      "constant": true,
      "inputs": [],
      "name": "getEthUsdRate",
      "outputs": [
        {
          "name": "",
          "type": "uint256"
        }
      ],
      "payable": false,
      "stateMutability": "view",
      "type": "function"
    },
    {
      "constant": true,
      "inputs": [],
      "name": "ROLE_ADMIN",
      "outputs": [
        {
          "name": "",
          "type": "string"
        }
      ],
      "payable": false,
      "stateMutability": "view",
      "type": "function"
    },
    {
      "constant": true,
      "inputs": [],
      "name": "getCurrentCap",
      "outputs": [
        {
          "name": "",
          "type": "uint256"
        }
      ],
      "payable": false,
      "stateMutability": "view",
      "type": "function"
    },
    {
      "constant": false,
      "inputs": [
        {
          "name": "_beneficiary",
          "type": "address"
        }
      ],
      "name": "buyTokens",
      "outputs": [],
      "payable": true,
      "stateMutability": "payable",
      "type": "function"
    },
    {
      "constant": true,
      "inputs": [],
      "name": "getCurrentRate",
      "outputs": [
        {
          "name": "",
          "type": "uint256"
        }
      ],
      "payable": false,
      "stateMutability": "view",
      "type": "function"
    },
    {
      "constant": true,
      "inputs": [],
      "name": "token",
      "outputs": [
        {
          "name": "",
          "type": "address"
        }
      ],
      "payable": false,
      "stateMutability": "view",
      "type": "function"
    },
    {
      "inputs": [
        {
          "name": "_startTime",
          "type": "uint256"
        },
        {
          "name": "_endTime",
          "type": "uint256"
        },
        {
          "name": "_wallet",
          "type": "address"
        },
        {
          "name": "_tokenAddress",
          "type": "address"
        }
      ],
      "payable": false,
      "stateMutability": "nonpayable",
      "type": "constructor"
    },
    {
      "payable": true,
      "stateMutability": "payable",
      "type": "fallback"
    },
    {
      "anonymous": false,
      "inputs": [
        {
          "indexed": true,
          "name": "timestamp",
          "type": "uint256"
        },
        {
          "indexed": false,
          "name": "step",
          "type": "uint256"
        },
        {
          "indexed": false,
          "name": "oldCap",
          "type": "uint256"
        },
        {
          "indexed": false,
          "name": "newCap",
          "type": "uint256"
        }
      ],
      "name": "SetStepCap",
      "type": "event"
    },
    {
      "anonymous": false,
      "inputs": [
        {
          "indexed": true,
          "name": "timestamp",
          "type": "uint256"
        },
        {
          "indexed": false,
          "name": "oldRate",
          "type": "uint256"
        },
        {
          "indexed": false,
          "name": "newRate",
          "type": "uint256"
        }
      ],
      "name": "UsdRateUpdated",
      "type": "event"
    },
    {
      "anonymous": false,
      "inputs": [
        {
          "indexed": true,
          "name": "timestamp",
          "type": "uint256"
        },
        {
          "indexed": false,
          "name": "step",
          "type": "uint256"
        },
        {
          "indexed": false,
          "name": "oldRate",
          "type": "uint256"
        },
        {
          "indexed": false,
          "name": "newRate",
          "type": "uint256"
        }
      ],
      "name": "SetStepRate",
      "type": "event"
    },
    {
      "anonymous": false,
      "inputs": [
        {
          "indexed": true,
          "name": "timestamp",
          "type": "uint256"
        },
        {
          "indexed": false,
          "name": "step",
          "type": "uint256"
        },
        {
          "indexed": false,
          "name": "dueDate",
          "type": "uint256"
        }
      ],
      "name": "AddStep",
      "type": "event"
    },
    {
      "anonymous": false,
      "inputs": [
        {
          "indexed": false,
          "name": "addr",
          "type": "address"
        },
        {
          "indexed": false,
          "name": "roleName",
          "type": "string"
        }
      ],
      "name": "RoleAdded",
      "type": "event"
    },
    {
      "anonymous": false,
      "inputs": [
        {
          "indexed": false,
          "name": "addr",
          "type": "address"
        },
        {
          "indexed": false,
          "name": "roleName",
          "type": "string"
        }
      ],
      "name": "RoleRemoved",
      "type": "event"
    },
    {
      "anonymous": false,
      "inputs": [
        {
          "indexed": true,
          "name": "purchaser",
          "type": "address"
        },
        {
          "indexed": true,
          "name": "beneficiary",
          "type": "address"
        },
        {
          "indexed": false,
          "name": "value",
          "type": "uint256"
        },
        {
          "indexed": false,
          "name": "amount",
          "type": "uint256"
        }
      ],
      "name": "TokenPurchase",
      "type": "event"
    },
    {
      "constant": false,
      "inputs": [
        {
          "name": "_timestamp",
          "type": "uint256"
        },
        {
          "name": "_cap",
          "type": "uint256"
        },
        {
          "name": "_rate",
          "type": "uint256"
        }
      ],
      "name": "addCrowdsaleStep",
      "outputs": [],
      "payable": false,
      "stateMutability": "nonpayable",
      "type": "function"
    },
    {
      "constant": false,
      "inputs": [
        {
          "name": "usdRate",
          "type": "uint256"
        }
      ],
      "name": "setEthUsdRate",
      "outputs": [],
      "payable": false,
      "stateMutability": "nonpayable",
      "type": "function"
    },
    {
      "constant": false,
      "inputs": [],
      "name": "transferTokenOwnership",
      "outputs": [],
      "payable": false,
      "stateMutability": "nonpayable",
      "type": "function"
    }
  ],
  "bytecode": "0x60806040523480156200001157600080fd5b50604051608080620021f2833981018060405281019080805190602001909291908051906020019092919080519060200190929190805190602001909291905050508383600184846000831115156200006957600080fd5b600073ffffffffffffffffffffffffffffffffffffffff168273ffffffffffffffffffffffffffffffffffffffff1614151515620000a657600080fd5b600073ffffffffffffffffffffffffffffffffffffffff168173ffffffffffffffffffffffffffffffffffffffff1614151515620000e357600080fd5b8260028190555081600160006101000a81548173ffffffffffffffffffffffffffffffffffffffff021916908373ffffffffffffffffffffffffffffffffffffffff160217905550806000806101000a81548173ffffffffffffffffffffffffffffffffffffffff021916908373ffffffffffffffffffffffffffffffffffffffff1602179055505050504282101515156200017e57600080fd5b8181101515156200018e57600080fd5b81600481905550806005819055505050620001ee336040805190810160405280600581526020017f61646d696e000000000000000000000000000000000000000000000000000000815250620002d5640100000000026401000000009004565b600073ffffffffffffffffffffffffffffffffffffffff168173ffffffffffffffffffffffffffffffffffffffff16141515156200022b57600080fd5b6200027b336040805190810160405280600481526020017f6461707000000000000000000000000000000000000000000000000000000000815250620002d5640100000000026401000000009004565b620002cb336040805190810160405280600781526020017f7365727669636500000000000000000000000000000000000000000000000000815250620002d5640100000000026401000000009004565b5050505062000499565b62000364826007836040518082805190602001908083835b602083101515620003145780518252602082019150602081019050602083039250620002ed565b6001836020036101000a03801982511681845116808217855250505050505090500191505090815260200160405180910390206200043b6401000000000262001c21179091906401000000009004565b7fbfec83d64eaa953f2708271a023ab9ee82057f8f3578d548c1a4ba0b5b7004898282604051808373ffffffffffffffffffffffffffffffffffffffff1673ffffffffffffffffffffffffffffffffffffffff16815260200180602001828103825283818151815260200191508051906020019080838360005b83811015620003fb578082015181840152602081019050620003de565b50505050905090810190601f168015620004295780820380516001836020036101000a031916815260200191505b50935050505060405180910390a15050565b60018260000160008373ffffffffffffffffffffffffffffffffffffffff1673ffffffffffffffffffffffffffffffffffffffff16815260200190815260200160002060006101000a81548160ff0219169083151502179055505050565b611d4980620004a96000396000f300608060405260043610610175576000357c0100000000000000000000000000000000000000000000000000000000900463ffffffff1680630988ca8c146101805780631515bc2b146102095780631d3824ea14610238578063217fe6c614610269578063234183cd1461030a57806327e235e31461034e578063296e4525146103a55780632c4e722e146103d05780632ca8ef81146103fb5780634042b66f1461042c5780634056675e1461045757806341df5b741461046e5780634b6753bc146104fe57806351a0daf914610529578063521eb273146105b9578063557f0de41461061057806382f128391461065457806388cee87e146106955780638d8f2adb1461071e578063a340ebee14610735578063b25fa92c14610779578063b7a8807c14610802578063c8583e691461082d578063d391014b14610858578063d8c30700146108e8578063ec8ac4d814610913578063f7fb07b014610949578063fb6f93a414610974578063fc0c546a146109a1575b61017e336109f8565b005b34801561018c57600080fd5b50610207600480360381019080803573ffffffffffffffffffffffffffffffffffffffff169060200190929190803590602001908201803590602001908080601f0160208091040260200160405190810160405280939291908181526020018383808284378201915050505050509192919290505050610ac6565b005b34801561021557600080fd5b5061021e610b47565b604051808215151515815260200191505060405180910390f35b34801561024457600080fd5b5061024d610b53565b604051808260ff1660ff16815260200191505060405180910390f35b34801561027557600080fd5b506102f0600480360381019080803573ffffffffffffffffffffffffffffffffffffffff169060200190929190803590602001908201803590602001908080601f0160208091040260200160405190810160405280939291908181526020018383808284378201915050505050509192919290505050610bcd565b604051808215151515815260200191505060405180910390f35b34801561031657600080fd5b50610338600480360381019080803560ff169060200190929190505050610c54565b6040518082815260200191505060405180910390f35b34801561035a57600080fd5b5061038f600480360381019080803573ffffffffffffffffffffffffffffffffffffffff169060200190929190505050610c93565b6040518082815260200191505060405180910390f35b3480156103b157600080fd5b506103ba610cab565b6040518082815260200191505060405180910390f35b3480156103dc57600080fd5b506103e5610cc2565b6040518082815260200191505060405180910390f35b34801561040757600080fd5b50610410610cc8565b604051808260ff1660ff16815260200191505060405180910390f35b34801561043857600080fd5b50610441610cd5565b6040518082815260200191505060405180910390f35b34801561046357600080fd5b5061046c610cdb565b005b34801561047a57600080fd5b50610483610e00565b6040518080602001828103825283818151815260200191508051906020019080838360005b838110156104c35780820151818401526020810190506104a8565b50505050905090810190601f1680156104f05780820380516001836020036101000a031916815260200191505b509250505060405180910390f35b34801561050a57600080fd5b50610513610e39565b6040518082815260200191505060405180910390f35b34801561053557600080fd5b5061053e610e3f565b6040518080602001828103825283818151815260200191508051906020019080838360005b8381101561057e578082015181840152602081019050610563565b50505050905090810190601f1680156105ab5780820380516001836020036101000a031916815260200191505b509250505060405180910390f35b3480156105c557600080fd5b506105ce610e78565b604051808273ffffffffffffffffffffffffffffffffffffffff1673ffffffffffffffffffffffffffffffffffffffff16815260200191505060405180910390f35b34801561061c57600080fd5b5061063e600480360381019080803560ff169060200190929190505050610e9e565b6040518082815260200191505060405180910390f35b34801561066057600080fd5b50610693600480360381019080803590602001909291908035906020019092919080359060200190929190505050610edd565b005b3480156106a157600080fd5b5061071c600480360381019080803573ffffffffffffffffffffffffffffffffffffffff169060200190929190803590602001908201803590602001908080601f0160208091040260200160405190810160405280939291908181526020018383808284378201915050505050509192919290505050610f54565b005b34801561072a57600080fd5b50610733610fa1565b005b34801561074157600080fd5b50610763600480360381019080803560ff169060200190929190505050611059565b6040518082815260200191505060405180910390f35b34801561078557600080fd5b50610800600480360381019080803573ffffffffffffffffffffffffffffffffffffffff169060200190929190803590602001908201803590602001908080601f0160208091040260200160405190810160405280939291908181526020018383808284378201915050505050509192919290505050611098565b005b34801561080e57600080fd5b506108176110e5565b6040518082815260200191505060405180910390f35b34801561083957600080fd5b506108426110eb565b6040518082815260200191505060405180910390f35b34801561086457600080fd5b5061086d6110f5565b6040518080602001828103825283818151815260200191508051906020019080838360005b838110156108ad578082015181840152602081019050610892565b50505050905090810190601f1680156108da5780820380516001836020036101000a031916815260200191505b509250505060405180910390f35b3480156108f457600080fd5b506108fd61112e565b6040518082815260200191505060405180910390f35b610947600480360381019080803573ffffffffffffffffffffffffffffffffffffffff1690602001909291905050506109f8565b005b34801561095557600080fd5b5061095e611145565b6040518082815260200191505060405180910390f35b34801561098057600080fd5b5061099f6004803603810190808035906020019092919050505061115c565b005b3480156109ad57600080fd5b506109b66111a9565b604051808273ffffffffffffffffffffffffffffffffffffffff1673ffffffffffffffffffffffffffffffffffffffff16815260200191505060405180910390f35b600080349150610a0883836111ce565b610a1182611219565b9050610a288260035461125290919063ffffffff16565b600381905550610a38838261126e565b8273ffffffffffffffffffffffffffffffffffffffff163373ffffffffffffffffffffffffffffffffffffffff167f623b3804fa71d67900d064613da8f94b9617215ee90799290593e1745087ad188484604051808381526020018281526020019250505060405180910390a3610aaf8383611307565b610ab7611334565b610ac1838361139f565b505050565b610b43826007836040518082805190602001908083835b602083101515610b025780518252602082019150602081019050602083039250610add565b6001836020036101000a03801982511681845116808217855250505050505090500191505090815260200160405180910390206113a390919063ffffffff16565b5050565b60006005544211905090565b60008060008090505b6009805490508160ff161015610ba55760098160ff16815481101515610b7e57fe5b9060005260206000200154915081421015610b9857610ba5565b8080600101915050610b5c565b6008600083815260200190815260200160002060009054906101000a900460ff169250505090565b6000610c4c836007846040518082805190602001908083835b602083101515610c0b5780518252602082019150602081019050602083039250610be6565b6001836020036101000a03801982511681845116808217855250505050505090500191505090815260200160405180910390206113bc90919063ffffffff16565b905092915050565b6000610c5e610cc8565b60ff168260ff1611151515610c7257600080fd5b600d60008360ff1660ff168152602001908152602001600020549050919050565b60066020528060005260406000206000915090505481565b6000610cbd610cb8610b53565b610c54565b905090565b60025481565b6000600980549050905090565b60035481565b610d1a336040805190810160405280600581526020017f61646d696e000000000000000000000000000000000000000000000000000000815250610ac6565b42600554101515610d2a57600080fd5b6000809054906101000a900473ffffffffffffffffffffffffffffffffffffffff1673ffffffffffffffffffffffffffffffffffffffff1663f2fde38b336040518263ffffffff167c0100000000000000000000000000000000000000000000000000000000028152600401808273ffffffffffffffffffffffffffffffffffffffff1673ffffffffffffffffffffffffffffffffffffffff168152602001915050600060405180830381600087803b158015610de657600080fd5b505af1158015610dfa573d6000803e3d6000fd5b50505050565b6040805190810160405280600781526020017f736572766963650000000000000000000000000000000000000000000000000081525081565b60055481565b6040805190810160405280600481526020017f646170700000000000000000000000000000000000000000000000000000000081525081565b600160009054906101000a900473ffffffffffffffffffffffffffffffffffffffff1681565b6000610ea8610cc8565b60ff168260ff1611151515610ebc57600080fd5b600a60008360ff1660ff168152602001908152602001600020549050919050565b6040805190810160405280600481526020017f6461707000000000000000000000000000000000000000000000000000000000815250610f1d3382610ac6565b610f2684611415565b610f3a6001610f33610cc8565b0384611567565b610f4e6001610f47610cc8565b0383611628565b50505050565b610f93336040805190810160405280600581526020017f61646d696e000000000000000000000000000000000000000000000000000000815250610ac6565b610f9d82826116e9565b5050565b6000610fab610b47565b1515610fb657600080fd5b600660003373ffffffffffffffffffffffffffffffffffffffff1673ffffffffffffffffffffffffffffffffffffffff16815260200190815260200160002054905060008111151561100757600080fd5b6000600660003373ffffffffffffffffffffffffffffffffffffffff1673ffffffffffffffffffffffffffffffffffffffff16815260200190815260200160002081905550611056338261183a565b50565b6000611063610cc8565b60ff168260ff161115151561107757600080fd5b600c60008360ff1660ff168152602001908152602001600020549050919050565b6110d7336040805190810160405280600581526020017f61646d696e000000000000000000000000000000000000000000000000000000815250610ac6565b6110e18282611948565b5050565b60045481565b6000600b54905090565b6040805190810160405280600581526020017f61646d696e00000000000000000000000000000000000000000000000000000081525081565b600061114061113b610b53565b611059565b905090565b6000611157611152610b53565b610e9e565b905090565b6040805190810160405280600781526020017f736572766963650000000000000000000000000000000000000000000000000081525061119c3382610ac6565b6111a582611a99565b5050565b6000809054906101000a900473ffffffffffffffffffffffffffffffffffffffff1681565b60006111da8383611aed565b6111e382611219565b90506111ed61112e565b611207826111f9610cab565b61125290919063ffffffff16565b1115151561121457600080fd5b505050565b60008061122583611b1a565b90506000670de0b6b3a76400008281151561123c57fe5b0614151561124957600080fd5b80915050919050565b6000818301905082811015151561126557fe5b80905092915050565b6112c081600660008573ffffffffffffffffffffffffffffffffffffffff1673ffffffffffffffffffffffffffffffffffffffff1681526020019081526020016000205461125290919063ffffffff16565b600660008473ffffffffffffffffffffffffffffffffffffffff1673ffffffffffffffffffffffffffffffffffffffff168152602001908152602001600020819055505050565b60006113138383611b56565b61131c82611219565b905061132f611329610b53565b82611b5a565b505050565b600160009054906101000a900473ffffffffffffffffffffffffffffffffffffffff1673ffffffffffffffffffffffffffffffffffffffff166108fc349081150290604051600060405180830381858888f1935050505015801561139c573d6000803e3d6000fd5b50565b5050565b6113ad82826113bc565b15156113b857600080fd5b5050565b60008260000160008373ffffffffffffffffffffffffffffffffffffffff1673ffffffffffffffffffffffffffffffffffffffff16815260200190815260200160002060009054906101000a900460ff16905092915050565b8060045410151561142557600080fd5b8060055411151561143557600080fd5b60ff60098054905010151561144957600080fd5b600060098054905014806114a057508060086000600960016009805490500381548110151561147457fe5b9060005260206000200154815260200190815260200160002060009054906101000a900460ff1660ff16105b15156114ab57600080fd5b600981908060018154018082558091505090600182039060005260206000200160009091929091909150556008600083815260200190815260200160002060006101000a81548160ff021916908360ff160217905550427f7a43ef9fe7835ed757868b8ce7d6c2b9f2903e43391b223b99a7cf0c9092759c6008600084815260200190815260200160002060009054906101000a900460ff1683604051808360ff1681526020018281526020019250505060405180910390a250565b6000611571610cc8565b60ff168360ff161115151561158557600080fd5b600c60008460ff1660ff16815260200190815260200160002054905081600c60008560ff1660ff16815260200190815260200160002081905550427fdbabfacca738260ddce8370c8478a679770d1ee00903e0f39af54f9c724f30468483600c60008860ff1660ff16815260200190815260200160002054604051808460ff168152602001838152602001828152602001935050505060405180910390a2505050565b6000611632610cc8565b60ff168360ff161115151561164657600080fd5b600a60008460ff1660ff16815260200190815260200160002054905081600a60008560ff1660ff16815260200190815260200160002081905550427ff097b3b215e6a581146face4d463e05af77eab2b46441cd9586e78855ef44e248483600a60008860ff1660ff16815260200190815260200160002054604051808460ff168152602001838152602001828152602001935050505060405180910390a2505050565b611766826007836040518082805190602001908083835b6020831015156117255780518252602082019150602081019050602083039250611700565b6001836020036101000a0380198251168184511680821785525050505050509050019150509081526020016040518091039020611bc390919063ffffffff16565b7fd211483f91fc6eff862467f8de606587a30c8fc9981056f051b897a418df803a8282604051808373ffffffffffffffffffffffffffffffffffffffff1673ffffffffffffffffffffffffffffffffffffffff16815260200180602001828103825283818151815260200191508051906020019080838360005b838110156117fb5780820151818401526020810190506117e0565b50505050905090810190601f1680156118285780820380516001836020036101000a031916815260200191505b50935050505060405180910390a15050565b6000809054906101000a900473ffffffffffffffffffffffffffffffffffffffff1673ffffffffffffffffffffffffffffffffffffffff166340c10f1983836040518363ffffffff167c0100000000000000000000000000000000000000000000000000000000028152600401808373ffffffffffffffffffffffffffffffffffffffff1673ffffffffffffffffffffffffffffffffffffffff16815260200182815260200192505050602060405180830381600087803b1580156118fe57600080fd5b505af1158015611912573d6000803e3d6000fd5b505050506040513d602081101561192857600080fd5b8101908080519060200190929190505050151561194457600080fd5b5050565b6119c5826007836040518082805190602001908083835b602083101515611984578051825260208201915060208101905060208303925061195f565b6001836020036101000a0380198251168184511680821785525050505050509050019150509081526020016040518091039020611c2190919063ffffffff16565b7fbfec83d64eaa953f2708271a023ab9ee82057f8f3578d548c1a4ba0b5b7004898282604051808373ffffffffffffffffffffffffffffffffffffffff1673ffffffffffffffffffffffffffffffffffffffff16815260200180602001828103825283818151815260200191508051906020019080838360005b83811015611a5a578082015181840152602081019050611a3f565b50505050905090810190601f168015611a875780820380516001836020036101000a031916815260200191505b50935050505060405180910390a15050565b6000600b54905081600b81905550427feee2990117e261ad836c99206b5a81160bd3ea73bdf8b128b1ead5143906649a82600b54604051808381526020018281526020019250505060405180910390a25050565b6004544210158015611b0157506005544211155b1515611b0c57600080fd5b611b168282611c7f565b5050565b600080611b25611145565b9050611b4e81611b40600b5486611ccf90919063ffffffff16565b611d0790919063ffffffff16565b915050919050565b5050565b611b62610cc8565b60ff168260ff1611151515611b7657600080fd5b611ba281600d60008560ff1660ff1681526020019081526020016000205461125290919063ffffffff16565b600d60008460ff1660ff168152602001908152602001600020819055505050565b60008260000160008373ffffffffffffffffffffffffffffffffffffffff1673ffffffffffffffffffffffffffffffffffffffff16815260200190815260200160002060006101000a81548160ff0219169083151502179055505050565b60018260000160008373ffffffffffffffffffffffffffffffffffffffff1673ffffffffffffffffffffffffffffffffffffffff16815260200190815260200160002060006101000a81548160ff0219169083151502179055505050565b600073ffffffffffffffffffffffffffffffffffffffff168273ffffffffffffffffffffffffffffffffffffffff1614151515611cbb57600080fd5b60008114151515611ccb57600080fd5b5050565b600080831415611ce25760009050611d01565b8183029050818382811515611cf357fe5b04141515611cfd57fe5b8090505b92915050565b60008183811515611d1457fe5b049050929150505600a165627a7a72305820e162009efad118f863fe69455523e94cfaddd25b5ae804bc5a2b0e235c52afbf0029",
  "source": "pragma solidity 0.4.24;\r\n\r\nimport \"./CWTPToken.sol\";\r\nimport \"./SteppedRateCrowdsale.sol\";\r\nimport \"./SteppedCapCrowdsale.sol\";\r\nimport \"openzeppelin-solidity/contracts/crowdsale/distribution/PostDeliveryCrowdsale.sol\";\r\nimport \"openzeppelin-solidity/contracts/crowdsale/emission/MintedCrowdsale.sol\";\r\nimport \"openzeppelin-solidity/contracts/ownership/rbac/RBACWithAdmin.sol\";\r\n\r\ncontract CWTPTokenSale is PostDeliveryCrowdsale, MintedCrowdsale, RBACWithAdmin, SteppedRateCrowdsale, SteppedCapCrowdsale {\r\n\r\n  string public constant ROLE_DAPP = \"dapp\";\r\n  string public constant ROLE_SRV = \"service\";\r\n\r\n  constructor(uint256 _startTime, uint256 _endTime, address _wallet, ERC20 _tokenAddress) public\r\n    TimedCrowdsale(_startTime, _endTime)\r\n    Crowdsale(1, _wallet, _tokenAddress)\r\n  {\r\n    require(Ownable(_tokenAddress) != address(0));\r\n    addRole(msg.sender, ROLE_DAPP);\r\n    addRole(msg.sender, ROLE_SRV);\r\n    //addRole(address(0x000000000000000000000), ROLE_DAPP);\r\n  }\r\n\r\n  function addCrowdsaleStep(uint256 _timestamp, uint256 _cap, uint256 _rate) onlyRole(ROLE_DAPP) public{\r\n    _addStep(_timestamp);\r\n    _setStepCap(getStepsCout() - 1, _cap);\r\n    _setStepRate(getStepsCout() - 1, _rate);\r\n  }\r\n\r\n  function setEthUsdRate(uint256 usdRate) onlyRole(ROLE_SRV) public{\r\n    _setEthUsdRate(usdRate);\r\n  }\r\n\r\n  function transferTokenOwnership() onlyAdmin public\r\n  {\r\n    // solium-disable-next-line security/no-block-members\r\n    require(closingTime < block.timestamp);\r\n    Ownable(token).transferOwnership(msg.sender);\r\n  }\r\n\r\n  function _getTokenAmount(uint256 _weiAmount) internal view returns (uint256) {\r\n    uint256 tokens = super._getTokenAmount(_weiAmount);\r\n    require((tokens % 1 ether) == 0);\r\n    return tokens;    \r\n  }\r\n}\r\n",
  "sourcePath": "C:\\Users\\mmaslich\\Documents\\GitHub\\cryptoworkplace.io\\res\\Etherium\\CWP\\contracts\\CWTPTokenSale.sol",
  "compiler": {
    "name": "solc",
    "version": "0.4.24+commit.e67f0147.Emscripten.clang"
  },
  "schemaVersion": "2.0.0",
  "updatedAt": "2018-06-01T10:52:50.233Z"
}