{
  "contractName": "CWTPTokenSale",
  "abi": [
    {
      "constant": true,
      "inputs": [
        {
          "name": "addr",
          "type": "address"
        },
        {
          "name": "roleName",
          "type": "string"
        }
      ],
      "name": "checkRole",
      "outputs": [],
      "payable": false,
      "stateMutability": "view",
      "type": "function"
    },
    {
      "constant": true,
      "inputs": [],
      "name": "hasClosed",
      "outputs": [
        {
          "name": "",
          "type": "bool"
        }
      ],
      "payable": false,
      "stateMutability": "view",
      "type": "function"
    },
    {
      "constant": true,
      "inputs": [],
      "name": "getCurrentStep",
      "outputs": [
        {
          "name": "",
          "type": "uint8"
        }
      ],
      "payable": false,
      "stateMutability": "view",
      "type": "function"
    },
    {
      "constant": true,
      "inputs": [
        {
          "name": "addr",
          "type": "address"
        },
        {
          "name": "roleName",
          "type": "string"
        }
      ],
      "name": "hasRole",
      "outputs": [
        {
          "name": "",
          "type": "bool"
        }
      ],
      "payable": false,
      "stateMutability": "view",
      "type": "function"
    },
    {
      "constant": true,
      "inputs": [
        {
          "name": "_step",
          "type": "uint8"
        }
      ],
      "name": "getStepTokenSold",
      "outputs": [
        {
          "name": "",
          "type": "uint256"
        }
      ],
      "payable": false,
      "stateMutability": "view",
      "type": "function"
    },
    {
      "constant": true,
      "inputs": [
        {
          "name": "",
          "type": "address"
        }
      ],
      "name": "balances",
      "outputs": [
        {
          "name": "",
          "type": "uint256"
        }
      ],
      "payable": false,
      "stateMutability": "view",
      "type": "function"
    },
    {
      "constant": true,
      "inputs": [],
      "name": "getCurrentTokenSold",
      "outputs": [
        {
          "name": "",
          "type": "uint256"
        }
      ],
      "payable": false,
      "stateMutability": "view",
      "type": "function"
    },
    {
      "constant": true,
      "inputs": [],
      "name": "rate",
      "outputs": [
        {
          "name": "",
          "type": "uint256"
        }
      ],
      "payable": false,
      "stateMutability": "view",
      "type": "function"
    },
    {
      "constant": true,
      "inputs": [],
      "name": "getStepsCout",
      "outputs": [
        {
          "name": "",
          "type": "uint8"
        }
      ],
      "payable": false,
      "stateMutability": "view",
      "type": "function"
    },
    {
      "constant": true,
      "inputs": [],
      "name": "weiRaised",
      "outputs": [
        {
          "name": "",
          "type": "uint256"
        }
      ],
      "payable": false,
      "stateMutability": "view",
      "type": "function"
    },
    {
      "constant": true,
      "inputs": [],
      "name": "ROLE_SRV",
      "outputs": [
        {
          "name": "",
          "type": "string"
        }
      ],
      "payable": false,
      "stateMutability": "view",
      "type": "function"
    },
    {
      "constant": true,
      "inputs": [],
      "name": "closingTime",
      "outputs": [
        {
          "name": "",
          "type": "uint256"
        }
      ],
      "payable": false,
      "stateMutability": "view",
      "type": "function"
    },
    {
      "constant": true,
      "inputs": [],
      "name": "ROLE_DAPP",
      "outputs": [
        {
          "name": "",
          "type": "string"
        }
      ],
      "payable": false,
      "stateMutability": "view",
      "type": "function"
    },
    {
      "constant": true,
      "inputs": [],
      "name": "wallet",
      "outputs": [
        {
          "name": "",
          "type": "address"
        }
      ],
      "payable": false,
      "stateMutability": "view",
      "type": "function"
    },
    {
      "constant": true,
      "inputs": [
        {
          "name": "step",
          "type": "uint8"
        }
      ],
      "name": "getStepRate",
      "outputs": [
        {
          "name": "",
          "type": "uint256"
        }
      ],
      "payable": false,
      "stateMutability": "view",
      "type": "function"
    },
    {
      "constant": false,
      "inputs": [
        {
          "name": "addr",
          "type": "address"
        },
        {
          "name": "roleName",
          "type": "string"
        }
      ],
      "name": "adminRemoveRole",
      "outputs": [],
      "payable": false,
      "stateMutability": "nonpayable",
      "type": "function"
    },
    {
      "constant": false,
      "inputs": [],
      "name": "withdrawTokens",
      "outputs": [],
      "payable": false,
      "stateMutability": "nonpayable",
      "type": "function"
    },
    {
      "constant": true,
      "inputs": [
        {
          "name": "_step",
          "type": "uint8"
        }
      ],
      "name": "getStepCap",
      "outputs": [
        {
          "name": "",
          "type": "uint256"
        }
      ],
      "payable": false,
      "stateMutability": "view",
      "type": "function"
    },
    {
      "constant": false,
      "inputs": [
        {
          "name": "addr",
          "type": "address"
        },
        {
          "name": "roleName",
          "type": "string"
        }
      ],
      "name": "adminAddRole",
      "outputs": [],
      "payable": false,
      "stateMutability": "nonpayable",
      "type": "function"
    },
    {
      "constant": true,
      "inputs": [],
      "name": "openingTime",
      "outputs": [
        {
          "name": "",
          "type": "uint256"
        }
      ],
      "payable": false,
      "stateMutability": "view",
      "type": "function"
    },
    {
      "constant": true,
      "inputs": [],
      "name": "getEthUsdRate",
      "outputs": [
        {
          "name": "",
          "type": "uint256"
        }
      ],
      "payable": false,
      "stateMutability": "view",
      "type": "function"
    },
    {
      "constant": true,
      "inputs": [
        {
          "name": "",
          "type": "address"
        }
      ],
      "name": "deposited",
      "outputs": [
        {
          "name": "",
          "type": "uint256"
        }
      ],
      "payable": false,
      "stateMutability": "view",
      "type": "function"
    },
    {
      "constant": true,
      "inputs": [],
      "name": "ROLE_ADMIN",
      "outputs": [
        {
          "name": "",
          "type": "string"
        }
      ],
      "payable": false,
      "stateMutability": "view",
      "type": "function"
    },
    {
      "constant": true,
      "inputs": [],
      "name": "getCurrentCap",
      "outputs": [
        {
          "name": "",
          "type": "uint256"
        }
      ],
      "payable": false,
      "stateMutability": "view",
      "type": "function"
    },
    {
      "constant": false,
      "inputs": [
        {
          "name": "_beneficiary",
          "type": "address"
        }
      ],
      "name": "buyTokens",
      "outputs": [],
      "payable": true,
      "stateMutability": "payable",
      "type": "function"
    },
    {
      "constant": true,
      "inputs": [],
      "name": "getCurrentRate",
      "outputs": [
        {
          "name": "",
          "type": "uint256"
        }
      ],
      "payable": false,
      "stateMutability": "view",
      "type": "function"
    },
    {
      "constant": true,
      "inputs": [],
      "name": "token",
      "outputs": [
        {
          "name": "",
          "type": "address"
        }
      ],
      "payable": false,
      "stateMutability": "view",
      "type": "function"
    },
    {
      "inputs": [
        {
          "name": "_startTime",
          "type": "uint256"
        },
        {
          "name": "_endTime",
          "type": "uint256"
        },
        {
          "name": "_cap",
          "type": "uint256"
        },
        {
          "name": "_minAmount",
          "type": "uint256"
        },
        {
          "name": "_rate",
          "type": "uint256"
        },
        {
          "name": "_wallet",
          "type": "address"
        },
        {
          "name": "_tokenAddress",
          "type": "address"
        }
      ],
      "payable": false,
      "stateMutability": "nonpayable",
      "type": "constructor"
    },
    {
      "payable": true,
      "stateMutability": "payable",
      "type": "fallback"
    },
    {
      "anonymous": false,
      "inputs": [
        {
          "indexed": true,
          "name": "beneficiary",
          "type": "address"
        },
        {
          "indexed": false,
          "name": "weiAmount",
          "type": "uint256"
        }
      ],
      "name": "Refunded",
      "type": "event"
    },
    {
      "anonymous": false,
      "inputs": [
        {
          "indexed": true,
          "name": "timestamp",
          "type": "uint256"
        },
        {
          "indexed": false,
          "name": "step",
          "type": "uint256"
        },
        {
          "indexed": false,
          "name": "oldCap",
          "type": "uint256"
        },
        {
          "indexed": false,
          "name": "newCap",
          "type": "uint256"
        }
      ],
      "name": "SetStepCap",
      "type": "event"
    },
    {
      "anonymous": false,
      "inputs": [
        {
          "indexed": true,
          "name": "timestamp",
          "type": "uint256"
        },
        {
          "indexed": false,
          "name": "oldRate",
          "type": "uint256"
        },
        {
          "indexed": false,
          "name": "newRate",
          "type": "uint256"
        }
      ],
      "name": "UsdRateUpdated",
      "type": "event"
    },
    {
      "anonymous": false,
      "inputs": [
        {
          "indexed": true,
          "name": "timestamp",
          "type": "uint256"
        },
        {
          "indexed": false,
          "name": "step",
          "type": "uint256"
        },
        {
          "indexed": false,
          "name": "oldRate",
          "type": "uint256"
        },
        {
          "indexed": false,
          "name": "newRate",
          "type": "uint256"
        }
      ],
      "name": "SetStepRate",
      "type": "event"
    },
    {
      "anonymous": false,
      "inputs": [
        {
          "indexed": true,
          "name": "timestamp",
          "type": "uint256"
        },
        {
          "indexed": false,
          "name": "step",
          "type": "uint256"
        },
        {
          "indexed": false,
          "name": "dueDate",
          "type": "uint256"
        }
      ],
      "name": "AddStep",
      "type": "event"
    },
    {
      "anonymous": false,
      "inputs": [
        {
          "indexed": false,
          "name": "addr",
          "type": "address"
        },
        {
          "indexed": false,
          "name": "roleName",
          "type": "string"
        }
      ],
      "name": "RoleAdded",
      "type": "event"
    },
    {
      "anonymous": false,
      "inputs": [
        {
          "indexed": false,
          "name": "addr",
          "type": "address"
        },
        {
          "indexed": false,
          "name": "roleName",
          "type": "string"
        }
      ],
      "name": "RoleRemoved",
      "type": "event"
    },
    {
      "anonymous": false,
      "inputs": [
        {
          "indexed": true,
          "name": "purchaser",
          "type": "address"
        },
        {
          "indexed": true,
          "name": "beneficiary",
          "type": "address"
        },
        {
          "indexed": false,
          "name": "value",
          "type": "uint256"
        },
        {
          "indexed": false,
          "name": "amount",
          "type": "uint256"
        }
      ],
      "name": "TokenPurchase",
      "type": "event"
    },
    {
      "constant": false,
      "inputs": [
        {
          "name": "_timestamp",
          "type": "uint256"
        },
        {
          "name": "_cap",
          "type": "uint256"
        },
        {
          "name": "_rate",
          "type": "uint256"
        }
      ],
      "name": "addCrowdsaleStep",
      "outputs": [],
      "payable": false,
      "stateMutability": "nonpayable",
      "type": "function"
    },
    {
      "constant": false,
      "inputs": [
        {
          "name": "usdRate",
          "type": "uint256"
        }
      ],
      "name": "setEthUsdRate",
      "outputs": [],
      "payable": false,
      "stateMutability": "nonpayable",
      "type": "function"
    },
    {
      "constant": false,
      "inputs": [],
      "name": "transferTokenOwnership",
      "outputs": [],
      "payable": false,
      "stateMutability": "nonpayable",
      "type": "function"
    },
    {
      "constant": false,
      "inputs": [
        {
          "name": "investor",
          "type": "address"
        }
      ],
      "name": "refund",
      "outputs": [],
      "payable": false,
      "stateMutability": "nonpayable",
      "type": "function"
    },
    {
      "constant": false,
      "inputs": [],
      "name": "CloseContract",
      "outputs": [],
      "payable": false,
      "stateMutability": "nonpayable",
      "type": "function"
    }
  ],
  "bytecode": "0x60806040523480156200001157600080fd5b5060405160e080620028e383398101806040528101908080519060200190929190805190602001909291908051906020019092919080519060200190929190805190602001909291908051906020019092919080519060200190929190505050848488888686866000831115156200008857600080fd5b600073ffffffffffffffffffffffffffffffffffffffff168273ffffffffffffffffffffffffffffffffffffffff1614151515620000c557600080fd5b600073ffffffffffffffffffffffffffffffffffffffff168173ffffffffffffffffffffffffffffffffffffffff16141515156200010257600080fd5b8260028190555081600160006101000a81548173ffffffffffffffffffffffffffffffffffffffff021916908373ffffffffffffffffffffffffffffffffffffffff160217905550806000806101000a81548173ffffffffffffffffffffffffffffffffffffffff021916908373ffffffffffffffffffffffffffffffffffffffff1602179055505050504282101515156200019d57600080fd5b818110151515620001ad57600080fd5b816004819055508060058190555050506200020d336040805190810160405280600581526020017f61646d696e00000000000000000000000000000000000000000000000000000081525062000336640100000000026401000000009004565b600160086000600554815260200190815260200160002060006101000a81548160ff021916908360ff16021790555081600e8190555080600f819055505050600073ffffffffffffffffffffffffffffffffffffffff168173ffffffffffffffffffffffffffffffffffffffff16141515156200028957600080fd5b620002d9336040805190810160405280600481526020017f646170700000000000000000000000000000000000000000000000000000000081525062000336640100000000026401000000009004565b62000329336040805190810160405280600781526020017f736572766963650000000000000000000000000000000000000000000000000081525062000336640100000000026401000000009004565b50505050505050620004fa565b620003c5826007836040518082805190602001908083835b6020831015156200037557805182526020820191506020810190506020830392506200034e565b6001836020036101000a03801982511681845116808217855250505050505090500191505090815260200160405180910390206200049c64010000000002620022ff179091906401000000009004565b7fbfec83d64eaa953f2708271a023ab9ee82057f8f3578d548c1a4ba0b5b7004898282604051808373ffffffffffffffffffffffffffffffffffffffff1673ffffffffffffffffffffffffffffffffffffffff16815260200180602001828103825283818151815260200191508051906020019080838360005b838110156200045c5780820151818401526020810190506200043f565b50505050905090810190601f1680156200048a5780820380516001836020036101000a031916815260200191505b50935050505060405180910390a15050565b60018260000160008373ffffffffffffffffffffffffffffffffffffffff1673ffffffffffffffffffffffffffffffffffffffff16815260200190815260200160002060006101000a81548160ff0219169083151502179055505050565b6123d9806200050a6000396000f300608060405260043610610196576000357c0100000000000000000000000000000000000000000000000000000000900463ffffffff1680630988ca8c146101a15780631515bc2b1461022a5780631d3824ea14610259578063217fe6c61461028a578063234183cd1461032b5780632675c1231461036f57806327e235e314610386578063296e4525146103dd5780632c4e722e146104085780632ca8ef81146104335780634042b66f146104645780634056675e1461048f57806341df5b74146104a65780634b6753bc1461053657806351a0daf914610561578063521eb273146105f1578063557f0de41461064857806382f128391461068c57806388cee87e146106cd5780638d8f2adb14610756578063a340ebee1461076d578063b25fa92c146107b1578063b7a8807c1461083a578063c8583e6914610865578063cb13cddb14610890578063d391014b146108e7578063d8c3070014610977578063ec8ac4d8146109a2578063f7fb07b0146109d8578063fa89401a14610a03578063fb6f93a414610a46578063fc0c546a14610a73575b61019f33610aca565b005b3480156101ad57600080fd5b50610228600480360381019080803573ffffffffffffffffffffffffffffffffffffffff169060200190929190803590602001908201803590602001908080601f0160208091040260200160405190810160405280939291908181526020018383808284378201915050505050509192919290505050610b98565b005b34801561023657600080fd5b5061023f610c19565b604051808215151515815260200191505060405180910390f35b34801561026557600080fd5b5061026e610c25565b604051808260ff1660ff16815260200191505060405180910390f35b34801561029657600080fd5b50610311600480360381019080803573ffffffffffffffffffffffffffffffffffffffff169060200190929190803590602001908201803590602001908080601f0160208091040260200160405190810160405280939291908181526020018383808284378201915050505050509192919290505050610cad565b604051808215151515815260200191505060405180910390f35b34801561033757600080fd5b50610359600480360381019080803560ff169060200190929190505050610d34565b6040518082815260200191505060405180910390f35b34801561037b57600080fd5b50610384610d81565b005b34801561039257600080fd5b506103c7600480360381019080803573ffffffffffffffffffffffffffffffffffffffff169060200190929190505050610ed5565b6040518082815260200191505060405180910390f35b3480156103e957600080fd5b506103f2610eed565b6040518082815260200191505060405180910390f35b34801561041457600080fd5b5061041d610f04565b6040518082815260200191505060405180910390f35b34801561043f57600080fd5b50610448610f0a565b604051808260ff1660ff16815260200191505060405180910390f35b34801561047057600080fd5b50610479610f1a565b6040518082815260200191505060405180910390f35b34801561049b57600080fd5b506104a4610f20565b005b3480156104b257600080fd5b506104bb611045565b6040518080602001828103825283818151815260200191508051906020019080838360005b838110156104fb5780820151818401526020810190506104e0565b50505050905090810190601f1680156105285780820380516001836020036101000a031916815260200191505b509250505060405180910390f35b34801561054257600080fd5b5061054b61107e565b6040518082815260200191505060405180910390f35b34801561056d57600080fd5b50610576611084565b6040518080602001828103825283818151815260200191508051906020019080838360005b838110156105b657808201518184015260208101905061059b565b50505050905090810190601f1680156105e35780820380516001836020036101000a031916815260200191505b509250505060405180910390f35b3480156105fd57600080fd5b506106066110bd565b604051808273ffffffffffffffffffffffffffffffffffffffff1673ffffffffffffffffffffffffffffffffffffffff16815260200191505060405180910390f35b34801561065457600080fd5b50610676600480360381019080803560ff1690602001909291905050506110e3565b6040518082815260200191505060405180910390f35b34801561069857600080fd5b506106cb60048036038101908080359060200190929190803590602001909291908035906020019092919050505061115d565b005b3480156106d957600080fd5b50610754600480360381019080803573ffffffffffffffffffffffffffffffffffffffff169060200190929190803590602001908201803590602001908080601f01602080910402602001604051908101604052809392919081815260200183838082843782019150505050505091929192905050506111c5565b005b34801561076257600080fd5b5061076b611212565b005b34801561077957600080fd5b5061079b600480360381019080803560ff1690602001909291905050506112ca565b6040518082815260200191505060405180910390f35b3480156107bd57600080fd5b50610838600480360381019080803573ffffffffffffffffffffffffffffffffffffffff169060200190929190803590602001908201803590602001908080601f0160208091040260200160405190810160405280939291908181526020018383808284378201915050505050509192919290505050611344565b005b34801561084657600080fd5b5061084f611391565b6040518082815260200191505060405180910390f35b34801561087157600080fd5b5061087a611397565b6040518082815260200191505060405180910390f35b34801561089c57600080fd5b506108d1600480360381019080803573ffffffffffffffffffffffffffffffffffffffff1690602001909291905050506113a1565b6040518082815260200191505060405180910390f35b3480156108f357600080fd5b506108fc6113b9565b6040518080602001828103825283818151815260200191508051906020019080838360005b8381101561093c578082015181840152602081019050610921565b50505050905090810190601f1680156109695780820380516001836020036101000a031916815260200191505b509250505060405180910390f35b34801561098357600080fd5b5061098c6113f2565b6040518082815260200191505060405180910390f35b6109d6600480360381019080803573ffffffffffffffffffffffffffffffffffffffff169060200190929190505050610aca565b005b3480156109e457600080fd5b506109ed611409565b6040518082815260200191505060405180910390f35b348015610a0f57600080fd5b50610a44600480360381019080803573ffffffffffffffffffffffffffffffffffffffff169060200190929190505050611420565b005b348015610a5257600080fd5b50610a716004803603810190808035906020019092919050505061158f565b005b348015610a7f57600080fd5b50610a886115dc565b604051808273ffffffffffffffffffffffffffffffffffffffff1673ffffffffffffffffffffffffffffffffffffffff16815260200191505060405180910390f35b600080349150610ada8383611601565b610ae382611689565b9050610afa826003546116cb90919063ffffffff16565b600381905550610b0a83826116e7565b8273ffffffffffffffffffffffffffffffffffffffff163373ffffffffffffffffffffffffffffffffffffffff167f623b3804fa71d67900d064613da8f94b9617215ee90799290593e1745087ad188484604051808381526020018281526020019250505060405180910390a3610b81838361180d565b610b8961183a565b610b938383611931565b505050565b610c15826007836040518082805190602001908083835b602083101515610bd45780518252602082019150602081019050602083039250610baf565b6001836020036101000a038019825116818451168082178552505050505050905001915050908152602001604051809103902061193590919063ffffffff16565b5050565b60006005544211905090565b60008060008090505b6009805490508160ff161015610c775760098160ff16815481101515610c5057fe5b9060005260206000200154915081421015610c6a57610c77565b8080600101915050610c2e565b81421115610c855760055491505b6008600083815260200190815260200160002060009054906101000a900460ff169250505090565b6000610d2c836007846040518082805190602001908083835b602083101515610ceb5780518252602082019150602081019050602083039250610cc6565b6001836020036101000a038019825116818451168082178552505050505050905001915050908152602001604051809103902061194e90919063ffffffff16565b905092915050565b6000808260ff16118015610d555750610d4b610f0a565b60ff168260ff1611155b1515610d6057600080fd5b600d60008360ff1660ff168152602001908152602001600020549050919050565b610dc0336040805190810160405280600581526020017f61646d696e000000000000000000000000000000000000000000000000000000815250610b98565b3073ffffffffffffffffffffffffffffffffffffffff166000809054906101000a900473ffffffffffffffffffffffffffffffffffffffff1673ffffffffffffffffffffffffffffffffffffffff16638da5cb5b6040518163ffffffff167c0100000000000000000000000000000000000000000000000000000000028152600401602060405180830381600087803b158015610e5c57600080fd5b505af1158015610e70573d6000803e3d6000fd5b505050506040513d6020811015610e8657600080fd5b810190808051906020019092919050505073ffffffffffffffffffffffffffffffffffffffff161415610ebc57610ebb610f20565b5b3373ffffffffffffffffffffffffffffffffffffffff16ff5b60066020528060005260406000206000915090505481565b6000610eff610efa610c25565b610d34565b905090565b60025481565b6000600160098054905001905090565b60035481565b610f5f336040805190810160405280600581526020017f61646d696e000000000000000000000000000000000000000000000000000000815250610b98565b42600554101515610f6f57600080fd5b6000809054906101000a900473ffffffffffffffffffffffffffffffffffffffff1673ffffffffffffffffffffffffffffffffffffffff1663f2fde38b336040518263ffffffff167c0100000000000000000000000000000000000000000000000000000000028152600401808273ffffffffffffffffffffffffffffffffffffffff1673ffffffffffffffffffffffffffffffffffffffff168152602001915050600060405180830381600087803b15801561102b57600080fd5b505af115801561103f573d6000803e3d6000fd5b50505050565b6040805190810160405280600781526020017f736572766963650000000000000000000000000000000000000000000000000081525081565b60055481565b6040805190810160405280600481526020017f646170700000000000000000000000000000000000000000000000000000000081525081565b600160009054906101000a900473ffffffffffffffffffffffffffffffffffffffff1681565b6000808260ff1611801561110457506110fa610f0a565b60ff168260ff1611155b151561110f57600080fd5b6000600a60008460ff1660ff16815260200190815260200160002054141561113b576002549050611158565b600a60008360ff1660ff1681526020019081526020016000205490505b919050565b60006040805190810160405280600481526020017f646170700000000000000000000000000000000000000000000000000000000081525061119f3382610b98565b6111a8856119a7565b91506111b48285611b56565b6111be8284611c25565b5050505050565b611204336040805190810160405280600581526020017f61646d696e000000000000000000000000000000000000000000000000000000815250610b98565b61120e8282611cf4565b5050565b600061121c610c19565b151561122757600080fd5b600660003373ffffffffffffffffffffffffffffffffffffffff1673ffffffffffffffffffffffffffffffffffffffff16815260200190815260200160002054905060008111151561127857600080fd5b6000600660003373ffffffffffffffffffffffffffffffffffffffff1673ffffffffffffffffffffffffffffffffffffffff168152602001908152602001600020819055506112c73382611e45565b50565b6000808260ff161180156112eb57506112e1610f0a565b60ff168260ff1611155b15156112f657600080fd5b6000600c60008460ff1660ff16815260200190815260200160002054141561132257600e54905061133f565b600c60008360ff1660ff1681526020019081526020016000205490505b919050565b611383336040805190810160405280600581526020017f61646d696e000000000000000000000000000000000000000000000000000000815250610b98565b61138d8282611f53565b5050565b60045481565b6000600b54905090565b60106020528060005260406000206000915090505481565b6040805190810160405280600581526020017f61646d696e00000000000000000000000000000000000000000000000000000081525081565b60006114046113ff610c25565b6112ca565b905090565b600061141b611416610c25565b6110e3565b905090565b600080601060008473ffffffffffffffffffffffffffffffffffffffff1673ffffffffffffffffffffffffffffffffffffffff1681526020019081526020016000205411151561146f57600080fd5b601060008373ffffffffffffffffffffffffffffffffffffffff1673ffffffffffffffffffffffffffffffffffffffff1681526020019081526020016000205490506000601060008473ffffffffffffffffffffffffffffffffffffffff1673ffffffffffffffffffffffffffffffffffffffff168152602001908152602001600020819055508173ffffffffffffffffffffffffffffffffffffffff166108fc829081150290604051600060405180830381858888f1935050505015801561153c573d6000803e3d6000fd5b508173ffffffffffffffffffffffffffffffffffffffff167fd7dee2702d63ad89917b6a4da9981c90c4d24f8c2bdfd64c604ecae57d8d0651826040518082815260200191505060405180910390a25050565b6040805190810160405280600781526020017f73657276696365000000000000000000000000000000000000000000000000008152506115cf3382610b98565b6115d8826120a4565b5050565b6000809054906101000a900473ffffffffffffffffffffffffffffffffffffffff1681565b600061160d83836120f8565b61161682611689565b9050600f5461163c611626610eed565b61162e6113f2565b61212590919063ffffffff16565b108061164a5750600f548110155b151561165557600080fd5b61165d6113f2565b61167782611669610eed565b6116cb90919063ffffffff16565b1115151561168457600080fd5b505050565b6000806000611696611409565b91506116bf826116b1600b548761213e90919063ffffffff16565b61217690919063ffffffff16565b90508092505050919050565b600081830190508281101515156116de57fe5b80905092915050565b6000806000670de0b6b3a7640000848115156116ff57fe5b06925061170a611409565b9150611738611717611397565b61172a848661213e90919063ffffffff16565b61217690919063ffffffff16565b905061178c81601060003373ffffffffffffffffffffffffffffffffffffffff1673ffffffffffffffffffffffffffffffffffffffff168152602001908152602001600020546116cb90919063ffffffff16565b601060003373ffffffffffffffffffffffffffffffffffffffff1673ffffffffffffffffffffffffffffffffffffffff168152602001908152602001600020819055506117e4816011546116cb90919063ffffffff16565b60118190555061180685611801858761212590919063ffffffff16565b61218c565b5050505050565b60006118198383612225565b61182282611689565b905061183561182f610c25565b82612229565b505050565b600034905060115461186c823073ffffffffffffffffffffffffffffffffffffffff163161212590919063ffffffff16565b10156118c5576118c26118b36118a2833073ffffffffffffffffffffffffffffffffffffffff163161212590919063ffffffff16565b60115461212590919063ffffffff16565b8261212590919063ffffffff16565b90505b600160009054906101000a900473ffffffffffffffffffffffffffffffffffffffff1673ffffffffffffffffffffffffffffffffffffffff166108fc829081150290604051600060405180830381858888f1935050505015801561192d573d6000803e3d6000fd5b5050565b5050565b61193f828261194e565b151561194a57600080fd5b5050565b60008260000160008373ffffffffffffffffffffffffffffffffffffffff1673ffffffffffffffffffffffffffffffffffffffff16815260200190815260200160002060009054906101000a900460ff16905092915050565b6000816004541015156119b957600080fd5b816005541115156119c957600080fd5b60ff6009805490501015156119dd57600080fd5b60006009805490501480611a34575081600860006009600160098054905003815481101515611a0857fe5b9060005260206000200154815260200190815260200160002060009054906101000a900460ff1660ff16105b1515611a3f57600080fd5b600982908060018154018082558091505090600182039060005260206000200160009091929091909150556008600084815260200190815260200160002060006101000a81548160ff021916908360ff16021790555060016009805490500160086000600554815260200190815260200160002060006101000a81548160ff021916908360ff160217905550427f7a43ef9fe7835ed757868b8ce7d6c2b9f2903e43391b223b99a7cf0c9092759c6008600085815260200190815260200160002060009054906101000a900460ff1684604051808360ff1681526020018281526020019250505060405180910390a26008600083815260200190815260200160002060009054906101000a900460ff169050919050565b6000808360ff16118015611b775750611b6d610f0a565b60ff168360ff1611155b1515611b8257600080fd5b600c60008460ff1660ff16815260200190815260200160002054905081600c60008560ff1660ff16815260200190815260200160002081905550427fdbabfacca738260ddce8370c8478a679770d1ee00903e0f39af54f9c724f30468483600c60008860ff1660ff16815260200190815260200160002054604051808460ff168152602001838152602001828152602001935050505060405180910390a2505050565b6000808360ff16118015611c465750611c3c610f0a565b60ff168360ff1611155b1515611c5157600080fd5b600a60008460ff1660ff16815260200190815260200160002054905081600a60008560ff1660ff16815260200190815260200160002081905550427ff097b3b215e6a581146face4d463e05af77eab2b46441cd9586e78855ef44e248483600a60008860ff1660ff16815260200190815260200160002054604051808460ff168152602001838152602001828152602001935050505060405180910390a2505050565b611d71826007836040518082805190602001908083835b602083101515611d305780518252602082019150602081019050602083039250611d0b565b6001836020036101000a03801982511681845116808217855250505050505090500191505090815260200160405180910390206122a190919063ffffffff16565b7fd211483f91fc6eff862467f8de606587a30c8fc9981056f051b897a418df803a8282604051808373ffffffffffffffffffffffffffffffffffffffff1673ffffffffffffffffffffffffffffffffffffffff16815260200180602001828103825283818151815260200191508051906020019080838360005b83811015611e06578082015181840152602081019050611deb565b50505050905090810190601f168015611e335780820380516001836020036101000a031916815260200191505b50935050505060405180910390a15050565b6000809054906101000a900473ffffffffffffffffffffffffffffffffffffffff1673ffffffffffffffffffffffffffffffffffffffff166340c10f1983836040518363ffffffff167c0100000000000000000000000000000000000000000000000000000000028152600401808373ffffffffffffffffffffffffffffffffffffffff1673ffffffffffffffffffffffffffffffffffffffff16815260200182815260200192505050602060405180830381600087803b158015611f0957600080fd5b505af1158015611f1d573d6000803e3d6000fd5b505050506040513d6020811015611f3357600080fd5b81019080805190602001909291905050501515611f4f57600080fd5b5050565b611fd0826007836040518082805190602001908083835b602083101515611f8f5780518252602082019150602081019050602083039250611f6a565b6001836020036101000a03801982511681845116808217855250505050505090500191505090815260200160405180910390206122ff90919063ffffffff16565b7fbfec83d64eaa953f2708271a023ab9ee82057f8f3578d548c1a4ba0b5b7004898282604051808373ffffffffffffffffffffffffffffffffffffffff1673ffffffffffffffffffffffffffffffffffffffff16815260200180602001828103825283818151815260200191508051906020019080838360005b8381101561206557808201518184015260208101905061204a565b50505050905090810190601f1680156120925780820380516001836020036101000a031916815260200191505b50935050505060405180910390a15050565b6000600b54905081600b81905550427feee2990117e261ad836c99206b5a81160bd3ea73bdf8b128b1ead5143906649a82600b54604051808381526020018281526020019250505060405180910390a25050565b600454421015801561210c57506005544211155b151561211757600080fd5b612121828261235d565b5050565b600082821115151561213357fe5b818303905092915050565b6000808314156121515760009050612170565b818302905081838281151561216257fe5b0414151561216c57fe5b8090505b92915050565b6000818381151561218357fe5b04905092915050565b6121de81600660008573ffffffffffffffffffffffffffffffffffffffff1673ffffffffffffffffffffffffffffffffffffffff168152602001908152602001600020546116cb90919063ffffffff16565b600660008473ffffffffffffffffffffffffffffffffffffffff1673ffffffffffffffffffffffffffffffffffffffff168152602001908152602001600020819055505050565b5050565b60008260ff16118015612249575061223f610f0a565b60ff168260ff1611155b151561225457600080fd5b61228081600d60008560ff1660ff168152602001908152602001600020546116cb90919063ffffffff16565b600d60008460ff1660ff168152602001908152602001600020819055505050565b60008260000160008373ffffffffffffffffffffffffffffffffffffffff1673ffffffffffffffffffffffffffffffffffffffff16815260200190815260200160002060006101000a81548160ff0219169083151502179055505050565b60018260000160008373ffffffffffffffffffffffffffffffffffffffff1673ffffffffffffffffffffffffffffffffffffffff16815260200190815260200160002060006101000a81548160ff0219169083151502179055505050565b600073ffffffffffffffffffffffffffffffffffffffff168273ffffffffffffffffffffffffffffffffffffffff161415151561239957600080fd5b600081141515156123a957600080fd5b50505600a165627a7a7230582060fe062bd7d83368b9299554aa391030da1e5602716fdccc4d45413cf7ba80a50029",
  "source": "pragma solidity 0.4.24;\r\n\r\nimport \"./CWTPToken.sol\";\r\nimport \"./SteppedRateCrowdsale.sol\";\r\nimport \"./SteppedCapCrowdsale.sol\";\r\nimport \"openzeppelin-solidity/contracts/crowdsale/distribution/PostDeliveryCrowdsale.sol\";\r\nimport \"openzeppelin-solidity/contracts/crowdsale/emission/MintedCrowdsale.sol\";\r\nimport \"openzeppelin-solidity/contracts/ownership/rbac/RBACWithAdmin.sol\";\r\n\r\ncontract CWTPTokenSale is PostDeliveryCrowdsale, MintedCrowdsale, RBACWithAdmin, SteppedRateCrowdsale, SteppedCapCrowdsale {\r\n\r\n  string public constant ROLE_DAPP = \"dapp\";\r\n  string public constant ROLE_SRV = \"service\";\r\n\r\n  mapping (address => uint256) public deposited;\r\n  event Refunded(address indexed beneficiary, uint256 weiAmount);\r\n  uint256 private _totalRefundDeposit;\r\n\r\n  constructor(uint256 _startTime, uint256 _endTime, uint256 _cap, uint256 _minAmount, uint256 _rate, address _wallet, ERC20 _tokenAddress) public\r\n    TimedCrowdsale(_startTime, _endTime)\r\n    SteppedCapCrowdsale(_cap, _minAmount)\r\n    Crowdsale(_rate, _wallet, _tokenAddress)\r\n  {\r\n    require(Ownable(_tokenAddress) != address(0));\r\n    addRole(msg.sender, ROLE_DAPP);\r\n    addRole(msg.sender, ROLE_SRV);\r\n    //addRole(address(0x000000000000000000000), ROLE_DAPP);\r\n  }\r\n\r\n  function addCrowdsaleStep(uint256 _timestamp, uint256 _cap, uint256 _rate) onlyRole(ROLE_DAPP) public{\r\n    uint8 step = _addStep(_timestamp);\r\n    _setStepCap(step, _cap);\r\n    _setStepRate(step, _rate);\r\n  }\r\n\r\n  function setEthUsdRate(uint256 usdRate) onlyRole(ROLE_SRV) public{\r\n    _setEthUsdRate(usdRate);\r\n  }\r\n\r\n  function transferTokenOwnership() onlyAdmin public\r\n  {\r\n    // solium-disable-next-line security/no-block-members\r\n    require(closingTime < block.timestamp);\r\n    Ownable(token).transferOwnership(msg.sender);\r\n  }\r\n\r\n  function _processPurchase(address _beneficiary, uint256 _tokenAmount) internal {\r\n    uint256 dep = (_tokenAmount % 1 ether);\r\n    uint256 currentRate = getCurrentRate();\r\n    uint256 refund = dep.mul(currentRate).div(getEthUsdRate());\r\n    deposited[msg.sender] = deposited[msg.sender].add(refund);\r\n    _totalRefundDeposit = _totalRefundDeposit.add(refund);\r\n    super._processPurchase(_beneficiary, _tokenAmount.sub(dep));\r\n  }\r\n\r\n  function _forwardFunds() internal {\r\n    uint256 funds = msg.value;\r\n    if (address(this).balance.sub(funds) < _totalRefundDeposit)\r\n    {\r\n      funds = funds.sub(_totalRefundDeposit.sub(address(this).balance.sub(funds)));\r\n    }\r\n    wallet.transfer(funds);\r\n  }\r\n\r\n  function refund(address investor) public {\r\n    require(deposited[investor] > 0);\r\n    uint256 depositedValue = deposited[investor];\r\n    deposited[investor] = 0;\r\n    investor.transfer(depositedValue);\r\n    emit Refunded(investor, depositedValue);\r\n  }\r\n\r\n  function CloseContract() onlyAdmin public {\r\n    if(Ownable(token).owner() == address(this))\r\n      transferTokenOwnership();\r\n    selfdestruct(msg.sender);\r\n  }\r\n}\r\n",
  "sourcePath": "C:\\Users\\maxwell\\Documents\\GitHub\\cryptoworkplace.io\\res\\Etherium\\CWP\\contracts\\CWTPTokenSale.sol",
  "compiler": {
    "name": "solc",
    "version": "0.4.24+commit.e67f0147.Emscripten.clang"
  },
  "schemaVersion": "2.0.0",
  "updatedAt": "2018-06-02T17:49:42.528Z"
}