{
  "contractName": "CWTPTokenSale",
  "abi": [
    {
      "constant": true,
      "inputs": [
        {
          "name": "addr",
          "type": "address"
        },
        {
          "name": "roleName",
          "type": "string"
        }
      ],
      "name": "checkRole",
      "outputs": [],
      "payable": false,
      "stateMutability": "view",
      "type": "function"
    },
    {
      "constant": true,
      "inputs": [],
      "name": "hasClosed",
      "outputs": [
        {
          "name": "",
          "type": "bool"
        }
      ],
      "payable": false,
      "stateMutability": "view",
      "type": "function"
    },
    {
      "constant": true,
      "inputs": [],
      "name": "getCurrentStep",
      "outputs": [
        {
          "name": "",
          "type": "uint8"
        }
      ],
      "payable": false,
      "stateMutability": "view",
      "type": "function"
    },
    {
      "constant": true,
      "inputs": [
        {
          "name": "addr",
          "type": "address"
        },
        {
          "name": "roleName",
          "type": "string"
        }
      ],
      "name": "hasRole",
      "outputs": [
        {
          "name": "",
          "type": "bool"
        }
      ],
      "payable": false,
      "stateMutability": "view",
      "type": "function"
    },
    {
      "constant": true,
      "inputs": [
        {
          "name": "_step",
          "type": "uint8"
        }
      ],
      "name": "getStepTokenSold",
      "outputs": [
        {
          "name": "",
          "type": "uint256"
        }
      ],
      "payable": false,
      "stateMutability": "view",
      "type": "function"
    },
    {
      "constant": true,
      "inputs": [
        {
          "name": "",
          "type": "address"
        }
      ],
      "name": "balances",
      "outputs": [
        {
          "name": "",
          "type": "uint256"
        }
      ],
      "payable": false,
      "stateMutability": "view",
      "type": "function"
    },
    {
      "constant": true,
      "inputs": [],
      "name": "getCurrentTokenSold",
      "outputs": [
        {
          "name": "",
          "type": "uint256"
        }
      ],
      "payable": false,
      "stateMutability": "view",
      "type": "function"
    },
    {
      "constant": true,
      "inputs": [],
      "name": "rate",
      "outputs": [
        {
          "name": "",
          "type": "uint256"
        }
      ],
      "payable": false,
      "stateMutability": "view",
      "type": "function"
    },
    {
      "constant": true,
      "inputs": [],
      "name": "getStepsCout",
      "outputs": [
        {
          "name": "",
          "type": "uint8"
        }
      ],
      "payable": false,
      "stateMutability": "view",
      "type": "function"
    },
    {
      "constant": true,
      "inputs": [],
      "name": "weiRaised",
      "outputs": [
        {
          "name": "",
          "type": "uint256"
        }
      ],
      "payable": false,
      "stateMutability": "view",
      "type": "function"
    },
    {
      "constant": true,
      "inputs": [],
      "name": "ROLE_SRV",
      "outputs": [
        {
          "name": "",
          "type": "string"
        }
      ],
      "payable": false,
      "stateMutability": "view",
      "type": "function"
    },
    {
      "constant": true,
      "inputs": [],
      "name": "closingTime",
      "outputs": [
        {
          "name": "",
          "type": "uint256"
        }
      ],
      "payable": false,
      "stateMutability": "view",
      "type": "function"
    },
    {
      "constant": true,
      "inputs": [],
      "name": "ROLE_DAPP",
      "outputs": [
        {
          "name": "",
          "type": "string"
        }
      ],
      "payable": false,
      "stateMutability": "view",
      "type": "function"
    },
    {
      "constant": true,
      "inputs": [],
      "name": "wallet",
      "outputs": [
        {
          "name": "",
          "type": "address"
        }
      ],
      "payable": false,
      "stateMutability": "view",
      "type": "function"
    },
    {
      "constant": true,
      "inputs": [
        {
          "name": "step",
          "type": "uint8"
        }
      ],
      "name": "getStepRate",
      "outputs": [
        {
          "name": "",
          "type": "uint256"
        }
      ],
      "payable": false,
      "stateMutability": "view",
      "type": "function"
    },
    {
      "constant": true,
      "inputs": [
        {
          "name": "",
          "type": "uint8"
        }
      ],
      "name": "steps",
      "outputs": [
        {
          "name": "",
          "type": "uint256"
        }
      ],
      "payable": false,
      "stateMutability": "view",
      "type": "function"
    },
    {
      "constant": false,
      "inputs": [
        {
          "name": "addr",
          "type": "address"
        },
        {
          "name": "roleName",
          "type": "string"
        }
      ],
      "name": "adminRemoveRole",
      "outputs": [],
      "payable": false,
      "stateMutability": "nonpayable",
      "type": "function"
    },
    {
      "constant": true,
      "inputs": [
        {
          "name": "_step",
          "type": "uint8"
        }
      ],
      "name": "getStepCap",
      "outputs": [
        {
          "name": "",
          "type": "uint256"
        }
      ],
      "payable": false,
      "stateMutability": "view",
      "type": "function"
    },
    {
      "constant": false,
      "inputs": [
        {
          "name": "addr",
          "type": "address"
        },
        {
          "name": "roleName",
          "type": "string"
        }
      ],
      "name": "adminAddRole",
      "outputs": [],
      "payable": false,
      "stateMutability": "nonpayable",
      "type": "function"
    },
    {
      "constant": true,
      "inputs": [],
      "name": "openingTime",
      "outputs": [
        {
          "name": "",
          "type": "uint256"
        }
      ],
      "payable": false,
      "stateMutability": "view",
      "type": "function"
    },
    {
      "constant": true,
      "inputs": [],
      "name": "getEthUsdRate",
      "outputs": [
        {
          "name": "",
          "type": "uint256"
        }
      ],
      "payable": false,
      "stateMutability": "view",
      "type": "function"
    },
    {
      "constant": true,
      "inputs": [
        {
          "name": "",
          "type": "address"
        }
      ],
      "name": "deposited",
      "outputs": [
        {
          "name": "",
          "type": "uint256"
        }
      ],
      "payable": false,
      "stateMutability": "view",
      "type": "function"
    },
    {
      "constant": true,
      "inputs": [],
      "name": "ROLE_ADMIN",
      "outputs": [
        {
          "name": "",
          "type": "string"
        }
      ],
      "payable": false,
      "stateMutability": "view",
      "type": "function"
    },
    {
      "constant": true,
      "inputs": [],
      "name": "getCurrentCap",
      "outputs": [
        {
          "name": "",
          "type": "uint256"
        }
      ],
      "payable": false,
      "stateMutability": "view",
      "type": "function"
    },
    {
      "constant": false,
      "inputs": [
        {
          "name": "_beneficiary",
          "type": "address"
        }
      ],
      "name": "buyTokens",
      "outputs": [],
      "payable": true,
      "stateMutability": "payable",
      "type": "function"
    },
    {
      "constant": true,
      "inputs": [],
      "name": "getCurrentRate",
      "outputs": [
        {
          "name": "",
          "type": "uint256"
        }
      ],
      "payable": false,
      "stateMutability": "view",
      "type": "function"
    },
    {
      "constant": true,
      "inputs": [],
      "name": "token",
      "outputs": [
        {
          "name": "",
          "type": "address"
        }
      ],
      "payable": false,
      "stateMutability": "view",
      "type": "function"
    },
    {
      "inputs": [
        {
          "name": "_startTime",
          "type": "uint256"
        },
        {
          "name": "_endTime",
          "type": "uint256"
        },
        {
          "name": "_cap",
          "type": "uint256"
        },
        {
          "name": "_minAmount",
          "type": "uint256"
        },
        {
          "name": "_rate",
          "type": "uint256"
        },
        {
          "name": "_wallet",
          "type": "address"
        },
        {
          "name": "_tokenAddress",
          "type": "address"
        }
      ],
      "payable": false,
      "stateMutability": "nonpayable",
      "type": "constructor"
    },
    {
      "payable": true,
      "stateMutability": "payable",
      "type": "fallback"
    },
    {
      "anonymous": false,
      "inputs": [
        {
          "indexed": true,
          "name": "beneficiary",
          "type": "address"
        },
        {
          "indexed": false,
          "name": "weiAmount",
          "type": "uint256"
        }
      ],
      "name": "Refunded",
      "type": "event"
    },
    {
      "anonymous": false,
      "inputs": [
        {
          "indexed": true,
          "name": "timestamp",
          "type": "uint256"
        },
        {
          "indexed": false,
          "name": "step",
          "type": "uint256"
        },
        {
          "indexed": false,
          "name": "oldCap",
          "type": "uint256"
        },
        {
          "indexed": false,
          "name": "newCap",
          "type": "uint256"
        }
      ],
      "name": "SetStepCap",
      "type": "event"
    },
    {
      "anonymous": false,
      "inputs": [
        {
          "indexed": true,
          "name": "timestamp",
          "type": "uint256"
        },
        {
          "indexed": false,
          "name": "oldRate",
          "type": "uint256"
        },
        {
          "indexed": false,
          "name": "newRate",
          "type": "uint256"
        }
      ],
      "name": "UsdRateUpdated",
      "type": "event"
    },
    {
      "anonymous": false,
      "inputs": [
        {
          "indexed": true,
          "name": "timestamp",
          "type": "uint256"
        },
        {
          "indexed": false,
          "name": "step",
          "type": "uint256"
        },
        {
          "indexed": false,
          "name": "oldRate",
          "type": "uint256"
        },
        {
          "indexed": false,
          "name": "newRate",
          "type": "uint256"
        }
      ],
      "name": "SetStepRate",
      "type": "event"
    },
    {
      "anonymous": false,
      "inputs": [
        {
          "indexed": true,
          "name": "timestamp",
          "type": "uint256"
        },
        {
          "indexed": false,
          "name": "step",
          "type": "uint256"
        },
        {
          "indexed": false,
          "name": "dueDate",
          "type": "uint256"
        }
      ],
      "name": "AddStep",
      "type": "event"
    },
    {
      "anonymous": false,
      "inputs": [
        {
          "indexed": false,
          "name": "addr",
          "type": "address"
        },
        {
          "indexed": false,
          "name": "roleName",
          "type": "string"
        }
      ],
      "name": "RoleAdded",
      "type": "event"
    },
    {
      "anonymous": false,
      "inputs": [
        {
          "indexed": false,
          "name": "addr",
          "type": "address"
        },
        {
          "indexed": false,
          "name": "roleName",
          "type": "string"
        }
      ],
      "name": "RoleRemoved",
      "type": "event"
    },
    {
      "anonymous": false,
      "inputs": [
        {
          "indexed": true,
          "name": "purchaser",
          "type": "address"
        },
        {
          "indexed": true,
          "name": "beneficiary",
          "type": "address"
        },
        {
          "indexed": false,
          "name": "value",
          "type": "uint256"
        },
        {
          "indexed": false,
          "name": "amount",
          "type": "uint256"
        }
      ],
      "name": "TokenPurchase",
      "type": "event"
    },
    {
      "constant": false,
      "inputs": [
        {
          "name": "_timestamp",
          "type": "uint256"
        },
        {
          "name": "_cap",
          "type": "uint256"
        },
        {
          "name": "_rate",
          "type": "uint256"
        }
      ],
      "name": "addCrowdsaleStep",
      "outputs": [],
      "payable": false,
      "stateMutability": "nonpayable",
      "type": "function"
    },
    {
      "constant": false,
      "inputs": [
        {
          "name": "usdRate",
          "type": "uint256"
        }
      ],
      "name": "setEthUsdRate",
      "outputs": [],
      "payable": false,
      "stateMutability": "nonpayable",
      "type": "function"
    },
    {
      "constant": true,
      "inputs": [
        {
          "name": "amount",
          "type": "uint256"
        }
      ],
      "name": "getPriceForTokens",
      "outputs": [
        {
          "name": "",
          "type": "uint256"
        }
      ],
      "payable": false,
      "stateMutability": "view",
      "type": "function"
    },
    {
      "constant": false,
      "inputs": [],
      "name": "transferTokenOwnership",
      "outputs": [],
      "payable": false,
      "stateMutability": "nonpayable",
      "type": "function"
    },
    {
      "constant": false,
      "inputs": [
        {
          "name": "investor",
          "type": "address"
        }
      ],
      "name": "refund",
      "outputs": [],
      "payable": false,
      "stateMutability": "nonpayable",
      "type": "function"
    },
    {
      "constant": false,
      "inputs": [],
      "name": "CloseContract",
      "outputs": [],
      "payable": false,
      "stateMutability": "nonpayable",
      "type": "function"
    }
  ],
  "bytecode": "0x60806040523480156200001157600080fd5b5060405160e08062002c1183398101806040528101908080519060200190929190805190602001909291908051906020019092919080519060200190929190805190602001909291908051906020019092919080519060200190929190505050848488888686866000831115156200008857600080fd5b600073ffffffffffffffffffffffffffffffffffffffff168273ffffffffffffffffffffffffffffffffffffffff1614151515620000c557600080fd5b600073ffffffffffffffffffffffffffffffffffffffff168173ffffffffffffffffffffffffffffffffffffffff16141515156200010257600080fd5b8260028190555081600160006101000a81548173ffffffffffffffffffffffffffffffffffffffff021916908373ffffffffffffffffffffffffffffffffffffffff160217905550806000806101000a81548173ffffffffffffffffffffffffffffffffffffffff021916908373ffffffffffffffffffffffffffffffffffffffff1602179055505050504282101515156200019d57600080fd5b818110151515620001ad57600080fd5b816004819055508060058190555050506200020d336040805190810160405280600581526020017f61646d696e00000000000000000000000000000000000000000000000000000081525062000357640100000000026401000000009004565b600160096000600554815260200190815260200160002060006101000a81548160ff021916908360ff160217905550600554600b6000600160ff1660ff1681526020019081526020016000208190555081601081905550806011819055505050600073ffffffffffffffffffffffffffffffffffffffff168173ffffffffffffffffffffffffffffffffffffffff1614151515620002aa57600080fd5b620002fa336040805190810160405280600481526020017f646170700000000000000000000000000000000000000000000000000000000081525062000357640100000000026401000000009004565b6200034a336040805190810160405280600781526020017f736572766963650000000000000000000000000000000000000000000000000081525062000357640100000000026401000000009004565b505050505050506200051b565b620003e6826008836040518082805190602001908083835b6020831015156200039657805182526020820191506020810190506020830392506200036f565b6001836020036101000a0380198251168184511680821785525050505050509050019150509081526020016040518091039020620004bd640100000000026200260c179091906401000000009004565b7fbfec83d64eaa953f2708271a023ab9ee82057f8f3578d548c1a4ba0b5b7004898282604051808373ffffffffffffffffffffffffffffffffffffffff1673ffffffffffffffffffffffffffffffffffffffff16815260200180602001828103825283818151815260200191508051906020019080838360005b838110156200047d57808201518184015260208101905062000460565b50505050905090810190601f168015620004ab5780820380516001836020036101000a031916815260200191505b50935050505060405180910390a15050565b60018260000160008373ffffffffffffffffffffffffffffffffffffffff1673ffffffffffffffffffffffffffffffffffffffff16815260200190815260200160002060006101000a81548160ff0219169083151502179055505050565b6126e6806200052b6000396000f3006080604052600436106101a1576000357c0100000000000000000000000000000000000000000000000000000000900463ffffffff1680630921f5bf146101ac5780630988ca8c146101ed5780631515bc2b146102765780631d3824ea146102a5578063217fe6c6146102d6578063234183cd146103775780632675c123146103bb57806327e235e3146103d2578063296e4525146104295780632c4e722e146104545780632ca8ef811461047f5780634042b66f146104b05780634056675e146104db57806341df5b74146104f25780634b6753bc1461058257806351a0daf9146105ad578063521eb2731461063d578063557f0de41461069457806377780729146106d857806382f128391461071c57806388cee87e1461075d578063a340ebee146107e6578063b25fa92c1461082a578063b7a8807c146108b3578063c8583e69146108de578063cb13cddb14610909578063d391014b14610960578063d8c30700146109f0578063ec8ac4d814610a1b578063f7fb07b014610a51578063fa89401a14610a7c578063fb6f93a414610abf578063fc0c546a14610aec575b6101aa33610b43565b005b3480156101b857600080fd5b506101d760048036038101908080359060200190929190505050610c11565b6040518082815260200191505060405180910390f35b3480156101f957600080fd5b50610274600480360381019080803573ffffffffffffffffffffffffffffffffffffffff169060200190929190803590602001908201803590602001908080601f0160208091040260200160405190810160405280939291908181526020018383808284378201915050505050509192919290505050610c4d565b005b34801561028257600080fd5b5061028b610cce565b604051808215151515815260200191505060405180910390f35b3480156102b157600080fd5b506102ba610cda565b604051808260ff1660ff16815260200191505060405180910390f35b3480156102e257600080fd5b5061035d600480360381019080803573ffffffffffffffffffffffffffffffffffffffff169060200190929190803590602001908201803590602001908080601f0160208091040260200160405190810160405280939291908181526020018383808284378201915050505050509192919290505050610d62565b604051808215151515815260200191505060405180910390f35b34801561038357600080fd5b506103a5600480360381019080803560ff169060200190929190505050610de9565b6040518082815260200191505060405180910390f35b3480156103c757600080fd5b506103d0610e36565b005b3480156103de57600080fd5b50610413600480360381019080803573ffffffffffffffffffffffffffffffffffffffff169060200190929190505050610fa5565b6040518082815260200191505060405180910390f35b34801561043557600080fd5b5061043e610fbd565b6040518082815260200191505060405180910390f35b34801561046057600080fd5b50610469610fd4565b6040518082815260200191505060405180910390f35b34801561048b57600080fd5b50610494610fda565b604051808260ff1660ff16815260200191505060405180910390f35b3480156104bc57600080fd5b506104c5610fea565b6040518082815260200191505060405180910390f35b3480156104e757600080fd5b506104f0610ff0565b005b3480156104fe57600080fd5b50610507611115565b6040518080602001828103825283818151815260200191508051906020019080838360005b8381101561054757808201518184015260208101905061052c565b50505050905090810190601f1680156105745780820380516001836020036101000a031916815260200191505b509250505060405180910390f35b34801561058e57600080fd5b5061059761114e565b6040518082815260200191505060405180910390f35b3480156105b957600080fd5b506105c2611154565b6040518080602001828103825283818151815260200191508051906020019080838360005b838110156106025780820151818401526020810190506105e7565b50505050905090810190601f16801561062f5780820380516001836020036101000a031916815260200191505b509250505060405180910390f35b34801561064957600080fd5b5061065261118d565b604051808273ffffffffffffffffffffffffffffffffffffffff1673ffffffffffffffffffffffffffffffffffffffff16815260200191505060405180910390f35b3480156106a057600080fd5b506106c2600480360381019080803560ff1690602001909291905050506111b3565b6040518082815260200191505060405180910390f35b3480156106e457600080fd5b50610706600480360381019080803560ff16906020019092919050505061122d565b6040518082815260200191505060405180910390f35b34801561072857600080fd5b5061075b600480360381019080803590602001909291908035906020019092919080359060200190929190505050611245565b005b34801561076957600080fd5b506107e4600480360381019080803573ffffffffffffffffffffffffffffffffffffffff169060200190929190803590602001908201803590602001908080601f01602080910402602001604051908101604052809392919081815260200183838082843782019150505050505091929192905050506112ad565b005b3480156107f257600080fd5b50610814600480360381019080803560ff1690602001909291905050506112fa565b6040518082815260200191505060405180910390f35b34801561083657600080fd5b506108b1600480360381019080803573ffffffffffffffffffffffffffffffffffffffff169060200190929190803590602001908201803590602001908080601f0160208091040260200160405190810160405280939291908181526020018383808284378201915050505050509192919290505050611374565b005b3480156108bf57600080fd5b506108c86113c1565b6040518082815260200191505060405180910390f35b3480156108ea57600080fd5b506108f36113c7565b6040518082815260200191505060405180910390f35b34801561091557600080fd5b5061094a600480360381019080803573ffffffffffffffffffffffffffffffffffffffff1690602001909291905050506113d1565b6040518082815260200191505060405180910390f35b34801561096c57600080fd5b506109756113e9565b6040518080602001828103825283818151815260200191508051906020019080838360005b838110156109b557808201518184015260208101905061099a565b50505050905090810190601f1680156109e25780820380516001836020036101000a031916815260200191505b509250505060405180910390f35b3480156109fc57600080fd5b50610a05611422565b6040518082815260200191505060405180910390f35b610a4f600480360381019080803573ffffffffffffffffffffffffffffffffffffffff169060200190929190505050610b43565b005b348015610a5d57600080fd5b50610a66611439565b6040518082815260200191505060405180910390f35b348015610a8857600080fd5b50610abd600480360381019080803573ffffffffffffffffffffffffffffffffffffffff169060200190929190505050611450565b005b348015610acb57600080fd5b50610aea600480360381019080803590602001909291905050506115bf565b005b348015610af857600080fd5b50610b0161160c565b604051808273ffffffffffffffffffffffffffffffffffffffff1673ffffffffffffffffffffffffffffffffffffffff16815260200191505060405180910390f35b600080349150610b538383611631565b610b5c826116b9565b9050610b73826003546116fb90919063ffffffff16565b600381905550610b838382611717565b8273ffffffffffffffffffffffffffffffffffffffff163373ffffffffffffffffffffffffffffffffffffffff167f623b3804fa71d67900d064613da8f94b9617215ee90799290593e1745087ad188484604051808381526020018281526020019250505060405180910390a3610bfa838361183d565b610c02611894565b610c0c838361198b565b505050565b6000610c46610c1e6113c7565b610c38610c29611439565b8561198f90919063ffffffff16565b6119c790919063ffffffff16565b9050919050565b610cca826008836040518082805190602001908083835b602083101515610c895780518252602082019150602081019050602083039250610c64565b6001836020036101000a03801982511681845116808217855250505050505090500191505090815260200160405180910390206119dd90919063ffffffff16565b5050565b60006005544211905090565b60008060008090505b600a805490508160ff161015610d2c57600a8160ff16815481101515610d0557fe5b9060005260206000200154915081421015610d1f57610d2c565b8080600101915050610ce3565b81421115610d3a5760055491505b6009600083815260200190815260200160002060009054906101000a900460ff169250505090565b6000610de1836008846040518082805190602001908083835b602083101515610da05780518252602082019150602081019050602083039250610d7b565b6001836020036101000a03801982511681845116808217855250505050505090500191505090815260200160405180910390206119f690919063ffffffff16565b905092915050565b6000808260ff16118015610e0a5750610e00610fda565b60ff168260ff1611155b1515610e1557600080fd5b600f60008360ff1660ff168152602001908152602001600020549050919050565b610e75336040805190810160405280600581526020017f61646d696e000000000000000000000000000000000000000000000000000000815250610c4d565b610e7d610cce565b1515610e8857600080fd5b610e90611a4f565b3073ffffffffffffffffffffffffffffffffffffffff166000809054906101000a900473ffffffffffffffffffffffffffffffffffffffff1673ffffffffffffffffffffffffffffffffffffffff16638da5cb5b6040518163ffffffff167c0100000000000000000000000000000000000000000000000000000000028152600401602060405180830381600087803b158015610f2c57600080fd5b505af1158015610f40573d6000803e3d6000fd5b505050506040513d6020811015610f5657600080fd5b810190808051906020019092919050505073ffffffffffffffffffffffffffffffffffffffff161415610f8c57610f8b610ff0565b5b3373ffffffffffffffffffffffffffffffffffffffff16ff5b60066020528060005260406000206000915090505481565b6000610fcf610fca610cda565b610de9565b905090565b60025481565b60006001600a8054905001905090565b60035481565b61102f336040805190810160405280600581526020017f61646d696e000000000000000000000000000000000000000000000000000000815250610c4d565b4260055410151561103f57600080fd5b6000809054906101000a900473ffffffffffffffffffffffffffffffffffffffff1673ffffffffffffffffffffffffffffffffffffffff1663f2fde38b336040518263ffffffff167c0100000000000000000000000000000000000000000000000000000000028152600401808273ffffffffffffffffffffffffffffffffffffffff1673ffffffffffffffffffffffffffffffffffffffff168152602001915050600060405180830381600087803b1580156110fb57600080fd5b505af115801561110f573d6000803e3d6000fd5b50505050565b6040805190810160405280600781526020017f736572766963650000000000000000000000000000000000000000000000000081525081565b60055481565b6040805190810160405280600481526020017f646170700000000000000000000000000000000000000000000000000000000081525081565b600160009054906101000a900473ffffffffffffffffffffffffffffffffffffffff1681565b6000808260ff161180156111d457506111ca610fda565b60ff168260ff1611155b15156111df57600080fd5b6000600c60008460ff1660ff16815260200190815260200160002054141561120b576002549050611228565b600c60008360ff1660ff1681526020019081526020016000205490505b919050565b600b6020528060005260406000206000915090505481565b60006040805190810160405280600481526020017f64617070000000000000000000000000000000000000000000000000000000008152506112873382610c4d565b61129085611bd3565b915061129c8285611e02565b6112a68284611ed1565b5050505050565b6112ec336040805190810160405280600581526020017f61646d696e000000000000000000000000000000000000000000000000000000815250610c4d565b6112f68282611fa0565b5050565b6000808260ff1611801561131b5750611311610fda565b60ff168260ff1611155b151561132657600080fd5b6000600e60008460ff1660ff16815260200190815260200160002054141561135257601054905061136f565b600e60008360ff1660ff1681526020019081526020016000205490505b919050565b6113b3336040805190810160405280600581526020017f61646d696e000000000000000000000000000000000000000000000000000000815250610c4d565b6113bd82826120f1565b5050565b60045481565b6000600d54905090565b60126020528060005260406000206000915090505481565b6040805190810160405280600581526020017f61646d696e00000000000000000000000000000000000000000000000000000081525081565b600061143461142f610cda565b6112fa565b905090565b600061144b611446610cda565b6111b3565b905090565b600080601260008473ffffffffffffffffffffffffffffffffffffffff1673ffffffffffffffffffffffffffffffffffffffff1681526020019081526020016000205411151561149f57600080fd5b601260008373ffffffffffffffffffffffffffffffffffffffff1673ffffffffffffffffffffffffffffffffffffffff1681526020019081526020016000205490506000601260008473ffffffffffffffffffffffffffffffffffffffff1673ffffffffffffffffffffffffffffffffffffffff168152602001908152602001600020819055508173ffffffffffffffffffffffffffffffffffffffff166108fc829081150290604051600060405180830381858888f1935050505015801561156c573d6000803e3d6000fd5b508173ffffffffffffffffffffffffffffffffffffffff167fd7dee2702d63ad89917b6a4da9981c90c4d24f8c2bdfd64c604ecae57d8d0651826040518082815260200191505060405180910390a25050565b6040805190810160405280600781526020017f73657276696365000000000000000000000000000000000000000000000000008152506115ff3382610c4d565b61160882612242565b5050565b6000809054906101000a900473ffffffffffffffffffffffffffffffffffffffff1681565b600061163d8383612296565b611646826116b9565b905060115461166c611656610fbd565b61165e611422565b6122c390919063ffffffff16565b108061167a57506011548110155b151561168557600080fd5b61168d611422565b6116a782611699610fbd565b6116fb90919063ffffffff16565b111515156116b457600080fd5b505050565b60008060006116c6611439565b91506116ef826116e1600d548761198f90919063ffffffff16565b6119c790919063ffffffff16565b90508092505050919050565b6000818301905082811015151561170e57fe5b80905092915050565b6000806000670de0b6b3a76400008481151561172f57fe5b06925061173a611439565b91506117686117476113c7565b61175a848661198f90919063ffffffff16565b6119c790919063ffffffff16565b90506117bc81601260003373ffffffffffffffffffffffffffffffffffffffff1673ffffffffffffffffffffffffffffffffffffffff168152602001908152602001600020546116fb90919063ffffffff16565b601260003373ffffffffffffffffffffffffffffffffffffffff1673ffffffffffffffffffffffffffffffffffffffff16815260200190815260200160002081905550611814816013546116fb90919063ffffffff16565b6013819055506118368561183185876122c390919063ffffffff16565b6122dc565b5050505050565b60008061184a8484612424565b611853836116b9565b9150670de0b6b3a76400008281151561186857fe5b06905061188e611876610cda565b61188983856122c390919063ffffffff16565b612428565b50505050565b60003490506013546118c6823073ffffffffffffffffffffffffffffffffffffffff16316122c390919063ffffffff16565b101561191f5761191c61190d6118fc833073ffffffffffffffffffffffffffffffffffffffff16316122c390919063ffffffff16565b6013546122c390919063ffffffff16565b826122c390919063ffffffff16565b90505b600160009054906101000a900473ffffffffffffffffffffffffffffffffffffffff1673ffffffffffffffffffffffffffffffffffffffff166108fc829081150290604051600060405180830381858888f19350505050158015611987573d6000803e3d6000fd5b5050565b5050565b6000808314156119a257600090506119c1565b81830290508183828115156119b357fe5b041415156119bd57fe5b8090505b92915050565b600081838115156119d457fe5b04905092915050565b6119e782826119f6565b15156119f257600080fd5b5050565b60008260000160008373ffffffffffffffffffffffffffffffffffffffff1673ffffffffffffffffffffffffffffffffffffffff16815260200190815260200160002060009054906101000a900460ff16905092915050565b600080611a5a610cce565b1515611a6557600080fd5b600091505b600780549050821015611bcf5760066000600784815481101515611a8a57fe5b9060005260206000200160009054906101000a900473ffffffffffffffffffffffffffffffffffffffff1673ffffffffffffffffffffffffffffffffffffffff1673ffffffffffffffffffffffffffffffffffffffff168152602001908152602001600020549050600081111515611b0157600080fd5b600060066000600785815481101515611b1657fe5b9060005260206000200160009054906101000a900473ffffffffffffffffffffffffffffffffffffffff1673ffffffffffffffffffffffffffffffffffffffff1673ffffffffffffffffffffffffffffffffffffffff16815260200190815260200160002081905550611bc2600783815481101515611b9157fe5b9060005260206000200160009054906101000a900473ffffffffffffffffffffffffffffffffffffffff16826124a0565b8180600101925050611a6a565b5050565b600081600454101515611be557600080fd5b81600554111515611bf557600080fd5b60ff600a80549050101515611c0957600080fd5b6000600a805490501480611c6057508160096000600a6001600a8054905003815481101515611c3457fe5b9060005260206000200154815260200190815260200160002060009054906101000a900460ff1660ff16105b1515611c6b57600080fd5b600a82908060018154018082558091505090600182039060005260206000200160009091929091909150556009600084815260200190815260200160002060006101000a81548160ff021916908360ff1602179055506001600a805490500160096000600554815260200190815260200160002060006101000a81548160ff021916908360ff16021790555081600b60006009600086815260200190815260200160002060009054906101000a900460ff1660ff1660ff16815260200190815260200160002081905550600554600b600060096000600554815260200190815260200160002060009054906101000a900460ff1660ff1660ff16815260200190815260200160002081905550427f7a43ef9fe7835ed757868b8ce7d6c2b9f2903e43391b223b99a7cf0c9092759c6009600085815260200190815260200160002060009054906101000a900460ff1684604051808360ff1681526020018281526020019250505060405180910390a26009600083815260200190815260200160002060009054906101000a900460ff169050919050565b6000808360ff16118015611e235750611e19610fda565b60ff168360ff1611155b1515611e2e57600080fd5b600e60008460ff1660ff16815260200190815260200160002054905081600e60008560ff1660ff16815260200190815260200160002081905550427fdbabfacca738260ddce8370c8478a679770d1ee00903e0f39af54f9c724f30468483600e60008860ff1660ff16815260200190815260200160002054604051808460ff168152602001838152602001828152602001935050505060405180910390a2505050565b6000808360ff16118015611ef25750611ee8610fda565b60ff168360ff1611155b1515611efd57600080fd5b600c60008460ff1660ff16815260200190815260200160002054905081600c60008560ff1660ff16815260200190815260200160002081905550427ff097b3b215e6a581146face4d463e05af77eab2b46441cd9586e78855ef44e248483600c60008860ff1660ff16815260200190815260200160002054604051808460ff168152602001838152602001828152602001935050505060405180910390a2505050565b61201d826008836040518082805190602001908083835b602083101515611fdc5780518252602082019150602081019050602083039250611fb7565b6001836020036101000a03801982511681845116808217855250505050505090500191505090815260200160405180910390206125ae90919063ffffffff16565b7fd211483f91fc6eff862467f8de606587a30c8fc9981056f051b897a418df803a8282604051808373ffffffffffffffffffffffffffffffffffffffff1673ffffffffffffffffffffffffffffffffffffffff16815260200180602001828103825283818151815260200191508051906020019080838360005b838110156120b2578082015181840152602081019050612097565b50505050905090810190601f1680156120df5780820380516001836020036101000a031916815260200191505b50935050505060405180910390a15050565b61216e826008836040518082805190602001908083835b60208310151561212d5780518252602082019150602081019050602083039250612108565b6001836020036101000a038019825116818451168082178552505050505050905001915050908152602001604051809103902061260c90919063ffffffff16565b7fbfec83d64eaa953f2708271a023ab9ee82057f8f3578d548c1a4ba0b5b7004898282604051808373ffffffffffffffffffffffffffffffffffffffff1673ffffffffffffffffffffffffffffffffffffffff16815260200180602001828103825283818151815260200191508051906020019080838360005b838110156122035780820151818401526020810190506121e8565b50505050905090810190601f1680156122305780820380516001836020036101000a031916815260200191505b50935050505060405180910390a15050565b6000600d54905081600d81905550427feee2990117e261ad836c99206b5a81160bd3ea73bdf8b128b1ead5143906649a82600d54604051808381526020018281526020019250505060405180910390a25050565b60045442101580156122aa57506005544211155b15156122b557600080fd5b6122bf828261266a565b5050565b60008282111515156122d157fe5b818303905092915050565b6000600660008473ffffffffffffffffffffffffffffffffffffffff1673ffffffffffffffffffffffffffffffffffffffff16815260200190815260200160002054141561238b5760078290806001815401808255809150509060018203906000526020600020016000909192909190916101000a81548173ffffffffffffffffffffffffffffffffffffffff021916908373ffffffffffffffffffffffffffffffffffffffff160217905550505b6123dd81600660008573ffffffffffffffffffffffffffffffffffffffff1673ffffffffffffffffffffffffffffffffffffffff168152602001908152602001600020546116fb90919063ffffffff16565b600660008473ffffffffffffffffffffffffffffffffffffffff1673ffffffffffffffffffffffffffffffffffffffff168152602001908152602001600020819055505050565b5050565b60008260ff16118015612448575061243e610fda565b60ff168260ff1611155b151561245357600080fd5b61247f81600f60008560ff1660ff168152602001908152602001600020546116fb90919063ffffffff16565b600f60008460ff1660ff168152602001908152602001600020819055505050565b6000809054906101000a900473ffffffffffffffffffffffffffffffffffffffff1673ffffffffffffffffffffffffffffffffffffffff166340c10f1983836040518363ffffffff167c0100000000000000000000000000000000000000000000000000000000028152600401808373ffffffffffffffffffffffffffffffffffffffff1673ffffffffffffffffffffffffffffffffffffffff16815260200182815260200192505050602060405180830381600087803b15801561256457600080fd5b505af1158015612578573d6000803e3d6000fd5b505050506040513d602081101561258e57600080fd5b810190808051906020019092919050505015156125aa57600080fd5b5050565b60008260000160008373ffffffffffffffffffffffffffffffffffffffff1673ffffffffffffffffffffffffffffffffffffffff16815260200190815260200160002060006101000a81548160ff0219169083151502179055505050565b60018260000160008373ffffffffffffffffffffffffffffffffffffffff1673ffffffffffffffffffffffffffffffffffffffff16815260200190815260200160002060006101000a81548160ff0219169083151502179055505050565b600073ffffffffffffffffffffffffffffffffffffffff168273ffffffffffffffffffffffffffffffffffffffff16141515156126a657600080fd5b600081141515156126b657600080fd5b50505600a165627a7a7230582040c7e40f879e02a50b004ec333bca0e4144b80659918415f8753c239d37223870029",
  "source": "pragma solidity 0.4.24;\r\n\r\nimport \"./CWTPToken.sol\";\r\nimport \"./SteppedRateCrowdsale.sol\";\r\nimport \"./SteppedCapCrowdsale.sol\";\r\nimport \"./PostDeliveryCrowdsale.sol\";\r\nimport \"openzeppelin-solidity/contracts/crowdsale/emission/MintedCrowdsale.sol\";\r\nimport \"openzeppelin-solidity/contracts/ownership/rbac/RBACWithAdmin.sol\";\r\n\r\ncontract CWTPTokenSale is PostDeliveryCrowdsale, MintedCrowdsale, RBACWithAdmin, SteppedRateCrowdsale, SteppedCapCrowdsale {\r\n\r\n  string public constant ROLE_DAPP = \"dapp\";\r\n  string public constant ROLE_SRV = \"service\";\r\n\r\n  mapping (address => uint256) public deposited;\r\n  event Refunded(address indexed beneficiary, uint256 weiAmount);\r\n  uint256 private _totalRefundDeposit;\r\n\r\n  constructor(uint256 _startTime, uint256 _endTime, uint256 _cap, uint256 _minAmount, uint256 _rate, address _wallet, ERC20 _tokenAddress) public\r\n    TimedCrowdsale(_startTime, _endTime)\r\n    SteppedCapCrowdsale(_cap, _minAmount)\r\n    Crowdsale(_rate, _wallet, _tokenAddress)\r\n  {\r\n    require(Ownable(_tokenAddress) != address(0));\r\n    addRole(msg.sender, ROLE_DAPP);\r\n    addRole(msg.sender, ROLE_SRV);\r\n    //addRole(address(0x000000000000000000000), ROLE_DAPP);\r\n  }\r\n\r\n  function addCrowdsaleStep(uint256 _timestamp, uint256 _cap, uint256 _rate) onlyRole(ROLE_DAPP) public{\r\n    uint8 step = _addStep(_timestamp);\r\n    _setStepCap(step, _cap);\r\n    _setStepRate(step, _rate);\r\n  }\r\n\r\n  function setEthUsdRate(uint256 usdRate) onlyRole(ROLE_SRV) public{\r\n    _setEthUsdRate(usdRate);\r\n  }\r\n\r\n  function getPriceForTokens(uint256 amount) public view returns(uint256) {\r\n    return amount.mul(getCurrentRate()).div(getEthUsdRate());\r\n  }\r\n\r\n  function transferTokenOwnership() onlyAdmin public\r\n  {\r\n    // solium-disable-next-line security/no-block-members\r\n    require(closingTime < block.timestamp);\r\n    Ownable(token).transferOwnership(msg.sender);\r\n  }\r\n\r\n  function _processPurchase(address _beneficiary, uint256 _tokenAmount) internal {\r\n    uint256 dep = (_tokenAmount % 1 ether);\r\n    uint256 currentRate = getCurrentRate();\r\n    uint256 refund = dep.mul(currentRate).div(getEthUsdRate());\r\n    deposited[msg.sender] = deposited[msg.sender].add(refund);\r\n    _totalRefundDeposit = _totalRefundDeposit.add(refund);\r\n    super._processPurchase(_beneficiary, _tokenAmount.sub(dep));\r\n  }\r\n\r\n  function _forwardFunds() internal {\r\n    uint256 funds = msg.value;\r\n    if (address(this).balance.sub(funds) < _totalRefundDeposit)\r\n    {\r\n      funds = funds.sub(_totalRefundDeposit.sub(address(this).balance.sub(funds)));\r\n    }\r\n    wallet.transfer(funds);\r\n  }\r\n\r\n  function refund(address investor) public {\r\n    require(deposited[investor] > 0);\r\n    uint256 depositedValue = deposited[investor];\r\n    deposited[investor] = 0;\r\n    investor.transfer(depositedValue);\r\n    emit Refunded(investor, depositedValue);\r\n  }\r\n\r\n  function CloseContract() onlyAdmin public {\r\n    require(hasClosed());\r\n    _withdrawTokens();\r\n    if(Ownable(token).owner() == address(this))\r\n      transferTokenOwnership();\r\n    selfdestruct(msg.sender);\r\n  }\r\n}\r\n",
  "sourcePath": "c:\\Users\\maxwell\\Documents\\GitHub\\cryptoworkplace.io\\res\\Etherium\\CWP\\contracts\\CWTPTokenSale.sol",
  "compiler": {
    "name": "solc",
    "version": "0.4.24+commit.e67f0147.Emscripten.clang"
  },
  "schemaVersion": "2.0.0",
  "updatedAt": "2018-06-03T20:30:11.596Z"
}