{
  "contractName": "CWTPTokenSale",
  "abi": [
    {
      "constant": true,
      "inputs": [
        {
          "name": "_operator",
          "type": "address"
        },
        {
          "name": "_role",
          "type": "string"
        }
      ],
      "name": "checkRole",
      "outputs": [],
      "payable": false,
      "stateMutability": "view",
      "type": "function"
    },
    {
      "constant": true,
      "inputs": [],
      "name": "hasClosed",
      "outputs": [
        {
          "name": "",
          "type": "bool"
        }
      ],
      "payable": false,
      "stateMutability": "view",
      "type": "function"
    },
    {
      "constant": true,
      "inputs": [],
      "name": "ROLE_WHITELISTED",
      "outputs": [
        {
          "name": "",
          "type": "string"
        }
      ],
      "payable": false,
      "stateMutability": "view",
      "type": "function"
    },
    {
      "constant": true,
      "inputs": [
        {
          "name": "_operator",
          "type": "address"
        },
        {
          "name": "_role",
          "type": "string"
        }
      ],
      "name": "hasRole",
      "outputs": [
        {
          "name": "",
          "type": "bool"
        }
      ],
      "payable": false,
      "stateMutability": "view",
      "type": "function"
    },
    {
      "constant": false,
      "inputs": [
        {
          "name": "_operators",
          "type": "address[]"
        }
      ],
      "name": "removeAddressesFromWhitelist",
      "outputs": [],
      "payable": false,
      "stateMutability": "nonpayable",
      "type": "function"
    },
    {
      "constant": false,
      "inputs": [
        {
          "name": "_operator",
          "type": "address"
        }
      ],
      "name": "removeAddressFromWhitelist",
      "outputs": [],
      "payable": false,
      "stateMutability": "nonpayable",
      "type": "function"
    },
    {
      "constant": true,
      "inputs": [],
      "name": "rate",
      "outputs": [
        {
          "name": "",
          "type": "uint256"
        }
      ],
      "payable": false,
      "stateMutability": "view",
      "type": "function"
    },
    {
      "constant": true,
      "inputs": [],
      "name": "cap",
      "outputs": [
        {
          "name": "",
          "type": "uint256"
        }
      ],
      "payable": false,
      "stateMutability": "view",
      "type": "function"
    },
    {
      "constant": true,
      "inputs": [],
      "name": "weiRaised",
      "outputs": [
        {
          "name": "",
          "type": "uint256"
        }
      ],
      "payable": false,
      "stateMutability": "view",
      "type": "function"
    },
    {
      "constant": true,
      "inputs": [],
      "name": "ROLE_SRV",
      "outputs": [
        {
          "name": "",
          "type": "string"
        }
      ],
      "payable": false,
      "stateMutability": "view",
      "type": "function"
    },
    {
      "constant": true,
      "inputs": [],
      "name": "closingTime",
      "outputs": [
        {
          "name": "",
          "type": "uint256"
        }
      ],
      "payable": false,
      "stateMutability": "view",
      "type": "function"
    },
    {
      "constant": true,
      "inputs": [],
      "name": "capReached",
      "outputs": [
        {
          "name": "",
          "type": "bool"
        }
      ],
      "payable": false,
      "stateMutability": "view",
      "type": "function"
    },
    {
      "constant": true,
      "inputs": [],
      "name": "ROLE_DAPP",
      "outputs": [
        {
          "name": "",
          "type": "string"
        }
      ],
      "payable": false,
      "stateMutability": "view",
      "type": "function"
    },
    {
      "constant": true,
      "inputs": [],
      "name": "wallet",
      "outputs": [
        {
          "name": "",
          "type": "address"
        }
      ],
      "payable": false,
      "stateMutability": "view",
      "type": "function"
    },
    {
      "constant": true,
      "inputs": [
        {
          "name": "",
          "type": "address"
        }
      ],
      "name": "fixRate",
      "outputs": [
        {
          "name": "rate",
          "type": "uint256"
        },
        {
          "name": "time",
          "type": "uint256"
        },
        {
          "name": "amount",
          "type": "uint256"
        }
      ],
      "payable": false,
      "stateMutability": "view",
      "type": "function"
    },
    {
      "constant": false,
      "inputs": [
        {
          "name": "addr",
          "type": "address"
        },
        {
          "name": "roleName",
          "type": "string"
        }
      ],
      "name": "adminRemoveRole",
      "outputs": [],
      "payable": false,
      "stateMutability": "nonpayable",
      "type": "function"
    },
    {
      "constant": true,
      "inputs": [],
      "name": "owner",
      "outputs": [
        {
          "name": "",
          "type": "address"
        }
      ],
      "payable": false,
      "stateMutability": "view",
      "type": "function"
    },
    {
      "constant": true,
      "inputs": [
        {
          "name": "_operator",
          "type": "address"
        }
      ],
      "name": "whitelist",
      "outputs": [
        {
          "name": "",
          "type": "bool"
        }
      ],
      "payable": false,
      "stateMutability": "view",
      "type": "function"
    },
    {
      "constant": false,
      "inputs": [
        {
          "name": "addr",
          "type": "address"
        },
        {
          "name": "roleName",
          "type": "string"
        }
      ],
      "name": "adminAddRole",
      "outputs": [],
      "payable": false,
      "stateMutability": "nonpayable",
      "type": "function"
    },
    {
      "constant": true,
      "inputs": [],
      "name": "openingTime",
      "outputs": [
        {
          "name": "",
          "type": "uint256"
        }
      ],
      "payable": false,
      "stateMutability": "view",
      "type": "function"
    },
    {
      "constant": true,
      "inputs": [],
      "name": "ROLE_ADMIN",
      "outputs": [
        {
          "name": "",
          "type": "string"
        }
      ],
      "payable": false,
      "stateMutability": "view",
      "type": "function"
    },
    {
      "constant": false,
      "inputs": [
        {
          "name": "_operators",
          "type": "address[]"
        }
      ],
      "name": "addAddressesToWhitelist",
      "outputs": [],
      "payable": false,
      "stateMutability": "nonpayable",
      "type": "function"
    },
    {
      "constant": false,
      "inputs": [
        {
          "name": "_beneficiary",
          "type": "address"
        }
      ],
      "name": "buyTokens",
      "outputs": [],
      "payable": true,
      "stateMutability": "payable",
      "type": "function"
    },
    {
      "constant": false,
      "inputs": [
        {
          "name": "_newOwner",
          "type": "address"
        }
      ],
      "name": "transferOwnership",
      "outputs": [],
      "payable": false,
      "stateMutability": "nonpayable",
      "type": "function"
    },
    {
      "constant": true,
      "inputs": [],
      "name": "token",
      "outputs": [
        {
          "name": "",
          "type": "address"
        }
      ],
      "payable": false,
      "stateMutability": "view",
      "type": "function"
    },
    {
      "inputs": [
        {
          "name": "_startTime",
          "type": "uint256"
        },
        {
          "name": "_endTime",
          "type": "uint256"
        },
        {
          "name": "_cap",
          "type": "uint256"
        },
        {
          "name": "_wallet",
          "type": "address"
        },
        {
          "name": "_tokenAddress",
          "type": "address"
        }
      ],
      "payable": false,
      "stateMutability": "nonpayable",
      "type": "constructor"
    },
    {
      "payable": true,
      "stateMutability": "payable",
      "type": "fallback"
    },
    {
      "anonymous": false,
      "inputs": [
        {
          "indexed": true,
          "name": "purchaser",
          "type": "address"
        },
        {
          "indexed": true,
          "name": "beneficiary",
          "type": "address"
        },
        {
          "indexed": false,
          "name": "value",
          "type": "uint256"
        },
        {
          "indexed": false,
          "name": "amount",
          "type": "uint256"
        }
      ],
      "name": "TokenPurchase",
      "type": "event"
    },
    {
      "anonymous": false,
      "inputs": [
        {
          "indexed": true,
          "name": "operator",
          "type": "address"
        },
        {
          "indexed": false,
          "name": "role",
          "type": "string"
        }
      ],
      "name": "RoleAdded",
      "type": "event"
    },
    {
      "anonymous": false,
      "inputs": [
        {
          "indexed": true,
          "name": "operator",
          "type": "address"
        },
        {
          "indexed": false,
          "name": "role",
          "type": "string"
        }
      ],
      "name": "RoleRemoved",
      "type": "event"
    },
    {
      "anonymous": false,
      "inputs": [
        {
          "indexed": true,
          "name": "previousOwner",
          "type": "address"
        }
      ],
      "name": "OwnershipRenounced",
      "type": "event"
    },
    {
      "anonymous": false,
      "inputs": [
        {
          "indexed": true,
          "name": "previousOwner",
          "type": "address"
        },
        {
          "indexed": true,
          "name": "newOwner",
          "type": "address"
        }
      ],
      "name": "OwnershipTransferred",
      "type": "event"
    },
    {
      "constant": false,
      "inputs": [
        {
          "name": "_dappAddr",
          "type": "address"
        }
      ],
      "name": "registerDappAddress",
      "outputs": [],
      "payable": false,
      "stateMutability": "nonpayable",
      "type": "function"
    },
    {
      "constant": true,
      "inputs": [],
      "name": "hasOpened",
      "outputs": [
        {
          "name": "",
          "type": "bool"
        }
      ],
      "payable": false,
      "stateMutability": "view",
      "type": "function"
    },
    {
      "constant": false,
      "inputs": [
        {
          "name": "_operator",
          "type": "address"
        }
      ],
      "name": "addAddressToWhitelist",
      "outputs": [],
      "payable": false,
      "stateMutability": "nonpayable",
      "type": "function"
    },
    {
      "constant": false,
      "inputs": [
        {
          "name": "newRate",
          "type": "uint256"
        },
        {
          "name": "buyer",
          "type": "address"
        },
        {
          "name": "amount",
          "type": "uint256"
        }
      ],
      "name": "setRateForTransaction",
      "outputs": [],
      "payable": false,
      "stateMutability": "nonpayable",
      "type": "function"
    },
    {
      "constant": false,
      "inputs": [],
      "name": "renounceOwnership",
      "outputs": [],
      "payable": false,
      "stateMutability": "nonpayable",
      "type": "function"
    },
    {
      "constant": false,
      "inputs": [],
      "name": "transferTokenOwnership",
      "outputs": [],
      "payable": false,
      "stateMutability": "nonpayable",
      "type": "function"
    },
    {
      "constant": false,
      "inputs": [],
      "name": "CloseContract",
      "outputs": [],
      "payable": false,
      "stateMutability": "nonpayable",
      "type": "function"
    }
  ],
  "bytecode": "0x60806040523480156200001157600080fd5b5060405160a08062002588833981018060405281019080805190602001909291908051906020019092919080519060200190929190805190602001909291908051906020019092919050505084848460018585336000806101000a81548173ffffffffffffffffffffffffffffffffffffffff021916908373ffffffffffffffffffffffffffffffffffffffff160217905550600083111515620000b457600080fd5b600073ffffffffffffffffffffffffffffffffffffffff168273ffffffffffffffffffffffffffffffffffffffff1614151515620000f157600080fd5b600073ffffffffffffffffffffffffffffffffffffffff168173ffffffffffffffffffffffffffffffffffffffff16141515156200012e57600080fd5b8260048190555081600360006101000a81548173ffffffffffffffffffffffffffffffffffffffff021916908373ffffffffffffffffffffffffffffffffffffffff16021790555080600260006101000a81548173ffffffffffffffffffffffffffffffffffffffff021916908373ffffffffffffffffffffffffffffffffffffffff1602179055505050506200020a336040805190810160405280600581526020017f61646d696e0000000000000000000000000000000000000000000000000000008152506200033a640100000000026401000000009004565b6000811115156200021a57600080fd5b80600681905550504282101515156200023257600080fd5b8181101515156200024257600080fd5b81600781905550806008819055505050600073ffffffffffffffffffffffffffffffffffffffff168173ffffffffffffffffffffffffffffffffffffffff16141515156200028f57600080fd5b620002df336040805190810160405280600481526020017f64617070000000000000000000000000000000000000000000000000000000008152506200033a640100000000026401000000009004565b6200032f336040805190810160405280600781526020017f73657276696365000000000000000000000000000000000000000000000000008152506200033a640100000000026401000000009004565b5050505050620004e1565b620003c9826001836040518082805190602001908083835b60208310151562000379578051825260208201915060208101905060208303925062000352565b6001836020036101000a0380198251168184511680821785525050505050509050019150509081526020016040518091039020620004836401000000000262001f3b179091906401000000009004565b8173ffffffffffffffffffffffffffffffffffffffff167fbfec83d64eaa953f2708271a023ab9ee82057f8f3578d548c1a4ba0b5b700489826040518080602001828103825283818151815260200191508051906020019080838360005b838110156200044457808201518184015260208101905062000427565b50505050905090810190601f168015620004725780820380516001836020036101000a031916815260200191505b509250505060405180910390a25050565b60018260000160008373ffffffffffffffffffffffffffffffffffffffff1673ffffffffffffffffffffffffffffffffffffffff16815260200190815260200160002060006101000a81548160ff0219169083151502179055505050565b61209780620004f16000396000f300608060405260043610610196576000357c0100000000000000000000000000000000000000000000000000000000900463ffffffff1680630988ca8c146101a15780631515bc2b1461022a57806318b919e914610259578063217fe6c6146102e957806324953eaa1461038a5780632675c123146103f0578063286dd3f5146104075780632c4e722e1461044a5780632f591a6a14610475578063355274ea146104cc5780634042b66f146104f75780634056675e1461052257806341df5b74146105395780634b6753bc146105c95780634f935945146105f457806351a0daf914610623578063521eb273146106b3578063626a91981461070a578063715018a61461076f5780637b9417c81461078657806388cee87e146107c95780638da5cb5b146108525780639b19251a146108a9578063b25fa92c14610904578063b7a8807c1461098d578063be8eef8e146109b8578063d391014b146109e7578063d93debd514610a77578063e2ec6ec314610aba578063ec8ac4d814610b20578063f2fde38b14610b56578063fc0c546a14610b99575b61019f33610bf0565b005b3480156101ad57600080fd5b50610228600480360381019080803573ffffffffffffffffffffffffffffffffffffffff169060200190929190803590602001908201803590602001908080601f0160208091040260200160405190810160405280939291908181526020018383808284378201915050505050509192919290505050610cbe565b005b34801561023657600080fd5b5061023f610d3f565b604051808215151515815260200191505060405180910390f35b34801561026557600080fd5b5061026e610d4b565b6040518080602001828103825283818151815260200191508051906020019080838360005b838110156102ae578082015181840152602081019050610293565b50505050905090810190601f1680156102db5780820380516001836020036101000a031916815260200191505b509250505060405180910390f35b3480156102f557600080fd5b50610370600480360381019080803573ffffffffffffffffffffffffffffffffffffffff169060200190929190803590602001908201803590602001908080601f0160208091040260200160405190810160405280939291908181526020018383808284378201915050505050509192919290505050610d84565b604051808215151515815260200191505060405180910390f35b34801561039657600080fd5b506103ee60048036038101908080359060200190820180359060200190808060200260200160405190810160405280939291908181526020018383602002808284378201915050505050509192919290505050610e0b565b005b3480156103fc57600080fd5b50610405610ea7565b005b34801561041357600080fd5b50610448600480360381019080803573ffffffffffffffffffffffffffffffffffffffff16906020019092919050505061100f565b005b34801561045657600080fd5b5061045f6110ac565b6040518082815260200191505060405180910390f35b34801561048157600080fd5b506104ca60048036038101908080359060200190929190803573ffffffffffffffffffffffffffffffffffffffff169060200190929190803590602001909291905050506110b2565b005b3480156104d857600080fd5b506104e16111e8565b6040518082815260200191505060405180910390f35b34801561050357600080fd5b5061050c6111ee565b6040518082815260200191505060405180910390f35b34801561052e57600080fd5b506105376111f4565b005b34801561054557600080fd5b5061054e61131d565b6040518080602001828103825283818151815260200191508051906020019080838360005b8381101561058e578082015181840152602081019050610573565b50505050905090810190601f1680156105bb5780820380516001836020036101000a031916815260200191505b509250505060405180910390f35b3480156105d557600080fd5b506105de611356565b6040518082815260200191505060405180910390f35b34801561060057600080fd5b5061060961135c565b604051808215151515815260200191505060405180910390f35b34801561062f57600080fd5b5061063861136b565b6040518080602001828103825283818151815260200191508051906020019080838360005b8381101561067857808201518184015260208101905061065d565b50505050905090810190601f1680156106a55780820380516001836020036101000a031916815260200191505b509250505060405180910390f35b3480156106bf57600080fd5b506106c86113a4565b604051808273ffffffffffffffffffffffffffffffffffffffff1673ffffffffffffffffffffffffffffffffffffffff16815260200191505060405180910390f35b34801561071657600080fd5b5061074b600480360381019080803573ffffffffffffffffffffffffffffffffffffffff1690602001909291905050506113ca565b60405180848152602001838152602001828152602001935050505060405180910390f35b34801561077b57600080fd5b506107846113f4565b005b34801561079257600080fd5b506107c7600480360381019080803573ffffffffffffffffffffffffffffffffffffffff169060200190929190505050611451565b005b3480156107d557600080fd5b50610850600480360381019080803573ffffffffffffffffffffffffffffffffffffffff169060200190929190803590602001908201803590602001908080601f01602080910402602001604051908101604052809392919081815260200183838082843782019150505050505091929192905050506114e5565b005b34801561085e57600080fd5b50610867611532565b604051808273ffffffffffffffffffffffffffffffffffffffff1673ffffffffffffffffffffffffffffffffffffffff16815260200191505060405180910390f35b3480156108b557600080fd5b506108ea600480360381019080803573ffffffffffffffffffffffffffffffffffffffff169060200190929190505050611557565b604051808215151515815260200191505060405180910390f35b34801561091057600080fd5b5061098b600480360381019080803573ffffffffffffffffffffffffffffffffffffffff169060200190929190803590602001908201803590602001908080601f016020809104026020016040519081016040528093929190818152602001838380828437820191505050505050919291929050505061159f565b005b34801561099957600080fd5b506109a26115ec565b6040518082815260200191505060405180910390f35b3480156109c457600080fd5b506109cd6115f2565b604051808215151515815260200191505060405180910390f35b3480156109f357600080fd5b506109fc6115fe565b6040518080602001828103825283818151815260200191508051906020019080838360005b83811015610a3c578082015181840152602081019050610a21565b50505050905090810190601f168015610a695780820380516001836020036101000a031916815260200191505b509250505060405180910390f35b348015610a8357600080fd5b50610ab8600480360381019080803573ffffffffffffffffffffffffffffffffffffffff169060200190929190505050611637565b005b348015610ac657600080fd5b50610b1e600480360381019080803590602001908201803590602001908080602002602001604051908101604052809392919081815260200183836020028082843782019150505050505091929192905050506116ba565b005b610b54600480360381019080803573ffffffffffffffffffffffffffffffffffffffff169060200190929190505050610bf0565b005b348015610b6257600080fd5b50610b97600480360381019080803573ffffffffffffffffffffffffffffffffffffffff169060200190929190505050611756565b005b348015610ba557600080fd5b50610bae6117bd565b604051808273ffffffffffffffffffffffffffffffffffffffff1673ffffffffffffffffffffffffffffffffffffffff16815260200191505060405180910390f35b600080349150610c0083836117e3565b610c09826118da565b9050610c20826005546118f890919063ffffffff16565b600581905550610c308382611914565b8273ffffffffffffffffffffffffffffffffffffffff163373ffffffffffffffffffffffffffffffffffffffff167f623b3804fa71d67900d064613da8f94b9617215ee90799290593e1745087ad188484604051808381526020018281526020019250505060405180910390a3610ca78383611922565b610caf611926565b610cb98383611991565b505050565b610d3b826001836040518082805190602001908083835b602083101515610cfa5780518252602082019150602081019050602083039250610cd5565b6001836020036101000a038019825116818451168082178552505050505050905001915050908152602001604051809103902061199590919063ffffffff16565b5050565b60006008544211905090565b6040805190810160405280600981526020017f77686974656c697374000000000000000000000000000000000000000000000081525081565b6000610e03836001846040518082805190602001908083835b602083101515610dc25780518252602082019150602081019050602083039250610d9d565b6001836020036101000a03801982511681845116808217855250505050505090500191505090815260200160405180910390206119ae90919063ffffffff16565b905092915050565b60008060009054906101000a900473ffffffffffffffffffffffffffffffffffffffff1673ffffffffffffffffffffffffffffffffffffffff163373ffffffffffffffffffffffffffffffffffffffff16141515610e6857600080fd5b600090505b8151811015610ea357610e968282815181101515610e8757fe5b9060200190602002015161100f565b8080600101915050610e6d565b5050565b610ee6336040805190810160405280600581526020017f61646d696e000000000000000000000000000000000000000000000000000000815250610cbe565b610eee610d3f565b1515610ef957600080fd5b3073ffffffffffffffffffffffffffffffffffffffff16600260009054906101000a900473ffffffffffffffffffffffffffffffffffffffff1673ffffffffffffffffffffffffffffffffffffffff16638da5cb5b6040518163ffffffff167c0100000000000000000000000000000000000000000000000000000000028152600401602060405180830381600087803b158015610f9657600080fd5b505af1158015610faa573d6000803e3d6000fd5b505050506040513d6020811015610fc057600080fd5b810190808051906020019092919050505073ffffffffffffffffffffffffffffffffffffffff161415610ff657610ff56111f4565b5b3373ffffffffffffffffffffffffffffffffffffffff16ff5b6000809054906101000a900473ffffffffffffffffffffffffffffffffffffffff1673ffffffffffffffffffffffffffffffffffffffff163373ffffffffffffffffffffffffffffffffffffffff1614151561106a57600080fd5b6110a9816040805190810160405280600981526020017f77686974656c6973740000000000000000000000000000000000000000000000815250611a07565b50565b60045481565b816110f2816040805190810160405280600981526020017f77686974656c6973740000000000000000000000000000000000000000000000815250610cbe565b6040805190810160405280600481526020017f64617070000000000000000000000000000000000000000000000000000000008152506111323382610cbe565b600754421015801561114657506008544211155b151561115157600080fd5b606060405190810160405280868152602001611178610384426118f890919063ffffffff16565b815260200184815250600960008673ffffffffffffffffffffffffffffffffffffffff1673ffffffffffffffffffffffffffffffffffffffff1681526020019081526020016000206000820151816000015560208201518160010155604082015181600201559050505050505050565b60065481565b60055481565b611233336040805190810160405280600581526020017f61646d696e000000000000000000000000000000000000000000000000000000815250610cbe565b61123b610d3f565b151561124657600080fd5b600260009054906101000a900473ffffffffffffffffffffffffffffffffffffffff1673ffffffffffffffffffffffffffffffffffffffff1663f2fde38b336040518263ffffffff167c0100000000000000000000000000000000000000000000000000000000028152600401808273ffffffffffffffffffffffffffffffffffffffff1673ffffffffffffffffffffffffffffffffffffffff168152602001915050600060405180830381600087803b15801561130357600080fd5b505af1158015611317573d6000803e3d6000fd5b50505050565b6040805190810160405280600781526020017f736572766963650000000000000000000000000000000000000000000000000081525081565b60085481565b60006006546005541015905090565b6040805190810160405280600481526020017f646170700000000000000000000000000000000000000000000000000000000081525081565b600360009054906101000a900473ffffffffffffffffffffffffffffffffffffffff1681565b60096020528060005260406000206000915090508060000154908060010154908060020154905083565b6000809054906101000a900473ffffffffffffffffffffffffffffffffffffffff1673ffffffffffffffffffffffffffffffffffffffff163373ffffffffffffffffffffffffffffffffffffffff1614151561144f57600080fd5b565b6040805190810160405280600481526020017f64617070000000000000000000000000000000000000000000000000000000008152506114913382610cbe565b60085442111515156114a257600080fd5b6114e1826040805190810160405280600981526020017f77686974656c6973740000000000000000000000000000000000000000000000815250611b3b565b5050565b611524336040805190810160405280600581526020017f61646d696e000000000000000000000000000000000000000000000000000000815250610cbe565b61152e8282611a07565b5050565b6000809054906101000a900473ffffffffffffffffffffffffffffffffffffffff1681565b6000611598826040805190810160405280600981526020017f77686974656c6973740000000000000000000000000000000000000000000000815250610d84565b9050919050565b6115de336040805190810160405280600581526020017f61646d696e000000000000000000000000000000000000000000000000000000815250610cbe565b6115e88282611b3b565b5050565b60075481565b60006007544211905090565b6040805190810160405280600581526020017f61646d696e00000000000000000000000000000000000000000000000000000081525081565b6040805190810160405280600581526020017f61646d696e0000000000000000000000000000000000000000000000000000008152506116773382610cbe565b6116b6826040805190810160405280600481526020017f6461707000000000000000000000000000000000000000000000000000000000815250611b3b565b5050565b60008060009054906101000a900473ffffffffffffffffffffffffffffffffffffffff1673ffffffffffffffffffffffffffffffffffffffff163373ffffffffffffffffffffffffffffffffffffffff1614151561171757600080fd5b600090505b815181101561175257611745828281518110151561173657fe5b90602001906020020151611451565b808060010191505061171c565b5050565b6000809054906101000a900473ffffffffffffffffffffffffffffffffffffffff1673ffffffffffffffffffffffffffffffffffffffff163373ffffffffffffffffffffffffffffffffffffffff161415156117b157600080fd5b6117ba81611c6f565b50565b600260009054906101000a900473ffffffffffffffffffffffffffffffffffffffff1681565b42600960008473ffffffffffffffffffffffffffffffffffffffff1673ffffffffffffffffffffffffffffffffffffffff1681526020019081526020016000206001015411151561183357600080fd5b80600960008473ffffffffffffffffffffffffffffffffffffffff1673ffffffffffffffffffffffffffffffffffffffff1681526020019081526020016000206002015414151561188357600080fd5b600960008373ffffffffffffffffffffffffffffffffffffffff1673ffffffffffffffffffffffffffffffffffffffff168152602001908152602001600020600001546004819055506118d68282611d69565b5050565b60006118f160045483611d9690919063ffffffff16565b9050919050565b6000818301905082811015151561190b57fe5b80905092915050565b61191e8282611dce565b5050565b5050565b600360009054906101000a900473ffffffffffffffffffffffffffffffffffffffff1673ffffffffffffffffffffffffffffffffffffffff166108fc349081150290604051600060405180830381858888f1935050505015801561198e573d6000803e3d6000fd5b50565b5050565b61199f82826119ae565b15156119aa57600080fd5b5050565b60008260000160008373ffffffffffffffffffffffffffffffffffffffff1673ffffffffffffffffffffffffffffffffffffffff16815260200190815260200160002060009054906101000a900460ff16905092915050565b611a84826001836040518082805190602001908083835b602083101515611a435780518252602082019150602081019050602083039250611a1e565b6001836020036101000a0380198251168184511680821785525050505050509050019150509081526020016040518091039020611edd90919063ffffffff16565b8173ffffffffffffffffffffffffffffffffffffffff167fd211483f91fc6eff862467f8de606587a30c8fc9981056f051b897a418df803a826040518080602001828103825283818151815260200191508051906020019080838360005b83811015611afd578082015181840152602081019050611ae2565b50505050905090810190601f168015611b2a5780820380516001836020036101000a031916815260200191505b509250505060405180910390a25050565b611bb8826001836040518082805190602001908083835b602083101515611b775780518252602082019150602081019050602083039250611b52565b6001836020036101000a0380198251168184511680821785525050505050509050019150509081526020016040518091039020611f3b90919063ffffffff16565b8173ffffffffffffffffffffffffffffffffffffffff167fbfec83d64eaa953f2708271a023ab9ee82057f8f3578d548c1a4ba0b5b700489826040518080602001828103825283818151815260200191508051906020019080838360005b83811015611c31578082015181840152602081019050611c16565b50505050905090810190601f168015611c5e5780820380516001836020036101000a031916815260200191505b509250505060405180910390a25050565b600073ffffffffffffffffffffffffffffffffffffffff168173ffffffffffffffffffffffffffffffffffffffff1614151515611cab57600080fd5b8073ffffffffffffffffffffffffffffffffffffffff166000809054906101000a900473ffffffffffffffffffffffffffffffffffffffff1673ffffffffffffffffffffffffffffffffffffffff167f8be0079c531659141344cd1fd0a4f28419497f9722a3daafe3b4186f6b6457e060405160405180910390a3806000806101000a81548173ffffffffffffffffffffffffffffffffffffffff021916908373ffffffffffffffffffffffffffffffffffffffff16021790555050565b6007544210158015611d7d57506008544211155b1515611d8857600080fd5b611d928282611f99565b5050565b600080831415611da95760009050611dc8565b8183029050818382811515611dba57fe5b04141515611dc457fe5b8090505b92915050565b600260009054906101000a900473ffffffffffffffffffffffffffffffffffffffff1673ffffffffffffffffffffffffffffffffffffffff166340c10f1983836040518363ffffffff167c0100000000000000000000000000000000000000000000000000000000028152600401808373ffffffffffffffffffffffffffffffffffffffff1673ffffffffffffffffffffffffffffffffffffffff16815260200182815260200192505050602060405180830381600087803b158015611e9357600080fd5b505af1158015611ea7573d6000803e3d6000fd5b505050506040513d6020811015611ebd57600080fd5b81019080805190602001909291905050501515611ed957600080fd5b5050565b60008260000160008373ffffffffffffffffffffffffffffffffffffffff1673ffffffffffffffffffffffffffffffffffffffff16815260200190815260200160002060006101000a81548160ff0219169083151502179055505050565b60018260000160008373ffffffffffffffffffffffffffffffffffffffff1673ffffffffffffffffffffffffffffffffffffffff16815260200190815260200160002060006101000a81548160ff0219169083151502179055505050565b611fa38282611fcc565b600654611fbb826005546118f890919063ffffffff16565b11151515611fc857600080fd5b5050565b8161200c816040805190810160405280600981526020017f77686974656c6973740000000000000000000000000000000000000000000000815250610cbe565b612016838361201b565b505050565b600073ffffffffffffffffffffffffffffffffffffffff168273ffffffffffffffffffffffffffffffffffffffff161415151561205757600080fd5b6000811415151561206757600080fd5b50505600a165627a7a723058204fc0f8d33b68bf1a4742e333d71920eb756cabd3bf544206d78fdf866be2f0c50029",
  "source": "pragma solidity 0.4.24;\r\n\r\nimport \"./CWTPToken.sol\";\r\nimport \"openzeppelin-solidity/contracts/crowdsale/emission/MintedCrowdsale.sol\";\r\nimport \"openzeppelin-solidity/contracts/crowdsale/validation/CappedCrowdsale.sol\";\r\nimport \"openzeppelin-solidity/contracts/crowdsale/validation/TimedCrowdsale.sol\";\r\nimport \"openzeppelin-solidity/contracts/crowdsale/validation/WhitelistedCrowdsale.sol\";\r\nimport \"./RBACWithAdmin.sol\";\r\n\r\ncontract CWTPTokenSale is WhitelistedCrowdsale, MintedCrowdsale, RBACWithAdmin, CappedCrowdsale, TimedCrowdsale {\r\n\r\n  struct FixedRate {\r\n    uint256 rate;\r\n    uint256 time;\r\n    uint256 amount;\r\n  }\r\n\r\n  string public constant ROLE_DAPP = \"dapp\";\r\n  string public constant ROLE_SRV = \"service\";\r\n\r\n  mapping(address => FixedRate) public fixRate;\r\n\r\n  constructor(uint256 _startTime, uint256 _endTime, uint256 _cap, address _wallet, ERC20 _tokenAddress) public\r\n    TimedCrowdsale(_startTime, _endTime)\r\n    CappedCrowdsale(_cap)\r\n    Crowdsale(1, _wallet, _tokenAddress)\r\n  {\r\n    require(Ownable(_tokenAddress) != address(0));\r\n    addRole(msg.sender, ROLE_DAPP);\r\n    addRole(msg.sender, ROLE_SRV);\r\n  }\r\n\r\n  function registerDappAddress(address _dappAddr) public onlyRole(ROLE_ADMIN) {\r\n    addRole(_dappAddr, ROLE_DAPP);\r\n  }\r\n\r\n/**\r\n   * @dev Checks whether the period in which the crowdsale is open has already elapsed.\r\n   * @return Whether crowdsale period has elapsed\r\n   */\r\n  function hasOpened() public view returns (bool) {\r\n    // solium-disable-next-line security/no-block-members\r\n    return block.timestamp > openingTime;\r\n  }\r\n\r\n  /**\r\n   * @dev add an address to the whitelist\r\n   * @param _operator address\r\n   * @return true if the address was added to the whitelist, false if the address was already in the whitelist\r\n   */\r\n  function addAddressToWhitelist(address _operator) public onlyRole(ROLE_DAPP)\r\n  {\r\n    require(block.timestamp <= closingTime);\r\n    addRole(_operator, ROLE_WHITELISTED);\r\n  }\r\n\r\n  function setRateForTransaction(uint256 newRate, address buyer, uint256 amount) public onlyIfWhitelisted(buyer) onlyRole(ROLE_DAPP) onlyWhileOpen\r\n  {\r\n    fixRate[buyer] = FixedRate(newRate, block.timestamp.add(15 minutes), amount);\r\n  }\r\n\r\n  /**\r\n   * @dev Extend parent behavior requiring beneficiary to be in fix rate list.\r\n   * @param _beneficiary Token beneficiary\r\n   * @param _weiAmount Amount of wei contributed\r\n   */\r\n  function _preValidatePurchase(\r\n    address _beneficiary,\r\n    uint256 _weiAmount\r\n  )\r\n    internal\r\n  {\r\n    require(fixRate[_beneficiary].time > block.timestamp);\r\n    require(fixRate[_beneficiary].amount == _weiAmount);\r\n    rate = fixRate[_beneficiary].rate;\r\n\r\n    super._preValidatePurchase(_beneficiary, _weiAmount);\r\n  }\r\n\r\n  /**\r\n   * @dev Allows the current owner to relinquish control of the contract.\r\n   * @notice Disable renounce ownership\r\n   */\r\n  function renounceOwnership() public onlyOwner {\r\n  }\r\n\r\n  function transferTokenOwnership() onlyAdmin public\r\n  {\r\n    // solium-disable-next-line security/no-block-members\r\n    require(hasClosed());\r\n    Ownable(token).transferOwnership(msg.sender);\r\n  }\r\n\r\n  function CloseContract() onlyAdmin public {\r\n    require(hasClosed());\r\n    if(Ownable(token).owner() == address(this))\r\n      transferTokenOwnership();\r\n    selfdestruct(msg.sender);\r\n  }\r\n}\r\n",
  "sourcePath": "C:\\Users\\mmaslich\\Documents\\GitHub\\cryptoworkplace.io\\res\\Etherium\\CWP\\contracts\\CWTPTokenSale.sol",
  "compiler": {
    "name": "solc",
    "version": "0.4.24+commit.e67f0147.Emscripten.clang"
  },
  "schemaVersion": "2.0.1",
  "updatedAt": "2018-09-29T13:50:14.638Z"
}